:100000000C94BF2E0C94E02E0C94E02E0C94E02E59
:100010000C94E02E0C94E02E0C94E02E0C94E02E28
:100020000C94E02E0C94E02E0C94E02E0C94E02E18
:100030000C94E02E0C94E02E0C94E02E0C94E02E08
:100040000C94E02E0C94E02E0C94E02E0C94E02EF8
:100050000C94E02E0C94E02E0C94E02E0C94E02EE8
:100060000C94E02E0C94E02E0C94E02E0C94E02ED8
:100070000C94E02E0C94E02E0C94E02E0C94E02EC8
:100080000C94E02E0C94E02E0C94E02E0C94E02EB8
:100090000C94E02E0C94E02E0C94E02E0C94E02EA8
:1000A0000C94E02E0C94E02E0C94E02E0C94E02E98
:1000B0000C94E02E0C94E02E0C94E02E0C94E02E88
:1000C0000C94E02E0C94E02E0C94E02E0C94E02E78
:1000D0000C94E02E0C94E02E0C94E02E0C94E02E68
:1000E0000C94E02E0C94E02E0C94E02E0C94E02E58
:1000F0000C94E02E0C94E02E0C94E02E0C94E02E48
:100100000C94E02E0C94E02E0C94E02E0C94E02E37
:100110000C94E02E0C94E02E0C94E02E0C94E02E27
:100120000C94E02E0C94E02E0C94E02E0C94E02E17
:100130000C94E02E0C94E02E0C94E02E0C94E02E07
:100140000C94E02E0C94E02E0C94E02E0C94E02EF7
:100150000C94E02E0C94E02E0C94E02E0C94E02EE7
:100160000C94E02E0C94E02E0C94E02E0C94E02ED7
:100170000C94E02E0C94E02E0C94E02E0C94E02EC7
:100180000C94E02E0C94E02E0C94E02E0C94E02EB7
:100190000C94E02E0C94E02E0C94E02E0C94E02EA7
:1001A0000C94E02E0C94E02E0C94E02E0C94E02E97
:1001B0000C94E02E0C94E02E0C94E02E0C94E02E87
:1001C0000C94E02E0C94E02E0C94E02E0C94E02E77
:1001D0000C94E02E0C94E02E0C94E02E0C94E02E67
:1001E0000C94E02E0C94E02E4F2F732F982FBD2FE0
:1001F000E22F07302C30513076309B30C030E53064
:100200000A31303156317C31A231C831EE311432ED
:100210003A32EE33083423343E34593474348F3454
:10022000AA34C634E234FE341935353550356C35D0
:100230008835A335BF35DB35F63512362D364936D0
:10024000653681369C36B736D236EE360A372637D3
:1002500041375C3778379437B037CC37E8370438D4
:1002600021383E385A3876389338AF38CC38E838A9
:10027000043921393E395A3975399139AC39C8397F
:10028000E439003A1C3A383A553A723A8D3AA93A6A
:10029000C43AE03AFC3A183B353B513B6D3B8A3B54
:1002A000A63BC33BDF3BFC3B183C333C4F3C6B3C29
:1002B000863CA23CBE3CDA3CF73C133D303D4C3D15
:1002C000693D853DA13DBE3DD93DF53D113E2C3EEC
:1002D000483E643E813E9E3EBA3ED63EF13E0D3FD4
:1002E000293F453F603F7C3F983FB53FD23FEE3FBF
:1002F0000A402740434060407C409840B540D2408F
:10030000EE400A41254141415D4179410000000034
:1003100000000000000000000000000000000000DD
:1003200000000000040404040400000000000000B9
:1003300000000000000000000000000000000000BD
:1003400000000000000000010101010400000000A5
:10035000000000000000000000000000000000009D
:100360000000000000010101010101010101010182
:10037000000000000000000000000000000000007D
:100380000000000000000001010101010101010164
:10039000010100000000000000000000000000005B
:1003A0000000000000000101010101010101010440
:1003B0000404010101000000000000000000000032
:1003C000000000000000010101010101010104041D
:1003D0000404040404040400000000000000000001
:1003E00000000000000101010101010101010404FC
:1003F00004040404040404040400000000000000D9
:1004000000010101010101010101010101010104DA
:1004100004040404040404040404040400000000AC
:1004200000000101010101010101010101010101BE
:100430000104040404040404040404040404000087
:1004400000000000010000000001010101010101A4
:100450000101010104040404040404040404040468
:100460000000000000000000000000000001010189
:100470000101010101010101040404040404040454
:10048000040400000000000000000000000004045C
:100490000401010101010101010104040404040437
:1004A0000404040000000000000000000000000040
:1004B0000000000404010101010101010101010426
:1004C000040404040100000000000000000000001B
:1004D0000000000000000404040101010101010109
:1004E0000101010101010400000000000000000002
:1004F00000000000000000000004040101010101EF
:1005000001010101010101010000000000000000E3
:1005100000000000000000000000000004040401CE
:1005200001010101010101010404000000000000BB
:1005300000000000000000000000000000000004B7
:100540000404040404040404040400000000000083
:10055000000000000000000000000000000000009B
:10056000000000000404040404040404000000006B
:10057000000000000000000000000000000000007B
:100580000000010101010404040404000000000053
:10059000000000000000000000000000000000005B
:1005A0000001010101010101010101010404040034
:1005B000000000000000000000000000000000003B
:1005C000000000010101010101010101010101041B
:1005D0000400000000000000000000000000000017
:1005E0000000000000000101010101010101010101
:1005F00001010104000000000000000000000000F4
:1006000000000001010101010101010101010101DD
:1006100001010101010400000000000000000000D1
:1006200000000101010101010101010101010101BC
:1006300001010101010101010404000000000000AA
:10064000000001010101010101010101010101019C
:100650000101010404040404040401010400000075
:10066000000000010101010101010101010101017D
:10067000010101010404040404040404040401004D
:10068000000000000101010101010101010101015E
:100690000101010101040404040404040404040429
:1006A0000404000000000101010101010101010138
:1006B0000101010101040404040404040404040409
:1006C0000404040100000101010101010101010113
:1006D00001010101010104040404040404040404EC
:1006E00004040404040100000101010101010101ED
:1006F00001010104040404040404040404040404C3
:1007000004040404040404040001010101010101C2
:1007100001010101010101040404040404040404AE
:10072000040404040404040404040101010101019B
:100730000101010101010101010104040404040497
:10074000040404040404040404040400000000007D
:100750000000000101010101010101010101010489
:10076000040404040101010404040404040000005E
:100770000000000000000001010101010101010170
:10078000010101040404010101040404040404003F
:100790000000000000000000000001010101010153
:1007A000010101010101010101010104040404042A
:1007B0000400000000000000000000000000010133
:1007C0000101010101010101010101010104040113
:1007D0000404000000000000000000000000000011
:1007E00000010101010101010101010101010101FA
:1007F00001010404000000000000000000000004EB
:1008000004040404040101010101010101010101C9
:1008100001010104000000000000000000000000D1
:1008200000000000000404040401010101010101B1
:1008300001010104040000000000000000000000AD
:100840000000000000000004040404010101010193
:10085000010101010104040000000000000000008B
:100860000000000000000000000000000404040478
:100870000401010104040404000000000000000061
:100880000000000000000000000000000000000068
:10089000040404040404040000000000000000003C
:1008A0000000000000000000000000000000000048
:1008B0000000000000000000000000000000000038
:1008C0000000000000000000000000000000000028
:1008D0000000000000000000000000000000000018
:1008E0000000000000000000000000000000000008
:1008F00000000000000000000000000000000000F8
:1009000000000000000000000000000000000000E7
:1009100000000000000000000000000000000000D7
:1009200000000000000000000000000000000000C7
:1009300000000000000000000000000000000000B7
:1009400000000000000000000000000000000000A7
:100950000000000000000000000000000000000097
:100960000000000000000000000000000000000087
:100970000000000000000000000000000000000077
:100980000000000000000000000000000000000067
:10099000000000000000000700070707000000003B
:1009A0000000000000000000000000000000000047
:1009B000000000000000000000000007070707001B
:1009C00007070707070707000707070707070700C5
:1009D00000000000000007070707000700000707E6
:1009E00000000000000000000000070707070700E4
:1009F00007070700000000000707070707070000B8
:100A000007000000000000000000000000070707CA
:100A10000700070707000000000707070707000790
:100A200000000700000000070707000000000000AA
:100A30000707070700070700000007070700000770
:100A4000070707000007070700000000000000007C
:100A50000000070000070007070000000707070065
:100A6000070700070700000007070000070700004E
:100A70000000070707000007000707000000000745
:100A80000007070700070700000700000700000035
:100A9000000000000000070700070007070000072C
:100AA0000007070707000000070707070007070000
:100AB00000070000000007070707070000070700FE
:100AC00000000007000707000000070707070007EE
:100AD00007000007000000000000000707000007F3
:100AE00007000000000707070707000007070707C0
:100AF00000000707000000000000070000000707D3
:100B000000070700000000070007070700000707AD
:100B100007000000070700000000000007070000B2
:100B2000070700070700000007070000070700008D
:100B3000070700000700000700000000000007078B
:100B4000000007070007070000000707070707075F
:100B50000000000700070707000000000000000079
:100B60000700000007070007070000000707070746
:100B70000707000007070707070700070000000036
:100B80000000070700000707000707000000000734
:100B900007070707070707070707070707070007EC
:100BA0000000000007070000070700070000000022
:100BB00000070707070707070707070700000707DA
:100BC0000000000000000707000007070007000002
:100BD00000000007070707070707070707070000C8
:100BE00007000007000000000000000707000707DB
:100BF00000000007000707000007000007070700C4
:100C000000000700000700000007070707070000B3
:100C1000070700000007000007070700070000079C
:100C20000700070700000707000000070707070085
:100C30000000070000000007000007070700000091
:100C4000070707000000070007070000070707075E
:100C5000070000000700000000070000070707006A
:100C60000000070707000707070000000007070745
:100C7000070007000007000000000007000007074A
:100C80000700000007070707070700000000000033
:100C90000000070007000007000000000700000038
:100CA00007070000000707070707070700070700F7
:100CB0000007000000000000000700000000000026
:100CC00000000707000000000007070707070007EC
:100CD00007000007070700000000070000000000F1
:100CE00000000700000707000007000007070700D3
:100CF00000070000070707000007000707000000C3
:100D000000000007000000070700000707000707B2
:100D1000000007070000070707000707000700009B
:100D200000000000000700070000070700000700A0
:100D3000000700000700000000000000070000009E
:100D40000000000000000007070000070007000780
:100D50000700000700000000000000000007070077
:100D60000700000000000000000707000700070759
:100D7000070707000707000707000007000007072D
:100D80000707000000000000000000070707000040
:100D90000707000000000700000707000700000722
:100DA0000707070000000000000000000007070719
:100DB00007070707070000070700070700000007ED
:100DC00007070707070700000000000000000000F9
:100DD00007070707070707000000000007000000DB
:100DE00007070707070707000000000000000000D2
:100DF00000000007070707070700070700000000BB
:100E000000070707070707070000000000000000B1
:100E100000000000000000070707070700070700A1
:100E20000707070707070707070000000000000083
:100E300000000000000000000000000700000007A4
:100E40000707070707070707070707000000000055
:100E50000000000000000000000000000000000092
:100E6000070000000000070700000000000000006D
:100E70000000000000000000000000000000000072
:100E8000000700070707070000000000000000003F
:100E90000000000000000000000000000000000052
:100EA0000000000007000000000007000000000034
:100EB0000000000000000000000000000000000032
:100EC0000000000000000007070707000000000006
:100ED0000000000000000000000000000000000012
:100EE0000000000000000000000000000000000002
:100EF00000000000000000000000000000000000F2
:100F000000000000000000000000000000000000E1
:101670000000000000000000000000000000000466
:10168000040404000000000000000000000000004E
:10169000000000000000000000000000000404043E
:1016A0000404040404040404040000000000000016
:1016B0000000000000000000000000000000040422
:1016C00004040404040404040404040400000000EA
:1016D000000000000000000000000000000000000A
:1016E00004040404040404040404040404040000C2
:1016F00000000000000000000000000000000000EA
:1017000004040404040404000000000004040404AD
:1017100004040000000000000000000000000000C1
:1017200000000404040404040000000000000000A1
:101730000404040404000000000000000000000095
:101740000000000404040400000000000000000089
:101750000000000404040400000000000000000079
:101760000000000000040404040000000000000069
:101770000000000000040404040000000000000059
:101780000000000000040404040400000000000045
:101790000000000000000000040404040400000035
:1017A0000000000000000004040404040000000025
:1017B0000000000000000000000004040404040411
:1017C0000000000000000000040404040000000009
:1017D0000000000000000000000000000000040401
:1017E00004040000000000000000040404040000E1
:1017F00000000000000000000000000000000000E9
:1018000004040404000000000000000004040400BC
:1018100000000000000000000000000000000000C8
:1018200000000004040400000000000000000404A4
:10183000040004040404000000000000000004048C
:101840000404040400040404040000000000000474
:101850000404040404040404040400000000000060
:10186000040404040404040404040400000000004C
:10187000000404040404040404040404000000003C
:10188000000004040404040404040404040000002C
:10189000000000040404040404040404040400001C
:1018A000000000000404040404040404040404000C
:1018B00000000000000404040404040404040404FC
:1018C00004000000000000000404040404040404F4
:1018D00004040400000000040404040404040404D8
:1018E00004040400000000000000040404040404D4
:1018F00004040404040000000004040404040404B8
:1019000004040404040000000000000004040404B3
:101910000404040404040400000000040404040497
:10192000040404040404000000000000040404048F
:10193000040404040404040404000004040404046F
:10194000040404040404040400000000000004046F
:10195000040404040404040404040400000404044F
:10196000040404040404040404040000000000004F
:10197000040404040404040404040404040000042F
:10198000040404040404000000000000000000003F
:10199000000000000404040404040404040404001B
:1019A0000004040404040404040400000000000013
:1019B0000000000000000000040404040404040407
:1019C00004000004040404040404040404000000EB
:1019D00000000000000000000000000000040404FB
:1019E00004040400000404040404040404040400C3
:1019F00000000000000000000000000000000004E3
:101A0000040404040400000404040404040404049E
:101A100000000000000000000000000000000404BE
:101A2000040404040404040000040404040404047E
:101A3000000000000000000000000000000004049E
:101A4000040404040404040404000004040404045E
:101A5000040404040404040400000000000004045E
:101A6000040404040404040404040400000404043E
:101A7000040404040404040404040000000000003E
:101A80000404040404040404040404040400000022
:101A9000000404040404040404040404000000001A
:101AA0000000040404040404040404040404040002
:101AB00000000004040404040404040404040400F6
:101AC00000000000000004040404040404040404EE
:101AD00004000000000404040404040404040404D6
:101AE00004000000000000000404040404040404D2
:101AF00004040400000000040404040404040404B6
:101B000004040400000000000000040404040404B1
:101B10000404040404000000000404040404040495
:101B2000040404040000000000000404040404048D
:101B3000040404040400000000000004040404047D
:101B4000040404040404000000000000040404046D
:101B5000040404040404040000000000000404045D
:101B6000040404040404040400000000000004044D
:101B70000404040404040404040000000000000041
:101B80000404040004040404000000000000000039
:101B9000040404040404000404040400000000001D
:101BA0000000040404000000000000000000000029
:101BB0000000000000000000000404040000000019
:101BC0000000000004040404000000000000000005
:101BD00000000000000000000000040404040000F5
:101BE00000000000000004040404000000000000E5
:101BF00000000000000000000000000004040404D5
:101C000000000000000000000004040404040000C0
:101C100000000000000000000000000004040404B4
:101C20000404000000000000000000040404040498
:101C3000000000000000000000000000000004049C
:101C40000404040000000000000000000000000484
:101C50000404040000000000000000000000000474
:101C60000404040000000000000000000000000068
:101C70000004040404000000000000000000000054
:101C80000004040404000000000000000000000044
:101C9000000000000404040404040000000000002C
:101CA0000000040404040400000000000000000020
:101CB0000000000000000404040404040400000008
:101CC00000000404040404040000000000000000FC
:101CD00000000000000000000000040404040404EC
:101CE00004040404040404040000000000000000D4
:101CF00000000000000000000000000004040404D4
:101D000004040404040404040404000000000000AB
:101D100000000000000000000000000000000004BF
:101D20000404040404040404040404000000000087
:101D300000000000000000000000000000000000A3
:101D40000000000000040404040000000000000083
:101D50000000000000000000000000000000000083
:101D60000000000000000000000000000000000073
:101D70000000000000000000000000000000000063
:101D80000000000000000000000000000000000053
:102440000202020000040404040400000000000270
:10245000020202020202020202020202020202025C
:102460000202020000000404040404040404000046
:102470000000000000020202020202020202020246
:102480000202020202000000040404040404040422
:10249000000000000000000202020202020202022A
:1024A0000202020202020000000404040404040404
:1024B0000404040404000000000000000002020202
:1024C00002020202020202020000000404040400EC
:1024D00000000004040404040404000000000000E0
:1024E00000000202020202020202000404040404C8
:1024F00004000000000000000404040404040000C0
:1025000000000000000202020202020200040404B1
:102510000404040000000000000004040404040497
:102520000000000000000002020202020202000499
:102530000404040000000707070000000000040472
:10254000040404040400000000000002020202026D
:10255000000404040400000007070707000000004F
:102560000000040404040404040400000000000249
:10257000020200040404040000000707070700002B
:10258000000000000404040404040404000000002B
:102590000002020200040404040000000707070709
:1025A00007070700000000000404040404040400FA
:1025B00000000000000004040404000000000707FD
:1025C00007070707070700000000000000040404D5
:1025D00004040404000000000404040400000007D4
:1025E000070707070707070707070700000000009E
:1025F00000000404040404040404040404040000AB
:102600000007070707070707070707070700000076
:10261000000000000404040404040404040404048A
:10262000000000070707070707070707070707074F
:102630000707070000000004040404040404040461
:102640000404000000070707070707070707070735
:102650000707070707070000000000000404040440
:10266000040404040000000707070707070707071B
:10267000070707070707070707070000000004040C
:102680000404040404040000000707070707070701
:1026900007070707070707070707070700000000E6
:1026A00004040404040404040000000707070707E7
:1026B00007070707070707070707070700000000C6
:1026C00000000404040404040404000000070707D5
:1026D000070707070707070707070707070000009F
:1026E00000040404040404040404040400000007B7
:1026F0000707070707070707070707070000000086
:102700000000040404040404040404040404000099
:10271000000707070707070707070707070700005E
:10272000000000000404040404040404000404047D
:10273000040000000707070707070707070700004F
:102740000000000404040404040404000000000465
:10275000040404000000070707070707070000003C
:102760000000040404040404040404000000000045
:10277000000404040400000007070707000000002D
:102780000000040404040404040400000000000029
:10279000000000040404040000000707070700000D
:1027A0000000000004040404040404040000000009
:1027B0000000000000040404040000000000000009
:1027C00000000004040404040404040000000000E9
:1027D00000000202020200040404040404000000D9
:1027E00000040404040404040400000000000000C9
:1027F00000020202020202020004040404040400B3
:1028000000000004040404040404040000000000A8
:10281000000000020202020202020000000404049E
:102820000404040404040404040400000000000080
:102830000002020202020202020202020200000080
:10284000040404040404040404040000000000025E
:10285000020202020202020202020202020202005A
:102860000000000404040404000000000000020250
:102870000202020202020202020202020202020238
:102880000200000000040404040400000000000032
:102890000202020202020202020202020202020218
:1028A000020202020200000000000000000000001E
:1028B00002020202020202020202020202020202F8
:1028C00002020202020202020200000000000002F4
:1028D00002020202020202020202020202020202D8
:1028E00002020202020202020202020202020202C8
:1028F00002020202020202020202020202020202B8
:1029000002020202020202020202020202020202A7
:102910000202020202020202020202020202020297
:102920000202020202020202020202020202020287
:102930000202020202020202020202020202020277
:10294000020202020202020202020202000000006F
:102950000000000000030303000007070707070744
:10296000000003030300000000000000000000005E
:102970000000000003030300070707070707070716
:10298000070707070700000303000000000000001E
:102990000000000000030300000707070707070700
:1029A00007070707070707070700030300000000E2
:1029B00000000000000003030007070707070700E7
:1029C00000030303000007070707070707000303C7
:1029D00000000000000000030300070707070707C7
:1029E00007070000030303030000070707070707A3
:1029F00000030300000000000303000707070707A8
:102A0000070707070707070003030303030300077C
:102A10000707070003030000000303000707070779
:102A20000000070707070707070700000303030362
:102A30000300070707070003030000030007070759
:102A40000703030303030007070707070707070038
:102A50000303030303070707070003000300070737
:102A6000070700030303030303000707070707071C
:102A7000070700000303030007070700030003071D
:102A8000070707000303030303030303030300070C
:102A900007070707070707000003000707070003EA
:102AA00003070707070700030303030303030303E5
:102AB00003000707070707070707070003070707BC
:102AC00007030007070707070707070003030303B8
:102AD00003030303030300070707070707070700AC
:102AE000070707030007070707070707070700008F
:102AF0000303030303030303030000070707070798
:102B00000707070707030707070707070707070759
:102B10000707000003030303030300000707070779
:102B2000070707070707070007070703000007074E
:102B30000707070707070000030300070707070742
:102B40000707070700030007070707070703030036
:102B50000007070707070707070703000707070717
:102B60000707070700000303000707070707070316
:102B7000030303030303000707070707000707070B
:102B80000707000003030303030300070707070702
:102B900007030303030303030000070707070007F6
:102BA00007070700030303030303030300070707E3
:102BB00007070703030303000007070707070707C3
:102BC00000070707070707070000030303030007C1
:102BD0000707070707030303000707070707070798
:102BE0000707030007070707070707070000030396
:102BF0000007070707070700070707070707070773
:102C00000700030303030300070707070707070776
:102C10000700000707000007070707070707070760
:102C2000070000030303030303030000070707076C
:102C30000707070707070700000707070707070732
:102C4000000003030303030303030300070707074D
:102C50000707070707000707070303070707070713
:102C6000070003030303030303030303000707072A
:102C700007070707070000070707070303070707FA
:102C80000703030303030303030303000707070703
:102C900007070707000303030007070700000300F7
:102CA00007070700030303030303030300070707E2
:102CB00007070707000003030300070707000300D7
:102CC00003030007070707030303030007070707BA
:102CD00007070707000303030303000707070703AA
:102CE00003000003030707070700030000070707A7
:102CF000070707070000030303030300070707078D
:102D00000003000000000303000707070707070789
:102D10000707070700030303030303000707070769
:102D2000070303000000000000030307070707076D
:102D30000707070700000303030303030007070750
:102D40000707000303000000000000000303000762
:102D5000070707070707000000000707070707071F
:102D60000707070303000000000000000000000345
:102D700003000707070707070707070707070707EE
:102D80000707070000030300000000000000000028
:102D900000000303030300070707070707070707E8
:102DA000070700000303030000000000000000000C
:102DB00000000000000303030300000007070707EB
:102DC00007070000030303030300000000000000E6
:102DD00000000000000000000000030303030303E1
:102DE00003030303030303030000000000000000CB
:102DF00000000000000000000000000000000303CD
:102E000003030303030303030000000000000000AA
:102E100000000000000000000000000000000000B2
:102E200000000000000000000000000000000000A2
:102E30000000000000000000000000000000000092
:102E40000000000000000000000000000000000082
:1030900000000000000000000000006469006900FA
:1030A0006E005A005A005A0046002D0014000F000E
:1030B00010000C0007000800030004000064690011
:1030C00069006E005A005A005A0046002D00140094
:1030D0000F0010000C00070008000300040000644B
:1030E000690069006E005A005A005A0046002D001F
:1030F00014000F0010000C0007000800030004007B
:103100000064690069006E005A005A005A004600C7
:103110002D0014000F0010000C0007000800030031
:1031200004000064690069006E005A005A005A00E9
:1031300046002D0014000F0010000C0007000800CE
:10314000030004000064690069006E005A005A0020
:103150005A0046002D0014000F0010000C0007005C
:103160000800030004000000000000000000000050
:10317000000000000000000000000000000000004F
:1031800000000000000000000000000069006E0068
:103190005A005A005A0046002D0014000F0010007B
:1031A0000C00070008000300040000000000690094
:1031B0006E005A005A005A0046002D0014000F00FD
:1031C00010000C00070008000300040000000000CD
:1031D00069006E005A005A005A0046002D00140083
:1031E0000F0010000C00070008000300040000009E
:1031F000000069006E005A005A005A0046002D0077
:1032000014000F0010000C00070008000300040069
:103210000000000069006E005A005A005A00460083
:103220002D0014000F0010000C0007000800030020
:10323000040000000000000000000000000000008A
:10324000000000000000000000000000000000007E
:10325000000000000064640069006E005A005A001B
:103260005A0046002D0014000F0010000C0007004B
:103270000800030004000064640069006E005A0046
:103280005A005A0046002D0014000F0010000C00D8
:1032900007000700030004000064640069006E007A
:1032A0005A005A005A0046002D0014000F0010006A
:1032B0000C000700070003000400006464006900BC
:1032C0006E005A005A005A0046002D0014000F00EC
:1032D00010000C00070007000300040000646400F5
:1032E00069006E005A005A005A0046002D00140072
:1032F0000F0010000C00070007000300040000642A
:10330000640069006E005A005A005A0046002D0001
:1033100014000F0010000B0007000700030004005A
:103320000064640069006E005A005A005A004600AA
:103330002D0014000F0010000B0007000700030011
:103340000400000000000000000000000000000079
:10335000000000000000000000000000000000006D
:10336000000000000000000000000000000000005D
:10337000000046002D0014000F0010000B00070095
:10338000070003000400000000000000000000002F
:103390000000000046002D0014000F0010000B007C
:1033A0000700070003000400000000000000000008
:1033B00000000000000046002D0014000F00100067
:1033C0000B000700070003000400000000000000DD
:1033D000000000000000000046002D0014000F0057
:1033E00010000B00070007000300040000000000AD
:1033F0000000000000000000000046002D00140046
:103400000F0010000B00070007000300040000007D
:1034100000000000000000000000000000000000AC
:10342000000000000000000000000000000000009C
:1034300000000000000000005A005A005A00460038
:103440002D0014000F0010000B0007000700030000
:10345000040000000000000000005A005A005A005A
:1034600046002D0014000F0010000B00070007009D
:103470000300040000000000000000005A005A0091
:103480005A0046002D0014000F0010000B0007002A
:1034900007000300040000000000000000005A00C4
:1034A0005A005A0046002D0014000F0010000B00B7
:1034B00007000700030004000000000000000000F7
:1034C0005A005A005A0046002D0014000F00100048
:1034D0000B000700070003000400000000000000CC
:1034E00000005A005A005A0046002D0014000F0038
:1034F00010000B000700070003000400000000009C
:1035000000000000000000000000000000000000BB
:1035100000000000000000000000000000000000AB
:10352000000069006E005A005A005A0046002D0043
:1035300014000F0010000B00070007000300040038
:103540000000000069006E005A005A005A00460050
:103550002D0014000F0010000B00070007000300EF
:1035600004000000000069006E005A005A005A0072
:1035700046002D0014000F0010000B00070007008C
:10358000030004000000000069006E005A005A00A9
:103590005A0046002D0014000F0010000B00070019
:1035A0000700030004000000000069006E005A00DC
:1035B0005A005A0046002D0014000F0010000B00A6
:1035C00007000700030004000000000069006E000F
:1035D0005A005A005A0046002D0014000F00100037
:1035E0000B000700070003000400000000000000BB
:1035F00000000000000000000000000000000000CB
:1036000000000000000000000000000000000000BA
:1036100000000000000000005A0046002D001400C9
:103620000F0010000B00070007000300040000005B
:10363000000000000000000000005A0046002D00BD
:1036400014000F0010000B00070007000300040027
:103650000000000000000000000000005A004600CA
:103660002D0014000F0010000B00070007000300DE
:1036700004000000000000000000000000005A00EC
:1036800046002D0014000F0010000B00070007007B
:103690000300040000000000000000000000000023
:1036A0005A0046002D0014000F0010000B00070008
:1036B00007000300040000000000000000000000FC
:1036C00000005A0046002D0014000F0010000B00EF
:1036D00007000700030004000000000000000000D5
:1036E00000000000000000000000000000000000DA
:1036F00000000000000000000000000000000000CA
:10370000000000000000000000002D0014000F0069
:1037100010000B0007000700030004000000000079
:103720000000000000000000000000002D00140058
:103730000F0010000B00070007000300040000004A
:1037400000000000000000000000000000002D004C
:1037500014000F0010000B00070007000300040016
:103760000000000000000000000000000000000059
:103770002D0014000F0010000B00070007000300CD
:103780000400000000000000000000000000000035
:1037900000002D0014000F0010000B0007000700B0
:1037A0000300040000000000000000000000000012
:1037B000000000002D0014000F0010000B00070097
:1037C00007000300040000000000000000000000EB
:1037D00000000000000000000000000000000000E9
:1037E00000000000000000000000000000000000D9
:1037F0000000000000000000000014000F00100096
:103800000B00070007000300040000000000000098
:1038100000000000000000000000000014000F0085
:1038200010000B000C000700030004000000000063
:103830000000000000000000000000000000140074
:103840000F0010000B000700070003000400000039
:103850000000000000000000000000000000000068
:1038600014000F0010000B000C0007000300040000
:103870000000000000000000000000000000000048
:10388000000014000F0010000B00070007000300E9
:103890000400000000000000000000000000000024
:1038A0000000000000000000000000000000000018
:1038B0000000000000000000000000005A005A0054
:1038C0005A0046002D0014000F0010000B000C00E1
:1038D00007000300040000000000000000005A0080
:1038E0005A005A0046002D0014000F0010000B0073
:1038F0000C000700030004000000000000000000AE
:103900005A005A005A0046002D0014000F00100003
:103910000B000C0007000300040000000000000082
:1039200000005A005A005A0046002D0014000F00F3
:1039300010000B000C000700030004000000000052
:10394000000000005A005A005A0046002D001400E2
:103950000F0010000B000C00070003000400000023
:103960000000000000005A005A005A0046002D00D6
:1039700014000F0010000B000C00070003000400EF
:103980000000000000000000000000000000000037
:103990000000000000000000000000000000000027
:1039A00000000064640069006E005A005A005A006A
:1039B00046002D0014000F0010000B000C00070043
:1039C000030004000064640069006E005A005A009D
:1039D0005A0046002D0014000F0010000B000C00D0
:1039E0000700030004000064640069006E005A00D0
:1039F0005A005A0046002D0014000F0010000B0062
:103A00000C000700030004000064640069006E00FD
:103A10005A005A005A0046002D0014000F001000F2
:103A20000B000C0007000300040000646400690040
:103A30006E005A005A005A0046002D0014000F0074
:103A400010000B000C000700030004000064640079
:103A500069006E005A005A005A0046002D001400FA
:103A60000F0010000B000C00070003000400000012
:103A70000000000000000000000000000000000046
:103A80000000000000000000000000000000000036
:103A90000064640069006E005A005A005A00460033
:103AA0002D0014000F0010000B000C000700030095
:103AB00004000064640069006E005A005A005A0055
:103AC00046002D0014000F0010000B000C00070032
:103AD000030004000064640069006E005A005A008C
:103AE0005A0046002D0014000F0010000B000C00BF
:103AF0000700030004000064640069006E005A00BF
:103B00005A005A0046002D0014000F0010000B0050
:103B10000C000700030004000064640069006E00EC
:103B20005A005A005A0046002D0014000F001000E1
:103B30000B000C000700030004000064640069002F
:103B40006E005A005A005A0046002D0014000F0063
:103B500010000B000C000700030004000303030324
:103B60000303030303030303030303030303030325
:103B70000303030303030303031C354E533A0303F8
:103B80000303030303030303030303030303030305
:103B90000303030303030303030303031C4E535AEA
:103BA00003030303030303030303030303030303E5
:103BB00003030303030303030303030303031C4E71
:103BC000535A03030303030303030303030303031E
:103BD00003030303030303030303030303030303B5
:103BE0001C4E535A0303030303030303030303039A
:103BF0000303030303030303030303030303030395
:103C00000303354E535A0303030303030303030360
:103C10000303030303030303030303030303030374
:103C2000031C3535354E535A0303030303030303C3
:103C30000303030303030303030303030303030354
:103C40001C1C03030303354E535A030303030303EE
:103C50000303030303030303030303030303030334
:103C60001C35354E4E35354E4E533F5F030303032F
:103C70000303030303030303030303030303030314
:103C80000303030303354E4E35533F3F405F0303A9
:103C900003030303030303030303030303030303F4
:103CA0000303031C03031C4E4E4E4E3A3F3F405F3E
:103CB00003030303030303030303030303030303D4
:103CC0000303030303030303354E351C354E533FF3
:103CD0003F5F03030303030303030303030303031C
:103CE0000303030303030303030303350303033540
:103CF0004E53535A03030303030303030303030352
:103D00000303030303030303030303030303030383
:103D100003354E53535A03030303030303030303FF
:103D20000303030303031C354E4E4E4E4E3535350B
:103D30001C1C354E4E53595F030303030303030357
:103D40000303030303031C353535353535354E4E36
:103D50004E4E4E4E4E535358595F03030303030315
:103D60000303030303030303030303030303030323
:103D70001C4E4E4E535358585853535A0303030383
:103D80000303030303030303030303030303030303
:103D900003031C354E4E4E4E53534E4E535A03039F
:103DA00003030303030303030303030303030303E3
:103DB0000303030335354E4E4E35354E4E4E535AA2
:103DC00003030303030303030303030303030303C3
:103DD000030303030303030303030335354E4E4E6E
:103DE0004E5A030303030303030303030303030301
:103DF000030303030303030303030303031C1C352F
:103E00004E4E4E5A0303030303030303030303034A
:103E100003030303030303030303353535351C1C78
:103E20001C4E4E4E535A03030303030303030303C1
:103E300003030303030303030303031C35354E4E3F
:103E40004E4E4E4E4E53535A0303030303030303D4
:103E50000303030303031C1C0303030303031C35B5
:103E60004E4E4E5353535858585F030303030303F6
:103E70000303030303030303033535353535354E9B
:103E80004E4E4E4E4E5353535358585F0303030345
:103E900003030303030303030303031C4E4E4E4EAD
:103EA0004E4E4E4E4E4E535353535858585F030385
:103EB0000303030303030303030303030303031CB9
:103EC000354E4E4E4E4E4E5353535358585D5D5FD4
:103ED00003030303030303030303031C0303030399
:103EE0000303353535354E4E4E535358585D5D5EA0
:103EF0005F600303030303030303030303030303D9
:103F0000030303351C0303031C4E4E4E53585D5DE3
:103F10005E5E5F6003030303030303030303030302
:103F20000303030303031C3503031C4E4E4E4E4E86
:103F30005358585D5E600303030303030303030345
:103F4000030303030303030303351C1C354E4E4ECA
:103F50004E4E4E5353585E5F0303030303030303A4
:103F60000303030303030303030303030303031C08
:103F70004E4E4E4E4E5353585D5F030303030303EF
:103F8000030303030303030303030303031C1C03CF
:103F9000031C4E4E4E4E535353585D5F03030303B1
:103FA00003030303030303030303030303030303E1
:103FB000031C354E4E4E4E4E4E535858585F030319
:103FC0000303030303030303030303030303031CA8
:103FD000030303031C4E4E4E4E4E4E535353535A3F
:103FE00003030303030303030303030303030303A1
:103FF0000303031C35354E4E4E4E535353585858F9
:10400000585F0303030303030303030303030303CF
:104010000303030303031C354E4E4E4E53535858AF
:10402000585D5D5F030303030303030303030303FB
:1040300003031C1C1C1C35354E4E4E4E4E4E4E532B
:104040005358585D5D5F0303030303030303030336
:10405000030303031C353535351C1C0303031C35D2
:104060004E4E4E53585D5E60030303030303030388
:104070000303030303030303030303030303030310
:104080000303354E4E53585D5E6003030303030381
:1040900003030303030303030303030303030303F0
:1040A000030303031C4E4E53585D5D5F030303037C
:1040B00003030303030303030303030303030303D0
:1040C000033503030303354E4E535858585F03031B
:1040D00003030303030303030303030303030303B0
:1040E00003030303353535354E4E4E4E5353585A60
:1040F0000303030303030303030303030303030390
:10410000030303030303033535353535354E4E536D
:104110004E5A0303030303030303030303030303CD
:104120000303030303030303030303030335354EB0
:104130004E4E4E5A03030303030303030303030317
:10414000030303030303030303030303031C030326
:10415000354E4E53585F0303030303030303030366
:1041600003030303030303030303030303030335ED
:10417000351C4E4E53585E600303030303030303D1
:1041800003030303030303030303030303030303FF
:10419000031C4E4E5353585E5E6003030303030338
:1041A00003030303030303030303030303030303DF
:1041B00003030303031C354E585D595F03030303D8
:1041C00003030303030303030303030303030303BF
:1041D00003030303030303031C3535534E5A030340
:1041E000030303030303030303030303030303039F
:1041F00003030303030303030303030303354E5ABB
:10420000030303030303030303030303030303037E
:10421000030303030303030303030303030303353C
:104220004E5A0303030303030303030303030303BC
:10423000030303030303030303030303030303034E
:104240000335535A03030303030303030303030365
:10425000030303030303030303030303030303032E
:1042600003030335535A0303030303030303030345
:10427000030303030303030303030303030303030E
:10428000030303030335535A030303030303030325
:1042900003030303030303030303030303030303EE
:1042A000030303030303034E535A030303030303EC
:1042B00003030303030303030303030303030303CE
:1042C0000303030303031C1C354E535A0303030368
:1042D0000303030303030303031C03030303030395
:1042E00003030303031C351C1C1C1C4E585F0303F3
:1042F000030303030303030303030303030303038E
:10430000030303030303031C354E4E4E53585E60F4
:10431000030303030303030303030303030303036D
:10432000030303030303030303031C4E4E4E585DB4
:104330005E60030303030303030303030303030395
:1043400003030303030303030303030335351C1CA7
:104350004E53585F030303030303030303030303E1
:10436000030303030303030303030303030303031D
:104370000303354E531C0303030303030303030327
:1043800003030303030303030303031C3535351C35
:104390001C0303033553581C0303030303030303E4
:1043A00003030303030303030303031C35353535FC
:1043B000354E4E4E53535358591C03030303030306
:1043C00003030303030303030303030303030303BD
:1043D000030303354E5353585853531C030303032D
:1043E000030303030303030303030303030303039D
:1043F000030303031C354E4E4E534E4E531C030312
:10440000030303030303030303030303030303037C
:10441000030303030303031C1C1C1C354E4E4E1CDC
:10442000030303030303030303030303030303035C
:104430000303030303030303030303031C03354EB6
:104440004E1C0303030303030303030303030303D8
:10445000030303030303030303031C35351C1C1C64
:104460004E4E531C0303030303030303030303031D
:1044700003030303030303030303030303354E4E44
:104480004E535353581C0303030303030303030353
:10449000030303030303030303351C1C1C35354EC0
:1044A0004E4E53535358581C030303030303030393
:1044B00003030303030303030303031C4E4E4E4E87
:1044C0004E4E4E4E53535358581C030303030303DD
:1044D00003030303030303030303030303031C3561
:1044E0004E4E4E4E53535353585D5E210303030308
:1044F000030303030303030303030303030303038C
:10450000031C1C031C4E4E53585D5D5E5F2103036C
:10451000030303030303030303030303030303036B
:10452000030303031C03034E4E4E53585D5D5E218F
:10453000030303030303030303030303030303034B
:104540000303030303031C1C1C354E4E4E4E5358ED
:104550005D210303030303030303030303030303B3
:1045600003030303030303030303031C4E4E4E4ED6
:1045700053585D21030303030303030303030303EE
:1045800003030303030303030303031C35354E4EE8
:104590004E4E53585D1C030303030303030303033D
:1045A00003030303030303030303030303030303DB
:1045B0001C1C354E5358581C030303030303030309
:1045C00003030303030303030303030303030303BB
:1045D0000303030303354E4E531C0303030303037A
:1045E000030303030303030303030303030303039B
:1045F000030303030303031C354E531C030303038C
:10460000030303030303030303030303030303037A
:10461000030303030303030303031C4E531C03039D
:10462000030303030303030303030303030303035A
:104630000303030303030303030303031C4E531C7D
:10464000030303030303030303030303030303033A
:104650000303030303030303030303030303354EAD
:10466000531C0303030303030303030303030303B1
:104670000303030303030303030303030303031CF1
:104680004E4E531C030303030303030303030303FB
:104690000303030303030303030303030303031CD1
:1046A000351C354E531C03030303030303030303A9
:1046B000030303030303030303030303031C351C66
:1046C0001C03031C3553581C030303030303030398
:1046D00003030303030303030303030303031C1C78
:1046E000354E4E4E4E5353585E21030303030303CE
:1046F000030303030303030303030303030303038A
:10470000030303354E4E53585D5E5E2103030303DE
:104710000303030303030303030303030303030369
:10472000031C03031C4E4E4E4E53585D5E21030383
:104730000303030303030303030303030303030349
:10474000030303030303354E1C03354E4E58581C18
:104750000303030303030303030303030303030329
:104760000303030303030303031C030303354E5333
:10477000531C0303030303030303030303030303A0
:1047800003030303031C1C1C1C0303030303033563
:104790004E53581C030303030303030303030303E0
:1047A0000303030335354E4E4E4E4E4E4E353535D2
:1047B000354E53535E210303030303030303030333
:1047C000030303031C1C1C0303031C1C354E4E5324
:1047D000535358585858581C030303030303030347
:1047E0000303030303030303030303030303033567
:1047F0004E5353535858534E531C030303030303A0
:104800000303030303030303030303030303031C5F
:104810001C4E4E4E4E53534E4E4E531C0303030339
:104820000303030303030303030303030303030358
:1048300003031C3535353535354E4E4E531C0303B9
:104840000303030303030303030303030303030338
:10485000030303030303030303031C4E4E4E4E1CCA
:104860000303030303030303030303030303030318
:1048700003030303030303030303030303354E4E40
:10488000531C03030303030303030303030303038F
:10489000030303030303030335354E353535354E26
:1048A0004E53531C030303030303030303030303D4
:1048B000030303030303030303031C354E4E4E4E51
:1048C0004E535353531C0303030303030303030314
:1048D000030303031C1C03030303031C354E4E4E4A
:1048E0004E5353535858581C030303030303030345
:1048F00003030303030303354E4E4E4E4E4E4E4EFE
:104900004E4E535353535858581C03030303030389
:1049100003030303030303030303354E4E4E4E4EBE
:104920004E4E4E4E5353535358585D2103030303C9
:10493000030303030303030303030303031C354EB1
:104940004E4E4E4E5353535353585D5D5E210303F9
:10495000030303030303030303031C030303031CF5
:1049600035351C354E4E4E535858585D5E5F5F21AD
:104970000303030303030303030303030303030307
:10498000031C030303031C4E4E4E53585D5D5D5ED6
:104990005F2103030303030303030303030303036D
:1049A000030303031C3503031C4E4E4E4E4E585852
:1049B0005D5E5E2103030303030303030303030399
:1049C000030303030303031C1C1C35354E4E4E4EDC
:1049D0004E5353585E2103030303030303030303EE
:1049E00003030303030303030303030303034E4E01
:1049F0004E4E4E5353585D21030303030303030339
:104A00000303030303030303030303031C1C1C35F9
:104A10004E4E4E53535353585D2103030303030378
:104A20000303030303030303030303030303031C3D
:104A30001C35354E4E4E4E535858581C0303030335
:104A40000303030303030303030303030303030336
:104A50000303031C35354E4E4E4E5353531C030374
:104A60000303030303030303030303030303030316
:104A7000030303030303030303354E4E4E4E531C3F
:104A800003030303030303030303030303030303F6
:104A90000303030303030303030303034E4E4E4EBA
:104AA000531C0303030303030303030303031C1C3B
:104AB0001C030303354E4E351C0303030303354E1D
:104AC0004E4E531C030303030303030303030303B7
:104AD000031C4E351C03034E4E4E4E351C1C031C4E
:104AE0004E4E4E4E531C0303030303030303030301
:104AF000030303031C4E4E35354E4E4E4E4E4E4E66
:104B00004E4E4E4E4E53531C030303030303030345
:104B10000303030303031C354E4E4E4E4E4E4E4EC2
:104B20004E4E4E4E53535353531C03030303030380
:104B3000031C1C1C030303031C354E4E4E4E4E4EED
:104B40004E4E4E4E535353535858581C03030303B1
:104B500003033553350303030303031C354E4E4E45
:104B600053534E4E4E4E53535353585D581C0303EC
:104B7000030303031C1C03030303030303031C3588
:104B80004E4E4E4E5353535353535353585D5E2121
:104B900003030303030303030303030303030303E5
:104BA0001C35354E4E4E4E53535353535353585D4D
:104BB0005E2103030303030303030303030303034C
:104BC00003030303031C354E4E4E4E4E53535358AE
:104BD000585D5E21030303030303030303031C3532
:104BE000351C1C1C0303030303354E4E4E4E4E531F
:104BF00053585D5D5E210303030303030303033581
:104C0000354E4E4E4E4E4E4E4E4E4E4E4E4E4E4EDD
:104C10005353585D5D5E5F210303030303030303E6
:104C20001C354E4E4E4E4E4E4E4E4E4E4E4E4E4EEF
:104C300053585858585D5E5F5F2103030303030315
:104C400003354E4E4E4E351C354E4E4E4E4E4E4E4C
:104C5000535353585D5D5E5E5E5F5F210303030344
:104C60001C1C354E4E4E4E3503031C4E4E4E4E4EC2
:104C70004E4E535353585D5D5E5E5E5F5F2103038E
:104C800003030303031C4E4E4E4E3535354E4E4E38
:104C90004E4E4E4E535353585D5D5E5E5E5F5F21D8
:104CA00003030303030303031C354E4E4E4E4E4EC7
:104CB0004E4E4E4E4E4E4E4E53535353585D5E5FC6
:104CC0005F2103030303030303030335354E4E4EF5
:104CD0004E4E4E354E35354E4E4E4E4E4E5353582B
:104CE0005D5E5E2103030303030303030303031C4D
:104CF0001C1C03030303030303354E4E4E4E4E5359
:104D000053585D5D5E2103030303030303030303A1
:104D1000030303030303030303354E4E4E4E4E536A
:104D200053535358585D5E210303030303030303E6
:104D300003030303030303031C354E4E4E4E4E5331
:104D4000535353535353585D5E210303030303032B
:104D5000353503030303030303031C354E4E4E4E48
:104D60005353535353535353585D5E21030303036B
:104D7000030335533A1C0303030303354E4E4E4ED3
:104D8000534E4E4E4E4E53535353585D581C0303CF
:104D900003030303031C1C03030303031C354E4ED0
:104DA0004E4E4E4E4E4E4E4E535353535858581C23
:104DB00003030303030303030303030303031C3578
:104DC0004E4E4E4E4E4E4E4E4E4E4E4E4E535353F4
:104DD000531C03030303030303030303030303033A
:104DE000354E351C354E4E4E4E4E4E4E4E4E4E4E60
:104DF0004E53531C0303030303030303030303037F
:104E00001C354E3503031C4E4E4E4E351C03031C01
:104E10004E4E4E4E531C03030303030303030303CD
:104E20000303031C030303031C35351C03030303A3
:104E30000303354E4E4E531C0303030303030303C6
:104E40000303030303030303030303030303030332
:104E5000030303034E4E4E4E531C0303030303038D
:104E60000303030303030303030303030303030312
:104E7000030303031C354E4E4E4E531C0303030322
:104E800003030303030303030303030303030303F2
:104E90000303031C354E4E4E4E4E5353581C030312
:104EA00003030303030303030303030303030303D2
:104EB0000303031C3535354E4E4E4E535858581C7F
:104EC00003030303030303030303030303030303B2
:104ED000030303031C03031C4E4E4E4E53535358FF
:104EE0005D2103030303030303030303030303031A
:104EF0000303030303030303031C4E4E4E4E4E53A2
:104F000053585D2103030303030303030303030354
:104F100003030303030303351C1C354E4E4E4E4E54
:104F20004E5353585E210303030303030303030398
:104F300003030303030303031C3503031C4E4E4EFC
:104F40004E53585D5D5D5E210303030303030303BA
:104F50000303030303030303031C1C0303031C4E8B
:104F60004E4E53585D5D5D5E5F21030303030303F3
:104F70000303030303031C03030303033535353520
:104F80004E4E4E535858585D5E5E5F210303030337
:104F9000030303030303030303030303031C354E4B
:104FA0004E4E4E4E4E5353535358585D5E2103039D
:104FB000030303030303030303030303031C354E2B
:104FC0004E4E4E4E4E4E4E4E535353535858581C01
:104FD000030303030303030303030303030303356F
:104FE000353535354E4E4E4E4E4E4E535353585822
:104FF000581C030303030303030303030303030313
:10500000031C0303030303031C354E4E4E5353533B
:105010005858581C03030303030303030303030348
:10502000030303030303030303031C354E4E4E4ED9
:105030004E535353531C030303030303030303039C
:105040000303030303030303030303031C35353581
:105050001C1C1C4E4E4E531C03030303030303038B
:105060000303030303030303030303030303030310
:105070000303031C1C354E4E531C0303030303039D
:1050800003030303030303030303030303030303F0
:1050900003030303031C354E4E4E4E1C0303030350
:1050A00003030303030303030303030303030303D0
:1050B00003031C354E4E3535354E4E4E531C0303FF
:1050C00003030303030303030303030303030303B0
:1050D000030303031C4E4E4E535353534E4E531C67
:1050E0000303030303030303030303030303030390
:1050F00003030303030303354E53535358585853C4
:10510000531C030303030303030303030303030306
:105110001C351C1C1C1C35354E4E4E5353535353DB
:105120005858591C03030303030303030303030336
:10513000030303031C354E4E4E4E4E4E35351C1C9C
:10514000354E4E535E21030303030303030303039E
:10515000030303030303030303031C1C03030303ED
:10516000030303354E53581C0303030303030303D4
:1051700003030303030303030303030303030303FF
:10518000031C030303354E53531C030303030303A0
:1051900003030303030303030303030303030303DF
:1051A0000303354E351C354E53585E1C0303030371
:1051B00003030303030303030303030303030303BF
:1051C000031C03031C4E4E4E4E53585D5E210303D9
:1051D000030303030303030303030303030303039F
:1051E00003030303030303354E4E53585D5E5E21F4
:1051F000030303030303030303030303030303037F
:105200000303030303031C354E4E4E35354E5358EE
:105210005E210303030303030303030303030303E5
:105220000303030303030303031C1C1C0303030303
:10523000354E581C03030303030303030303030353
:105240000303030303030303030303030303031C15
:105250003535354E531C03030303030303030303D4
:10526000030303030303030303030303030303030E
:1052700003030303354E531C030303030303030318
:1052800003030303030303030303030303030303EE
:105290000303030303031C4E531C03030303030311
:1052A00003030303030303030303030303030303CE
:1052B00003030303030303031C4E531C03030303F1
:1052C00003030303030303030303030303030303AE
:1052D000030303030303030303031C4E531C0303D1
:1052E000030303030303030303030303030303038E
:1052F00003030303030303030303031C354E531C7F
:10530000030303030303030303030303030303036D
:1053100003030303030303030303030303354E4E95
:10532000531C0303030303030303030303030303E4
:1053300003030303030303030303031C3535354E43
:105340005358581C0303030303030303030303031A
:1053500003030303030303030303031C1C354E4E23
:105360004E4E53585803030303030303030303037D
:105370000303030303030303030303030303031CE4
:105380004E4E4E4E535858030303030303030303C7
:1053900003030303030303030303030303031C1CAB
:1053A0001C4E4E4E4E53535858030303030303033E
:1053B0000303030303030303030303030303031CA4
:1053C0001C03034E4E4E53585D5D5E0803030303FA
:1053D000030303030303030303030303030303039D
:1053E0000335351C354E4E5358585D5E5F2103031F
:1053F000030303030303030303030303030303037D
:1054000003031C354E4E4E4E53535353585D5D218E
:10541000030303030303030303030303030303035C
:10542000030303354E4E4E4E4E4E4E4E535353587D
:10543000581C0303030303030303030303030303CE
:1054400003030303031C1C1C1C1C354E4E4E5353FC
:105450005358581C03030303030303030303030309
:105460000303030303030303030303031C354E4E2B
:105470004E4E5353531C030303030303030303035D
:105480000303030303030303030303030303031CD3
:10549000351C35354E4E531C03030303030303032E
:1054A00003030303030303030303030303030303CC
:1054B000030303031C1C4E4E4E1C03030303030390
:1054C00003030303030303030303030303030303AC
:1054D0000303031C351C35354E4E531C03030303D5
:1054E000030303030303030303030303030303038C
:1054F000030303031C354E4E5353534E531C0303F7
:10550000030303030303030303030303030303036B
:1055100003030303030303354E5353585858531CD6
:10552000030303030303030303030303030303034B
:1055300003030335353535354E4E4E4E4E4E5353DF
:10554000591C0303030303030303030303030303BC
:10555000030303030303031C1C1C1C1C030303039E
:105560003553581C0303030303030303030303031B
:105570000303030303030303030303030303031CE2
:105580000303354E531C0303030303030303030305
:1055900003030303030303030303030303030303DB
:1055A000354E1C354E53581C0303030303030303FA
:1055B00003030303030303030303030303030303BB
:1055C00003031C4E4E53585D5E2103030303030384
:1055D000030303030303030303030303030303039B
:1055E0000303031C354E4E3553585E21030303035A
:1055F0000303030303030303031C03030303030362
:1056000003030303031C1C1C031C1C4E531C030339
:10561000030303030303030303030303030303035A
:10562000030303030303030303031C1C1C4E531C4B
:10563000030303030303030303030303030303033A
:105640000303030303030303030303030303034EDF
:10565000531C0303030303030303030303030303B1
:10566000030303030303030303030303030303030A
:105670000335531C0303030303030303030303035F
:1056800003030303030303030303030303030303EA
:1056900003030335531C030303030303030303033F
:1056A00003030303030303030303030303030303CA
:1056B000030303030335531C03030303030303031F
:1056C00003030303030303030303030303030303AA
:1056D00003030303030303354E1C03030303030304
:1056E000030303030303030303030303030303038A
:1056F000030303030303030303354E1C03030303E4
:105700000303030303030303030303030303030369
:1057100003030303030303031C3553534E1C03030A
:105720000303030303030303030303030303030349
:1057300003030303030303031C354E4E585D591C3A
:105740000303030303030303030303030303030329
:105750000303030303030303031C4E4E53585D5E10
:105760005F2103030303030303030303030303038F
:105770000303030303030303030303351C1C354E18
:1057800053585E21030303030303030303030303CB
:1057900003030303030303030303030303030303D9
:1057A000354E4E53581C0303030303030303030343
:1057B00003030303030303030303030303030303B9
:1057C000031C354E4E4E4E1C030303030303030319
:1057D00003030303030303030303030303031C354E
:1057E0004E4E3535354E5353531C03030303030309
:1057F0000303030303030303030303030303031C60
:10580000353535354E4E4E4E5358581C0303030361
:105810000303030303030303030303030303030358
:10582000033503030303354E4E5358585D1C0303E1
:105830000303030303030303030303030303030338
:1058400003030303030303031C4E4E53585D5E2101
:105850000303030303030303030303030303030318
:1058600003030303030303030303354E4E53585D41
:105870005E21030303030303030303030303031C66
:105880003535353535351C0303031C4E4E4E4E530E
:10589000585D5E21030303030303030303030303B0
:1058A0000303030303031C354E4E4E4E4E4E53531B
:1058B0005358585D5D2103030303030303030303EC
:1058C000030303030303030303031C354E4E4E4E31
:1058D0005353585858585D2103030303030303032C
:1058E0000303030303030303030303031C354E4EA7
:1058F0004E4E4E5353535353581C03030303030399
:1059000003030303030303030303031C030303034E
:105910001C4E4E4E4E4E4E535353531C0303030323
:105920000303030303030303030303030303030347
:105930001C1C354E4E4E4E4E4E535858581C0303A9
:105940000303030303030303030303030303030327
:1059500003030303031C4E4E4E4E4E5353585D211A
:105960000303030303030303030303030303030307
:10597000030303030303031C4E4E4E4E4E53535872
:105980005D2103030303030303030303030303036F
:105990000303030303351C1C354E4E4E4E4E4E532F
:1059A00053585E21030303030303030303030303A9
:1059B0000303030303031C1C03031C4E4E4E4E4EF5
:1059C00058585D5D5F2103030303030303030303CF
:1059D00003030303030303351C030303354E4E4E39
:1059E00053585D5D5E5E5F210303030303030303FE
:1059F0000303031C030303030303354E354E4E4ECE
:105A00004E53535858585D5E5F210303030303034D
:105A1000030303030303030303031C354E4E4E4EDF
:105A20004E4E4E5353535353585D5D2103030303AE
:105A300003030303030303030303031C4E4E4E4EF1
:105A40004E4E4E4E4E4E535353535858581C03030C
:105A50000303030303030303030303030335351C99
:105A60001C1C35354E4E4E4E4E5353535858581CF1
:105A700003030303030303030303030303030303F6
:105A80000303030303031C354E4E4E4E535353582A
:105A9000581C030303030303030303030303030368
:105AA000030303030303031C354E4E4E4E4E4E4E6E
:105AB0004E53531C030303030303030303030303B2
:105AC000030303030303030303031C1C1C1C1C1C10
:105AD0001C4E4E4E531C0303030303030303030333
:105AE0000303030303030303030303030303030386
:105AF000031C1C4E4E4E4E1C0303030303030303FF
:105B00000303030303030303030303030303030365
:105B10001C1C1C35354E4E4E4E1C03030303030361
:105B20000303030303030303030303030303030345
:105B3000354E4E4E4E4E354E4E4E531C0303030310
:105B40000303030303030303030303030303030325
:105B5000030303354E4E4E4E53534E4E531C030318
:105B60000303030303030303030303031C030303EC
:105B7000030303031C4E4E4E535358585853531CA3
:105B800003030303030303030303030303030335B3
:105B900035353535354E4E4E4E4E4E4E4E4E535893
:105BA0005E2103030303030303030303030303034C
:105BB00003030335354E4E4E35351C1C1C031C4E5D
:105BC0004E53582103030303030303030303030397
:105BD0000303030303030303030303030303030395
:105BE00003354E4E531C0303030303030303030354
:105BF00003030303030303030303030303031C352A
:105C0000030303354E53531C03030303030303032E
:105C10000303030303030303030303030303030354
:105C2000354E3535354E533F3F1C03030303030305
:105C30000303030303030303030303030303030334
:105C4000030303354E4E353A3F3F5E210303030302
:105C50000303030303030303030303030303030314
:105C6000030303031C4E4E4E3553583F5E2103037E
:105C700003030303030303030303030303030303F4
:105C8000030303031C354E4E353535354E5358212D
:105C900003030303030303030303030303030303D4
:105CA0000303030303030303030303030303354E47
:105CB000531C03030303030303030303030303034B
:105CC000030303030303030303030303031C1C3540
:105CD000354E531C030303030303030303030303AE
:105CE0000303030303030303030303030303030384
:105CF0000303354E531C030303030303030303038E
:105D00000303030303030303030303030303030363
:105D1000030303031C4E531C030303030303030386
:105D20000303030303030303030303030303030343
:105D30000303030303031C4E531C03030303030366
:105D40000303030303030303030303030303030323
:105D500003030303030303031C4E531C0303030346
:105D60000303030303030303030303030303030303
:105D70000303030303030303031C4E4E531C1124AC
:105D80001FBECFEFDFE3DEBFCDBF00E00CBF10E2F0
:105D9000A0E0B0E2E0E8FCE800E00BBF02C0079042
:105DA0000D92A230B107D9F710E2A2E0B0E201C033
:105DB0001D92AE3DB107E1F70E948F440C943E4620
:105DC0000C9400009091440627E030E061E070E020
:105DD000482F50E0CB01022E02C0880F991F0A9471
:105DE000E2F7842395231816190614F490E201C0F3
:105DF00090E090934406892F8068809344069093A6
:105E00004406215030408FEF2F3F380719F708958F
:105E100080E00E94E22E80E00E94E22E80E00E945C
:105E2000E22E80E00E94E22E08958FEF0E94E22E83
:105E30008FEF0E94E22E8FEF0E94E22E8FEF0E94E2
:105E4000E22E08958FE080935000E0E4F0E01182AC
:105E500088E1E0E5F0E085838091500080618093E7
:105E600050008091510084FFFCCF88ED84BF84E016
:105E7000809340000895E82FFF27E7FDF095E53176
:105E8000F10508F09AC4EC50FF4F862F992787FD43
:105E90009095EE0FFF1F0590F491E02D1994FC01F1
:105EA0001816190614F0E1E0F0E0E534F10514F0FD
:105EB000E4E4F0E03197DF01A656BF4D1C92DF010C
:105EC000AA5ABF4D1C92E25FFF4D1082862F992780
:105ED00087FD9095E4E4F0E0E81BF90B1E161F0621
:105EE0000CF4F0C2EDC2DC011816190614F0A1E0A2
:105EF000B0E0A534B10514F0A4E4B0E01197FD01C1
:105F0000E656FF4D8FEF8083FD01EA5AFF4D108268
:105F1000A25FBF4D1C92862F992787FD9095A4E420
:105F2000B0E0A81BB90B1A161B060CF4DCC2D9C2D0
:105F3000DC011816190614F0A1E0B0E0A534B10593
:105F400014F0A4E4B0E01197FD01E656FF4D108275
:105F5000FD01EA5AFF4D8FEF8083A25FBF4D1C9277
:105F6000862F992787FD9095A4E4B0E0A81BB90B74
:105F70001A161B060CF4C4C2C1C2DC01181619069D
:105F800014F0A1E0B0E0A534B10514F0A4E4B0E051
:105F90001197FD01E656FF4D1082FD01EA5AFF4DB3
:105FA0001082A25FBF4D8FEF8C93862F992787FDBC
:105FB0009095A4E4B0E0A81BB90B1A161B060CF4CC
:105FC000B0C2ADC2DC011816190614F0A1E0B0E0B1
:105FD000A534B10514F0A4E4B0E01197FD01E65634
:105FE000FF4D8FEF8083FD01EA5AFF4D8083A25F52
:105FF000BF4D1C92862F992787FD9095A4E4B0E0B1
:10600000A81BB90B1A161B060CF498C295C2DC012A
:106010001816190614F0A1E0B0E0A534B10514F08B
:10602000A4E4B0E01197FD01E656FF4D1082FD019A
:10603000EA5AFF4D8FEF8083A25FBF4D8C93862F6E
:10604000992787FD9095A4E4B0E0A81BB90B1A1618
:106050001B060CF484C281C2DC011816190614F068
:10606000A1E0B0E0A534B10514F0A4E4B0E01197CC
:10607000FD01E656FF4D8FEF8083FD01EA5AFF4D8B
:106080001082A25FBF4D8C93862F992787FD909534
:10609000A4E4B0E0A81BB90B1A161B060CF470C2DE
:1060A0006DC2DC011816190614F0A1E0B0E0A534A9
:1060B000B10514F0A4E4B0E01197FD01E656FF4DE0
:1060C0008FEF8083FD01EA5AFF4D8083A25FBF4DB1
:1060D0008C93862F992787FD9095A4E4B0E0A81BA8
:1060E000B90B1A161B060CF45DC25AC2DC01181655
:1060F000190614F0A1E0B0E0A534B10514F0A4E451
:10610000B0E01197FD01E656FF4D80E88083FD0168
:10611000EA5AFF4D1082A25FBF4D1C92862F99272D
:1061200087FD9095A4E4B0E0A81BB90B1A161B06D6
:106130000CF445C242C2DC011816190614F0A1E0A5
:10614000B0E0A534B10514F0A4E4B0E01197FD016E
:10615000E656FF4D1082FD01EA5AFF4D80E880832C
:10616000A25FBF4D1C92862F992787FD9095A4E4CE
:10617000B0E0A81BB90B1A161B060CF432C22FC2D2
:10618000DC011816190614F0A1E0B0E0A534B10541
:1061900014F0A4E4B0E01197FD01E656FF4D108223
:1061A000FD01EA5AFF4D1082A25FBF4D80E88C933B
:1061B000862F992787FD9095A4E4B0E0A81BB90B22
:1061C0001A161B060CF422C21FC2DC01181619068F
:1061D00014F0A1E0B0E0A534B10514F0A4E4B0E0FF
:1061E0001197FD01E656FF4D80E88083FD01EA5AD4
:1061F000FF4D8083A25FBF4D8C93862F992787FD2B
:106200009095A4E4B0E0A81BB90B1A161B060CF479
:106210000AC207C2FC011816190614F0E1E0F0E00A
:10622000E534F10514F0E4E4F0E03197DF01A6561F
:10623000BF4D8FEF8C93DF01AA5ABF4D80E88C933E
:10624000E25FFF4D1082862F992787FD9095E4E449
:10625000F0E0E81BF90B1E161F060CF4F8C1F5C19F
:10626000FC011816190614F0E1E0F0E0E534F10540
:1062700014F0E4E4F0E03197DF01A656BF4D80E86A
:106280008C93DF01AA5ABF4D8FEF8C93E25FFF4DD5
:106290001082862F992787FD9095E4E4F0E0E81BB3
:1062A000F90B1E161F060CF4E4C1E1C1DC0118163F
:1062B000190614F0A1E0B0E0A534B10514F0A4E48F
:1062C000B0E01197FD01E656FF4D8FEF8083FD0191
:1062D000EA5AFF4D1082A25FBF4D80E88C93862F53
:1062E000992787FD9095A4E4B0E0A81BB90B1A1676
:1062F0001B060CF4D4C1D1C1DC011816190614F028
:10630000A1E0B0E0A534B10514F0A4E4B0E0119729
:10631000FD01E656FF4D80E88083FD01EA5AFF4DFE
:106320001082A25FBF4D8FEF8C93862F992787FD38
:106330009095A4E4B0E0A81BB90B1A161B060CF448
:10634000C0C1BDC1DC011816190614F0A1E0B0E00F
:10635000A534B10514F0A4E4B0E01197FD01E656B0
:10636000FF4D1082FD01EA5AFF4D80E88083A25F55
:10637000BF4D8FEF8C93862F992787FD9095A4E4CE
:10638000B0E0A81BB90B1A161B060CF4ACC1A9C1CE
:10639000DC011816190614F0A1E0B0E0A534B1052F
:1063A00014F0A4E4B0E01197FD01E656FF4D108211
:1063B000FD01EA5AFF4D8FEF8083A25FBF4D80E859
:1063C0008C93862F992787FD9095A4E4B0E0A81BB5
:1063D000B90B1A161B060CF49BC198C1FC011816C8
:1063E000190614F0E1E0F0E0E534F10514F0E4E41E
:1063F000F0E03197DF01A656BF4D8FEF8C93DF01A0
:10640000AA5ABF4D80E48C93E25FFF4D8083862FB4
:10641000992787FD9095E4E4F0E0E81BF90B1E1640
:106420001F060CF48BC188C1FC011816190614F064
:10643000E1E0F0E0E534F10514F0E4E4F0E0319758
:10644000DF01A656BF4D90E49C93DF01AA5ABF4DD1
:106450008FEF8C93E25FFF4D9083862F992787FD06
:106460009095E4E4F0E0E81BF90B1E161F060CF40F
:106470007BC178C1DC011816190614F0A1E0B0E068
:10648000A534B10514F0A4E4B0E01197FD01E6567F
:10649000FF4D80E48083FD01EA5AFF4D8083A25FB7
:1064A000BF4D8FEF8C93862F992787FD9095A4E49D
:1064B000B0E0A81BB90B1A161B060CF46BC168C11F
:1064C000E1E0F0E0E534F10514F0E4E4F0E03197C8
:1064D000DF01A656BF4D1C92DF01AA5ABF4D1C9288
:1064E000D8C0A1E0B0E0A534B10514F0A4E4B0E058
:1064F0001197FD01E656FF4D8FEF6BC0A1E0B0E0B4
:10650000A534B10514F0A4E4B0E01197FD01E656FE
:10651000FF4D1082FD01EA5AFF4D8FEF70C0A1E0E0
:10652000B0E0A534B10514F0A4E4B0E01197FD018A
:10653000E656FF4D1082D0C0A1E0B0E0A534B10511
:1065400014F0A4E4B0E01197FD01E656FF4D8FEF83
:106550008083FD01EA5AFF4D52C0A1E0B0E0A534AE
:10656000B10514F0A4E4B0E01197FD01E656FF4D2B
:106570001082FD01EA5AFF4D8FEF63C0A1E0B0E049
:10658000A534B10514F0A4E4B0E01197FD01E6567E
:10659000FF4D8FEF8083FD01EA5AFF4D108252C0FC
:1065A000A1E0B0E0A534B10514F0A4E4B0E0119787
:1065B000FD01E656FF4D8FEF40C0A1E0B0E0A534ED
:1065C000B10514F0A4E4B0E01197FD01E656FF4DCB
:1065D00080E88083FD01EA5AFF4D108211C0A1E0DE
:1065E000B0E0A534B10514F0A4E4B0E01197FD01CA
:1065F000E656FF4D1082FD01EA5AFF4D80E8808388
:10660000A25FBF4D1C920895A1E0B0E0A534B10592
:1066100014F0A4E4B0E01197FD01E656FF4D10829E
:1066200049C0A1E0B0E0A534B10514F0A4E4B0E0A5
:106630001197FD01E656FF4D80E88083FD01EA5A7F
:10664000FF4D8083A25FBF4D75C0E1E0F0E0E5340F
:10665000F10514F0E4E4F0E03197DF01A656BF4DF8
:106660008FEF8C93DF01AA5ABF4D80E811C0E1E0A3
:10667000F0E0E534F10514F0E4E4F0E03197DF01F7
:10668000A656BF4D80E88C93DF01AA5ABF4D8FEF0D
:106690008C93E25FFF4D10820895A1E0B0E0A53435
:1066A000B10514F0A4E4B0E01197FD01E656FF4DEA
:1066B0008FEF8083FD01EA5AFF4D108238C0A1E0C0
:1066C000B0E0A534B10514F0A4E4B0E01197FD01E9
:1066D000E656FF4D80E88083FD01EA5AFF4D1082A7
:1066E00011C0A1E0B0E0A534B10514F0A4E4B0E01D
:1066F0001197FD01E656FF4D1082FD01EA5AFF4D4C
:1067000080E88083A25FBF4D8FEF14C0A1E0B0E0AE
:10671000A534B10514F0A4E4B0E01197FD01E656EC
:10672000FF4D1082FD01EA5AFF4D8FEF8083A25F7B
:10673000BF4D80E88C930895E1E0F0E0E534F10589
:1067400014F0E4E4F0E03197DF01A656BF4D8FEF7F
:106750008C93DF01AA5ABF4D80E48C93E25FFF4D1A
:1067600080830895E1E0F0E0E534F10514F0E4E41D
:10677000F0E03197DF01A656BF4D90E49C93DF0116
:10678000AA5ABF4D8FEF8C93E25FFF4D908308951F
:10679000A1E0B0E0A534B10514F0A4E4B0E0119795
:1067A000FD01E656FF4D80E48083FD01EA5AFF4D6E
:1067B0008083A25FBF4D8FEF8C930895E82FF0E0A8
:1067C000ED37F10510F00C949341E75FFE4F20E0A8
:1067D000EE0FFF1F0590F491E02D1994862F922F54
:1067E0001816190614F081E090E08534910514F034
:1067F00084E490E0FC013197DF01A656BF4D1C9266
:10680000DF01AA5ABF4D1C92E25FFF4D108208952E
:10681000862F922F1816190614F081E090E0853427
:10682000910514F084E490E0DC011197FD01E65637
:10683000FF4D1082FD01EA5AFF4D1082A25FBF4D4D
:1068400080E48C930895862F922F1816190614F061
:1068500081E090E08534910514F084E490E0DC015F
:106860001197FD01E656FF4D1082FD01EA5AFF4DDA
:106870001082A25FBF4D80E88C930895862F922FDF
:106880001816190614F081E090E08534910514F093
:1068900084E490E0DC011197FD01E656FF4D108283
:1068A000FD01EA5AFF4D1082A25FBF4D80EC8C9330
:1068B0000895862F922F1816190614F081E090E0A3
:1068C0008534910514F084E490E0DC011197FD011A
:1068D000E656FF4D1082FD01EA5AFF4D1082A25F7D
:1068E000BF4D8FEF8C930895862F922F181619069F
:1068F00014F081E090E08534910514F084E490E098
:10690000DC011197FD01E656FF4D1082FD01EA5AA8
:10691000FF4D80E48083A25FBF4D1C920895862FB7
:10692000922F1816190614F081E090E08534910535
:1069300014F084E490E0DC011197FD01E656FF4D70
:106940001082FD01EA5AFF4D80E48083A25FBF4DB3
:106950008C930895862F922F1816190614F081E053
:1069600090E08534910514F084E490E0DC01119707
:10697000FD01E656FF4D1082FD01EA5AFF4D80E40D
:106980008083A25FBF4D80E88C930895862F922F5D
:106990001816190614F081E090E08534910514F082
:1069A00084E490E0DC011197FD01E656FF4D108272
:1069B000FD01EA5AFF4D80E48083A25FBF4D80EC69
:1069C0008C930895862F922F1816190614F081E0E3
:1069D00090E08534910514F084E490E0DC01119797
:1069E000FD01E656FF4D1082FD01EA5AFF4D80E49D
:1069F0008083A25FBF4D8FEF8C930895862F922FD7
:106A00001816190614F081E090E08534910514F011
:106A100084E490E0DC011197FD01E656FF4D108201
:106A2000FD01EA5AFF4D80E88083A25FBF4D1C92B2
:106A30000895862F922F1816190614F081E090E021
:106A40008534910514F084E490E0DC011197FD0198
:106A5000E656FF4D1082FD01EA5AFF4D80E8808323
:106A6000A25FBF4D80E48C930895862F922F181655
:106A7000190614F081E090E08534910514F084E467
:106A800090E0DC011197FD01E656FF4D1082FD01FB
:106A9000EA5AFF4D80E88083A25FBF4D8C93089532
:106AA000862F922F1816190614F081E090E0853495
:106AB000910514F084E490E0DC011197FD01E656A5
:106AC000FF4D1082FD01EA5AFF4D80E88083A25FEE
:106AD000BF4D80EC8C930895862F922F18161906BF
:106AE00014F081E090E08534910514F084E490E0A6
:106AF000DC011197FD01E656FF4D1082FD01EA5AB7
:106B0000FF4D80E88083A25FBF4D8FEF8C93089587
:106B1000862F922F1816190614F081E090E0853424
:106B2000910514F084E490E0DC011197FD01E65634
