:100000000C94F4000C9415010C9415010C9415013A
:100010000C9415010C9415010C9415010C94150108
:100020000C9415010C9415010C9415010C941501F8
:100030000C9415010C9415010C9415010C941501E8
:100040000C9415010C9415010C9415010C941501D8
:100050000C9415010C9415010C9415010C941501C8
:100060000C9415010C9415010C9415010C941501B8
:100070000C9415010C9415010C9415010C941501A8
:100080000C9415010C9415010C9415010C94150198
:100090000C9415010C9415010C9415010C94150188
:1000A0000C9415010C9415010C9415010C94150178
:1000B0000C9415010C9415010C9415010C94150168
:1000C0000C9415010C9415010C9415010C94150158
:1000D0000C9415010C9415010C9415010C94150148
:1000E0000C9415010C9415010C9415010C94150138
:1000F0000C9415010C9415010C9415010C94150128
:100100000C9415010C9415010C9415010C94150117
:100110000C9415010C9415010C9415010C94150107
:100120000C9415010C9415010C9415010C941501F7
:100130000C9415010C9415010C9415010C941501E7
:100140000C9415010C9415010C9415010C941501D7
:100150000C9415010C9415010C9415010C941501C7
:100160000C9415010C9415010C9415010C941501B7
:100170000C9415010C9415010C9415010C941501A7
:100180000C9415010C9415010C9415010C94150197
:100190000C9415010C9415010C9415010C94150187
:1001A0000C9415010C9415010C9415010C94150177
:1001B0000C9415010C9415010C9415010C94150167
:1001C0000C9415010C9415010C9415010C94150157
:1001D0000C9415010C9415010C9415010C94150147
:1001E0000C9415010C94150111241FBECFEFDFE311
:1001F000DEBFCDBF00E00CBF10E2A0E0B0E2ECEC4F
:10020000F7E000E00BBF02C007900D92A030B107ED
:10021000D9F711E2A0E0B0E201C01D92A732B10708
:10022000E1F70E943D030C94E4030C9400009091CC
:10023000440627E030E061E070E0482F50E0CB0159
:10024000022E02C0880F991F0A94E2F78423952397
:100250001816190614F490E201C090E09093440639
:10026000892F806880934406909344062150304043
:100270008FEF2F3F380719F7089580E00E9417018C
:1002800080E00E94170180E00E94170180E00E9438
:10029000170108958FEF0E9417018FEF0E94170139
:1002A0008FEF0E9417018FEF0E9417010895FF92B0
:1002B0000F931F93F82E062F142F8FEF0E94170114
:1002C000812F0E941701802F0E9417018F2D0E94FD
:1002D00017011F910F91FF9008959F92AF92BF92C7
:1002E000CF92DF92EF92FF920F931F93CF93DF9302
:1002F000982E5B016A0179010E943D01E80100E04E
:1003000010E019C08981882371F0F501E00FF11F19
:10031000D601A00FB11F9701200F311F80816C9172
:10032000F901408103C080E060E040E00E94570195
:100330000F5F1F4F2196091528F30E944A0184E0A0
:100340008A95F1F7DF91CF911F910F91FF90EF9078
:10035000DF90CF90BF90AF909F9008954FEF50E007
:10036000481B590B45355105C4F49A01220F331F20
:10037000240F351F88279927821B930B81509F4F8D
:10038000809304209093052010920620109207205D
:10039000209308203093092036C04A3A5105D4F4FE
:1003A0009A01255530401092042010920520C90171
:1003B000880F991F820F931F809306209093072028
:1003C000909581959F4F81509F4F809308209093E7
:1003D000092019C09A012A5A3040C901880F991F73
:1003E000820F931F80930420909305209095819510
:1003F0009F4F81509F4F809306209093072010922B
:1004000008201092092084E090E208950F931F9332
:1004100084E46DED70E243E550E22CE030E208E95F
:1004200010E20E946D011F910F91089521E0853F18
:10043000920788F0672B09F04FC0809150208F5FA2
:1004400080935020823010F01092502083E090E092
:10045000609150203DC08536910588F0672BE1F50D
:10046000809121218F5F809321218D3018F081E0D0
:100470008093212180E090E06091212129C00B9799
:1004800058F1672B49F580919720813029F410921B
:100490009720809324210CC0809124218F5F80932A
:1004A00024218B3028F081E08093242180939720B1
:1004B00080E090E0609121210E94C10381E090E002
:1004C000609124210E94C10382E090E06091972016
:1004D0000E94C10381E0089580E00895809188061C
:1004E0001092012085FD03C081E08093012060917E
:1004F0000120613049F480910220909103200196FF
:10050000809302209093032080910020861711F0A1
:1005100020E008C0809102209091032070E00E94AA
:100520001602282F90910120992341F480910020F8
:10053000882321F41092022010920320909300202F
:10054000822F0895AF92BF92CF92DF92FF920F93C6
:100550001F93CF93DF936C0162E070E00E948A03E7
:10056000EB01FF2400E010E070EDA72E77E0B72E3E
:1005700026C00E946E028130E1F4F3948F2D9927FA
:1005800087FD9095C817D907ACF420E137E248EC15
:1005900050E0CA010197F1F721503040D1F780E1D6
:1005A00097E2FA013197F1F7019720E137E2C9F7B5
:1005B000F0CFFF24C5010197F1F70F5F1F4F0C1516
:1005C0001D05BCF280E0DF91CF911F910F91FF904C
:1005D000DF90CF90BF90AF900895CF92DF92EF92CF
:1005E000FF920F931F93CF93DF936C01E8E9F0E242
:1005F00081E0819390E2ED3DF907D9F7EE24FF24E5
:1006000030C0C8018E0D9F1D90700E94AE01EC019C
:100610009A812C81D8011016110614F0A1E0B0E0E7
:100620001197FD01E352FF4D88818083FD01ED5A52
:10063000FF4D9083A45FBF4D2C930F5F1F4F043479
:100640001105F9F60E940602C6010E94A20281303D
:1006500059F00894E11CF11C80E0E81681E0F806EE
:1006600019F000E010E0CDCFDF91CF911F910F91F5
:10067000FF90EF90DF90CF900895FF920F931F931C
:1006800080E090E00E94B103182F8093212181E047
:1006900090E00E94B103F82E8093242182E090E044
:1006A0000E94B103082F8093972083E090E00E947E
:1006B000B103982F809350201D3018F081E0809373
:1006C00021218AE08F1518F481E0809324210230E3
:1006D00010F010929720923018F081E08093502013
:1006E0008FEF80932006109224068093400610928C
:1006F000440680E011E006C0E82FF0E0E856FF4D28
:1007000010838F5F8534C0F381E090E00E94ED029A
:1007100080E0F2CF97FB092E07260AD077FD04D0A0
:100720000CD006D000201AF4709561957F4F089583
:10073000F6F7909581959F4F0895AA1BBB1B51E139
:1007400007C0AA1FBB1FA617B70710F0A61BB70B41
:10075000881F991F5A95A9F780959095BC01CD01E6
:10076000089503D0808199270895E0ECF1E0378562
:1007700037FDFDCF348538603487FC01E050F04F01
:100780000895262FE0ECF1E0378537FDFDCF348565
:10079000377F3487378531FF09C036E3328738ED3C
:1007A00034BF31E03387378537FDFDCF33E3328700
:1007B000808391831282248325E3228728ED31E010
:0C07C00024BF338701960895F894FFCF02
:00000001FF
