:100000000C94D03F0C94F13F0C94F13F0C94F13FD1
:100010000C94F13F0C94F13F0C94F13F0C94F13FA0
:100020000C94F13F0C94F13F0C94F13F0C94F13F90
:100030000C94F13F0C94F13F0C94F13F0C94F13F80
:100040000C94F13F0C94F13F0C94F13F0C94F13F70
:100050000C94F13F0C94F13F0C94F13F0C94F13F60
:100060000C94F13F0C94F13F0C94F13F0C94F13F50
:100070000C94F13F0C94F13F0C94F13F0C94F13F40
:100080000C94F13F0C94F13F0C94F13F0C94F13F30
:100090000C94F13F0C94F13F0C94F13F0C94F13F20
:1000A0000C94F13F0C94F13F0C94F13F0C94F13F10
:1000B0000C94F13F0C94F13F0C94F13F0C94F13F00
:1000C0000C94F13F0C94F13F0C94F13F0C94F13FF0
:1000D0000C94F13F0C94F13F0C94F13F0C94F13FE0
:1000E0000C94F13F0C94F13F0C94F13F0C94F13FD0
:1000F0000C94F13F0C94F13F0C94F13F0C94F13FC0
:100100000C94F13F0C94F13F0C94F13F0C94F13FAF
:100110000C94F13F0C94F13F0C94F13F0C94F13F9F
:100120000C94F13F0C94F13F0C94F13F0C94F13F8F
:100130000C94F13F0C94F13F0C94F13F0C94F13F7F
:100140000C94F13F0C94F13F0C94F13F0C94F13F6F
:100150000C94F13F0C94F13F0C94F13F0C94F13F5F
:100160000C94F13F0C94F13F0C94F13F0C94F13F4F
:100170000C94F13F0C94F13F0C94F13F0C94F13F3F
:100180000C94F13F0C94F13F0C94F13F0C94F13F2F
:100190000C94F13F0C94F13F0C94F13F0C94F13F1F
:1001A0000C94F13F0C94F13F0C94F13F0C94F13F0F
:1001B0000C94F13F0C94F13F0C94F13F0C94F13FFF
:1001C0000C94F13F0C94F13F0C94F13F0C94F13FEF
:1001D0000C94F13F0C94F13F0C94F13F0C94F13FDF
:1001E0000C94F13F0C94F13F60408440A940CE4014
:1001F000F34018413D4162418741AC41D141F64154
:100200001B42414267428D42B342D942FF422543DD
:100210004B43FF44194534454F456A458545A04544
:10022000BB45D745F3450F462A46464661467D46BF
:100230009946B446D046EC46074723473E475A47BF
:1002400076479247AD47C847E347FF471B483748C3
:1002500052486D488948A548C148DD48F9481549C4
:1002600032494F496B498749A449C049DD49F94999
:10027000154A324A4F4A6B4A864AA24ABD4AD94A6F
:10028000F54A114B2D4B494B664B834B9E4BBA4B5A
:10029000D54BF14B0D4C294C464C624C7E4C9B4C43
:1002A000B74CD44CF04C0D4D294D444D604D7C4D18
:1002B000974DB34DCF4DEB4D084E244E414E5D4E04
:1002C0007A4E964EB24ECF4EEA4E064F224F3D4FDB
:1002D000594F754F924FAF4FCB4FE74F02501E50C3
:1002E0003A50565071508D50A950C650E350FF50AF
:1002F0001B513851545171518D51A951C651E3517F
:10030000FF511B52365252526E528A520000000068
:1003100000000000000000000000000000000000DD
:1003200000000000040404040400000000000000B9
:1003300000000000000000000000000000000000BD
:1003400000000000000000010101010400000000A5
:10035000000000000000000000000000000000009D
:100360000000000000010101010101010101010182
:10037000000000000000000000000000000000007D
:100380000000000000000001010101010101010164
:10039000010100000000000000000000000000005B
:1003A0000000000000000101010101010101010440
:1003B0000404010101000000000000000000000032
:1003C000000000000000010101010101010104041D
:1003D0000404040404040400000000000000000001
:1003E00000000000000101010101010101010404FC
:1003F00004040404040404040400000000000000D9
:1004000000010101010101010101010101010104DA
:1004100004040404040404040404040400000000AC
:1004200000000101010101010101010101010101BE
:100430000104040404040404040404040404000087
:1004400000000000010000000001010101010101A4
:100450000101010104040404040404040404040468
:100460000000000000000000000000000001010189
:100470000101010101010101040404040404040454
:10048000040400000000000000000000000004045C
:100490000401010101010101010104040404040437
:1004A0000404040000000000000000000000000040
:1004B0000000000404010101010101010101010426
:1004C000040404040100000000000000000000001B
:1004D0000000000000000404040101010101010109
:1004E0000101010101010400000000000000000002
:1004F00000000000000000000004040101010101EF
:1005000001010101010101010000000000000000E3
:1005100000000000000000000000000004040401CE
:1005200001010101010101010404000000000000BB
:1005300000000000000000000000000000000004B7
:100540000404040404040404040400000000000083
:10055000000000000000000000000000000000009B
:10056000000000000404040404040404000000006B
:10057000000000000000000000000000000000007B
:100580000000010101010404040404000000000053
:10059000000000000000000000000000000000005B
:1005A0000001010101010101010101010404040034
:1005B000000000000000000000000000000000003B
:1005C000000000010101010101010101010101041B
:1005D0000400000000000000000000000000000017
:1005E0000000000000000101010101010101010101
:1005F00001010104000000000000000000000000F4
:1006000000000001010101010101010101010101DD
:1006100001010101010400000000000000000000D1
:1006200000000101010101010101010101010101BC
:1006300001010101010101010404000000000000AA
:10064000000001010101010101010101010101019C
:100650000101010404040404040401010400000075
:10066000000000010101010101010101010101017D
:10067000010101010404040404040404040401004D
:10068000000000000101010101010101010101015E
:100690000101010101040404040404040404040429
:1006A0000404000000000101010101010101010138
:1006B0000101010101040404040404040404040409
:1006C0000404040100000101010101010101010113
:1006D00001010101010104040404040404040404EC
:1006E00004040404040100000101010101010101ED
:1006F00001010104040404040404040404040404C3
:1007000004040404040404040001010101010101C2
:1007100001010101010101040404040404040404AE
:10072000040404040404040404040101010101019B
:100730000101010101010101010104040404040497
:10074000040404040404040404040400000000007D
:100750000000000101010101010101010101010489
:10076000040404040101010404040404040000005E
:100770000000000000000001010101010101010170
:10078000010101040404010101040404040404003F
:100790000000000000000000000001010101010153
:1007A000010101010101010101010104040404042A
:1007B0000400000000000000000000000000010133
:1007C0000101010101010101010101010104040113
:1007D0000404000000000000000000000000000011
:1007E00000010101010101010101010101010101FA
:1007F00001010404000000000000000000000004EB
:1008000004040404040101010101010101010101C9
:1008100001010104000000000000000000000000D1
:1008200000000000000404040401010101010101B1
:1008300001010104040000000000000000000000AD
:100840000000000000000004040404010101010193
:10085000010101010104040000000000000000008B
:100860000000000000000000000000000404040478
:100870000401010104040404000000000000000061
:100880000000000000000000000000000000000068
:10089000040404040404040000000000000000003C
:1008A0000000000000000000000000000000000048
:1008B0000000000000000000000000000000000038
:1008C0000000000000000000000000000000000028
:1008D0000000000000000000000000000000000018
:1008E0000000000000000000000000000000000008
:1008F00000000000000000000000000000000000F8
:1009000000000000000000000000000000000000E7
:1009100000000000000000000000000000000000D7
:1009200000000000000000000000000000000000C7
:1009300000000000000000000000000000000000B7
:1009400000000000000000000000000000000000A7
:100950000000000000000000000000000000000097
:100960000000000000000000000000000000000087
:100970000000000000000000000000000000000077
:100980000000000000000000000000000000000067
:10099000000000000000000700070707000000003B
:1009A0000000000000000000000000000000000047
:1009B000000000000000000000000007070707001B
:1009C00007070707070707000707070707070700C5
:1009D00000000000000007070707000700000707E6
:1009E00000000000000000000000070707070700E4
:1009F00007070700000000000707070707070000B8
:100A000007000000000000000000000000070707CA
:100A10000700070707000000000707070707000790
:100A200000000700000000070707000000000000AA
:100A30000707070700070700000007070700000770
:100A4000070707000007070700000000000000007C
:100A50000000070000070007070000000707070065
:100A6000070700070700000007070000070700004E
:100A70000000070707000007000707000000000745
:100A80000007070700070700000700000700000035
:100A9000000000000000070700070007070000072C
:100AA0000007070707000000070707070007070000
:100AB00000070000000007070707070000070700FE
:100AC00000000007000707000000070707070007EE
:100AD00007000007000000000000000707000007F3
:100AE00007000000000707070707000007070707C0
:100AF00000000707000000000000070000000707D3
:100B000000070700000000070007070700000707AD
:100B100007000000070700000000000007070000B2
:100B2000070700070700000007070000070700008D
:100B3000070700000700000700000000000007078B
:100B4000000007070007070000000707070707075F
:100B50000000000700070707000000000000000079
:100B60000700000007070007070000000707070746
:100B70000707000007070707070700070000000036
:100B80000000070700000707000707000000000734
:100B900007070707070707070707070707070007EC
:100BA0000000000007070000070700070000000022
:100BB00000070707070707070707070700000707DA
:100BC0000000000000000707000007070007000002
:100BD00000000007070707070707070707070000C8
:100BE00007000007000000000000000707000707DB
:100BF00000000007000707000007000007070700C4
:100C000000000700000700000007070707070000B3
:100C1000070700000007000007070700070000079C
:100C20000700070700000707000000070707070085
:100C30000000070000000007000007070700000091
:100C4000070707000000070007070000070707075E
:100C5000070000000700000000070000070707006A
:100C60000000070707000707070000000007070745
:100C7000070007000007000000000007000007074A
:100C80000700000007070707070700000000000033
:100C90000000070007000007000000000700000038
:100CA00007070000000707070707070700070700F7
:100CB0000007000000000000000700000000000026
:100CC00000000707000000000007070707070007EC
:100CD00007000007070700000000070000000000F1
:100CE00000000700000707000007000007070700D3
:100CF00000070000070707000007000707000000C3
:100D000000000007000000070700000707000707B2
:100D1000000007070000070707000707000700009B
:100D200000000000000700070000070700000700A0
:100D3000000700000700000000000000070000009E
:100D40000000000000000007070000070007000780
:100D50000700000700000000000000000007070077
:100D60000700000000000000000707000700070759
:100D7000070707000707000707000007000007072D
:100D80000707000000000000000000070707000040
:100D90000707000000000700000707000700000722
:100DA0000707070000000000000000000007070719
:100DB00007070707070000070700070700000007ED
:100DC00007070707070700000000000000000000F9
:100DD00007070707070707000000000007000000DB
:100DE00007070707070707000000000000000000D2
:100DF00000000007070707070700070700000000BB
:100E000000070707070707070000000000000000B1
:100E100000000000000000070707070700070700A1
:100E20000707070707070707070000000000000083
:100E300000000000000000000000000700000007A4
:100E40000707070707070707070707000000000055
:100E50000000000000000000000000000000000092
:100E6000070000000000070700000000000000006D
:100E70000000000000000000000000000000000072
:100E8000000700070707070000000000000000003F
:100E90000000000000000000000000000000000052
:100EA0000000000007000000000007000000000034
:100EB0000000000000000000000000000000000032
:100EC0000000000000000007070707000000000006
:100ED0000000000000000000000000000000000012
:100EE0000000000000000000000000000000000002
:100EF00000000000000000000000000000000000F2
:100F000000000000000000000000000000000000E1
:101670000000000000000000000000000000000466
:10168000040404000000000000000000000000004E
:10169000000000000000000000000000000404043E
:1016A0000404040404040404040000000000000016
:1016B0000000000000000000000000000000040422
:1016C00004040404040404040404040400000000EA
:1016D000000000000000000000000000000000000A
:1016E00004040404040404040404040404040000C2
:1016F00000000000000000000000000000000000EA
:1017000004040404040404000000000004040404AD
:1017100004040000000000000000000000000000C1
:1017200000000404040404040000000000000000A1
:101730000404040404000000000000000000000095
:101740000000000404040400000000000000000089
:101750000000000404040400000000000000000079
:101760000000000000040404040000000000000069
:101770000000000000040404040000000000000059
:101780000000000000040404040400000000000045
:101790000000000000000000040404040400000035
:1017A0000000000000000004040404040000000025
:1017B0000000000000000000000004040404040411
:1017C0000000000000000000040404040000000009
:1017D0000000000000000000000000000000040401
:1017E00004040000000000000000040404040000E1
:1017F00000000000000000000000000000000000E9
:1018000004040404000000000000000004040400BC
:1018100000000000000000000000000000000000C8
:1018200000000004040400000000000000000404A4
:10183000040004040404000000000000000004048C
:101840000404040400040404040000000000000474
:101850000404040404040404040400000000000060
:10186000040404040404040404040400000000004C
:10187000000404040404040404040404000000003C
:10188000000004040404040404040404040000002C
:10189000000000040404040404040404040400001C
:1018A000000000000404040404040404040404000C
:1018B00000000000000404040404040404040404FC
:1018C00004000000000000000404040404040404F4
:1018D00004040400000000040404040404040404D8
:1018E00004040400000000000000040404040404D4
:1018F00004040404040000000004040404040404B8
:1019000004040404040000000000000004040404B3
:101910000404040404040400000000040404040497
:10192000040404040404000000000000040404048F
:10193000040404040404040404000004040404046F
:10194000040404040404040400000000000004046F
:10195000040404040404040404040400000404044F
:10196000040404040404040404040000000000004F
:10197000040404040404040404040404040000042F
:10198000040404040404000000000000000000003F
:10199000000000000404040404040404040404001B
:1019A0000004040404040404040400000000000013
:1019B0000000000000000000040404040404040407
:1019C00004000004040404040404040404000000EB
:1019D00000000000000000000000000000040404FB
:1019E00004040400000404040404040404040400C3
:1019F00000000000000000000000000000000004E3
:101A0000040404040400000404040404040404049E
:101A100000000000000000000000000000000404BE
:101A2000040404040404040000040404040404047E
:101A3000000000000000000000000000000004049E
:101A4000040404040404040404000004040404045E
:101A5000040404040404040400000000000004045E
:101A6000040404040404040404040400000404043E
:101A7000040404040404040404040000000000003E
:101A80000404040404040404040404040400000022
:101A9000000404040404040404040404000000001A
:101AA0000000040404040404040404040404040002
:101AB00000000004040404040404040404040400F6
:101AC00000000000000004040404040404040404EE
:101AD00004000000000404040404040404040404D6
:101AE00004000000000000000404040404040404D2
:101AF00004040400000000040404040404040404B6
:101B000004040400000000000000040404040404B1
:101B10000404040404000000000404040404040495
:101B2000040404040000000000000404040404048D
:101B3000040404040400000000000004040404047D
:101B4000040404040404000000000000040404046D
:101B5000040404040404040000000000000404045D
:101B6000040404040404040400000000000004044D
:101B70000404040404040404040000000000000041
:101B80000404040004040404000000000000000039
:101B9000040404040404000404040400000000001D
:101BA0000000040404000000000000000000000029
:101BB0000000000000000000000404040000000019
:101BC0000000000004040404000000000000000005
:101BD00000000000000000000000040404040000F5
:101BE00000000000000004040404000000000000E5
:101BF00000000000000000000000000004040404D5
:101C000000000000000000000004040404040000C0
:101C100000000000000000000000000004040404B4
:101C20000404000000000000000000040404040498
:101C3000000000000000000000000000000004049C
:101C40000404040000000000000000000000000484
:101C50000404040000000000000000000000000474
:101C60000404040000000000000000000000000068
:101C70000004040404000000000000000000000054
:101C80000004040404000000000000000000000044
:101C9000000000000404040404040000000000002C
:101CA0000000040404040400000000000000000020
:101CB0000000000000000404040404040400000008
:101CC00000000404040404040000000000000000FC
:101CD00000000000000000000000040404040404EC
:101CE00004040404040404040000000000000000D4
:101CF00000000000000000000000000004040404D4
:101D000004040404040404040404000000000000AB
:101D100000000000000000000000000000000004BF
:101D20000404040404040404040404000000000087
:101D300000000000000000000000000000000000A3
:101D40000000000000040404040000000000000083
:101D50000000000000000000000000000000000083
:101D60000000000000000000000000000000000073
:101D70000000000000000000000000000000000063
:101D80000000000000000000000000000000000053
:102440000202020000040404040400000000000270
:10245000020202020202020202020202020202025C
:102460000202020000000404040404040404000046
:102470000000000000020202020202020202020246
:102480000202020202000000040404040404040422
:10249000000000000000000202020202020202022A
:1024A0000202020202020000000404040404040404
:1024B0000404040404000000000000000002020202
:1024C00002020202020202020000000404040400EC
:1024D00000000004040404040404000000000000E0
:1024E00000000202020202020202000404040404C8
:1024F00004000000000000000404040404040000C0
:1025000000000000000202020202020200040404B1
:102510000404040000000000000004040404040497
:102520000000000000000002020202020202000499
:102530000404040000000707070000000000040472
:10254000040404040400000000000002020202026D
:10255000000404040400000007070707000000004F
:102560000000040404040404040400000000000249
:10257000020200040404040000000707070700002B
:10258000000000000404040404040404000000002B
:102590000002020200040404040000000707070709
:1025A00007070700000000000404040404040400FA
:1025B00000000000000004040404000000000707FD
:1025C00007070707070700000000000000040404D5
:1025D00004040404000000000404040400000007D4
:1025E000070707070707070707070700000000009E
:1025F00000000404040404040404040404040000AB
:102600000007070707070707070707070700000076
:10261000000000000404040404040404040404048A
:10262000000000070707070707070707070707074F
:102630000707070000000004040404040404040461
:102640000404000000070707070707070707070735
:102650000707070707070000000000000404040440
:10266000040404040000000707070707070707071B
:10267000070707070707070707070000000004040C
:102680000404040404040000000707070707070701
:1026900007070707070707070707070700000000E6
:1026A00004040404040404040000000707070707E7
:1026B00007070707070707070707070700000000C6
:1026C00000000404040404040404000000070707D5
:1026D000070707070707070707070707070000009F
:1026E00000040404040404040404040400000007B7
:1026F0000707070707070707070707070000000086
:102700000000040404040404040404040404000099
:10271000000707070707070707070707070700005E
:10272000000000000404040404040404000404047D
:10273000040000000707070707070707070700004F
:102740000000000404040404040404000000000465
:10275000040404000000070707070707070000003C
:102760000000040404040404040404000000000045
:10277000000404040400000007070707000000002D
:102780000000040404040404040400000000000029
:10279000000000040404040000000707070700000D
:1027A0000000000004040404040404040000000009
:1027B0000000000000040404040000000000000009
:1027C00000000004040404040404040000000000E9
:1027D00000000202020200040404040404000000D9
:1027E00000040404040404040400000000000000C9
:1027F00000020202020202020004040404040400B3
:1028000000000004040404040404040000000000A8
:10281000000000020202020202020000000404049E
:102820000404040404040404040400000000000080
:102830000002020202020202020202020200000080
:10284000040404040404040404040000000000025E
:10285000020202020202020202020202020202005A
:102860000000000404040404000000000000020250
:102870000202020202020202020202020202020238
:102880000200000000040404040400000000000032
:102890000202020202020202020202020202020218
:1028A000020202020200000000000000000000001E
:1028B00002020202020202020202020202020202F8
:1028C00002020202020202020200000000000002F4
:1028D00002020202020202020202020202020202D8
:1028E00002020202020202020202020202020202C8
:1028F00002020202020202020202020202020202B8
:1029000002020202020202020202020202020202A7
:102910000202020202020202020202020202020297
:102920000202020202020202020202020202020287
:102930000202020202020202020202020202020277
:10294000020202020202020202020202000000006F
:102950000000000000030303000007070707070744
:10296000000003030300000000000000000000005E
:102970000000000003030300070707070707070716
:10298000070707070700000303000000000000001E
:102990000000000000030300000707070707070700
:1029A00007070707070707070700030300000000E2
:1029B00000000000000003030007070707070700E7
:1029C00000030303000007070707070707000303C7
:1029D00000000000000000030300070707070707C7
:1029E00007070000030303030000070707070707A3
:1029F00000030300000000000303000707070707A8
:102A0000070707070707070003030303030300077C
:102A10000707070003030000000303000707070779
:102A20000000070707070707070700000303030362
:102A30000300070707070003030000030007070759
:102A40000703030303030007070707070707070038
:102A50000303030303070707070003000300070737
:102A6000070700030303030303000707070707071C
:102A7000070700000303030007070700030003071D
:102A8000070707000303030303030303030300070C
:102A900007070707070707000003000707070003EA
:102AA00003070707070700030303030303030303E5
:102AB00003000707070707070707070003070707BC
:102AC00007030007070707070707070003030303B8
:102AD00003030303030300070707070707070700AC
:102AE000070707030007070707070707070700008F
:102AF0000303030303030303030000070707070798
:102B00000707070707030707070707070707070759
:102B10000707000003030303030300000707070779
:102B2000070707070707070007070703000007074E
:102B30000707070707070000030300070707070742
:102B40000707070700030007070707070703030036
:102B50000007070707070707070703000707070717
:102B60000707070700000303000707070707070316
:102B7000030303030303000707070707000707070B
:102B80000707000003030303030300070707070702
:102B900007030303030303030000070707070007F6
:102BA00007070700030303030303030300070707E3
:102BB00007070703030303000007070707070707C3
:102BC00000070707070707070000030303030007C1
:102BD0000707070707030303000707070707070798
:102BE0000707030007070707070707070000030396
:102BF0000007070707070700070707070707070773
:102C00000700030303030300070707070707070776
:102C10000700000707000007070707070707070760
:102C2000070000030303030303030000070707076C
:102C30000707070707070700000707070707070732
:102C4000000003030303030303030300070707074D
:102C50000707070707000707070303070707070713
:102C6000070003030303030303030303000707072A
:102C700007070707070000070707070303070707FA
:102C80000703030303030303030303000707070703
:102C900007070707000303030007070700000300F7
:102CA00007070700030303030303030300070707E2
:102CB00007070707000003030300070707000300D7
:102CC00003030007070707030303030007070707BA
:102CD00007070707000303030303000707070703AA
:102CE00003000003030707070700030000070707A7
:102CF000070707070000030303030300070707078D
:102D00000003000000000303000707070707070789
:102D10000707070700030303030303000707070769
:102D2000070303000000000000030307070707076D
:102D30000707070700000303030303030007070750
:102D40000707000303000000000000000303000762
:102D5000070707070707000000000707070707071F
:102D60000707070303000000000000000000000345
:102D700003000707070707070707070707070707EE
:102D80000707070000030300000000000000000028
:102D900000000303030300070707070707070707E8
:102DA000070700000303030000000000000000000C
:102DB00000000000000303030300000007070707EB
:102DC00007070000030303030300000000000000E6
:102DD00000000000000000000000030303030303E1
:102DE00003030303030303030000000000000000CB
:102DF00000000000000000000000000000000303CD
:102E000003030303030303030000000000000000AA
:102E100000000000000000000000000000000000B2
:102E200000000000000000000000000000000000A2
:102E30000000000000000000000000000000000092
:102E40000000000000000000000000000000000082
:1030900000000000000000000000006469006900FA
:1030A0006E005A005A005A0046002D0014000F000E
:1030B00010000C0007000800030004000064690011
:1030C00069006E005A005A005A0046002D00140094
:1030D0000F0010000C00070008000300040000644B
:1030E000690069006E005A005A005A0046002D001F
:1030F00014000F0010000C0007000800030004007B
:103100000064690069006E005A005A005A004600C7
:103110002D0014000F0010000C0007000800030031
:1031200004000064690069006E005A005A005A00E9
:1031300046002D0014000F0010000C0007000800CE
:10314000030004000064690069006E005A005A0020
:103150005A0046002D0014000F0010000C0007005C
:103160000800030004000000000000000000000050
:10317000000000000000000000000000000000004F
:1031800000000000000000000000000069006E0068
:103190005A005A005A0046002D0014000F0010007B
:1031A0000C00070008000300040000000000690094
:1031B0006E005A005A005A0046002D0014000F00FD
:1031C00010000C00070008000300040000000000CD
:1031D00069006E005A005A005A0046002D00140083
:1031E0000F0010000C00070008000300040000009E
:1031F000000069006E005A005A005A0046002D0077
:1032000014000F0010000C00070008000300040069
:103210000000000069006E005A005A005A00460083
:103220002D0014000F0010000C0007000800030020
:10323000040000000000000000000000000000008A
:10324000000000000000000000000000000000007E
:10325000000000000064640069006E005A005A001B
:103260005A0046002D0014000F0010000C0007004B
:103270000800030004000064640069006E005A0046
:103280005A005A0046002D0014000F0010000C00D8
:1032900007000700030004000064640069006E007A
:1032A0005A005A005A0046002D0014000F0010006A
:1032B0000C000700070003000400006464006900BC
:1032C0006E005A005A005A0046002D0014000F00EC
:1032D00010000C00070007000300040000646400F5
:1032E00069006E005A005A005A0046002D00140072
:1032F0000F0010000C00070007000300040000642A
:10330000640069006E005A005A005A0046002D0001
:1033100014000F0010000B0007000700030004005A
:103320000064640069006E005A005A005A004600AA
:103330002D0014000F0010000B0007000700030011
:103340000400000000000000000000000000000079
:10335000000000000000000000000000000000006D
:10336000000000000000000000000000000000005D
:10337000000046002D0014000F0010000B00070095
:10338000070003000400000000000000000000002F
:103390000000000046002D0014000F0010000B007C
:1033A0000700070003000400000000000000000008
:1033B00000000000000046002D0014000F00100067
:1033C0000B000700070003000400000000000000DD
:1033D000000000000000000046002D0014000F0057
:1033E00010000B00070007000300040000000000AD
:1033F0000000000000000000000046002D00140046
:103400000F0010000B00070007000300040000007D
:1034100000000000000000000000000000000000AC
:10342000000000000000000000000000000000009C
:1034300000000000000000005A005A005A00460038
:103440002D0014000F0010000B0007000700030000
:10345000040000000000000000005A005A005A005A
:1034600046002D0014000F0010000B00070007009D
:103470000300040000000000000000005A005A0091
:103480005A0046002D0014000F0010000B0007002A
:1034900007000300040000000000000000005A00C4
:1034A0005A005A0046002D0014000F0010000B00B7
:1034B00007000700030004000000000000000000F7
:1034C0005A005A005A0046002D0014000F00100048
:1034D0000B000700070003000400000000000000CC
:1034E00000005A005A005A0046002D0014000F0038
:1034F00010000B000700070003000400000000009C
:1035000000000000000000000000000000000000BB
:1035100000000000000000000000000000000000AB
:10352000000069006E005A005A005A0046002D0043
:1035300014000F0010000B00070007000300040038
:103540000000000069006E005A005A005A00460050
:103550002D0014000F0010000B00070007000300EF
:1035600004000000000069006E005A005A005A0072
:1035700046002D0014000F0010000B00070007008C
:10358000030004000000000069006E005A005A00A9
:103590005A0046002D0014000F0010000B00070019
:1035A0000700030004000000000069006E005A00DC
:1035B0005A005A0046002D0014000F0010000B00A6
:1035C00007000700030004000000000069006E000F
:1035D0005A005A005A0046002D0014000F00100037
:1035E0000B000700070003000400000000000000BB
:1035F00000000000000000000000000000000000CB
:1036000000000000000000000000000000000000BA
:1036100000000000000000005A0046002D001400C9
:103620000F0010000B00070007000300040000005B
:10363000000000000000000000005A0046002D00BD
:1036400014000F0010000B00070007000300040027
:103650000000000000000000000000005A004600CA
:103660002D0014000F0010000B00070007000300DE
:1036700004000000000000000000000000005A00EC
:1036800046002D0014000F0010000B00070007007B
:103690000300040000000000000000000000000023
:1036A0005A0046002D0014000F0010000B00070008
:1036B00007000300040000000000000000000000FC
:1036C00000005A0046002D0014000F0010000B00EF
:1036D00007000700030004000000000000000000D5
:1036E00000000000000000000000000000000000DA
:1036F00000000000000000000000000000000000CA
:10370000000000000000000000002D0014000F0069
:1037100010000B0007000700030004000000000079
:103720000000000000000000000000002D00140058
:103730000F0010000B00070007000300040000004A
:1037400000000000000000000000000000002D004C
:1037500014000F0010000B00070007000300040016
:103760000000000000000000000000000000000059
:103770002D0014000F0010000B00070007000300CD
:103780000400000000000000000000000000000035
:1037900000002D0014000F0010000B0007000700B0
:1037A0000300040000000000000000000000000012
:1037B000000000002D0014000F0010000B00070097
:1037C00007000300040000000000000000000000EB
:1037D00000000000000000000000000000000000E9
:1037E00000000000000000000000000000000000D9
:1037F0000000000000000000000014000F00100096
:103800000B00070007000300040000000000000098
:1038100000000000000000000000000014000F0085
:1038200010000B000C000700030004000000000063
:103830000000000000000000000000000000140074
:103840000F0010000B000700070003000400000039
:103850000000000000000000000000000000000068
:1038600014000F0010000B000C0007000300040000
:103870000000000000000000000000000000000048
:10388000000014000F0010000B00070007000300E9
:103890000400000000000000000000000000000024
:1038A0000000000000000000000000000000000018
:1038B0000000000000000000000000005A005A0054
:1038C0005A0046002D0014000F0010000B000C00E1
:1038D00007000300040000000000000000005A0080
:1038E0005A005A0046002D0014000F0010000B0073
:1038F0000C000700030004000000000000000000AE
:103900005A005A005A0046002D0014000F00100003
:103910000B000C0007000300040000000000000082
:1039200000005A005A005A0046002D0014000F00F3
:1039300010000B000C000700030004000000000052
:10394000000000005A005A005A0046002D001400E2
:103950000F0010000B000C00070003000400000023
:103960000000000000005A005A005A0046002D00D6
:1039700014000F0010000B000C00070003000400EF
:103980000000000000000000000000000000000037
:103990000000000000000000000000000000000027
:1039A00000000064640069006E005A005A005A006A
:1039B00046002D0014000F0010000B000C00070043
:1039C000030004000064640069006E005A005A009D
:1039D0005A0046002D0014000F0010000B000C00D0
:1039E0000700030004000064640069006E005A00D0
:1039F0005A005A0046002D0014000F0010000B0062
:103A00000C000700030004000064640069006E00FD
:103A10005A005A005A0046002D0014000F001000F2
:103A20000B000C0007000300040000646400690040
:103A30006E005A005A005A0046002D0014000F0074
:103A400010000B000C000700030004000064640079
:103A500069006E005A005A005A0046002D001400FA
:103A60000F0010000B000C00070003000400000012
:103A70000000000000000000000000000000000046
:103A80000000000000000000000000000000000036
:103A90000064640069006E005A005A005A00460033
:103AA0002D0014000F0010000B000C000700030095
:103AB00004000064640069006E005A005A005A0055
:103AC00046002D0014000F0010000B000C00070032
:103AD000030004000064640069006E005A005A008C
:103AE0005A0046002D0014000F0010000B000C00BF
:103AF0000700030004000064640069006E005A00BF
:103B00005A005A0046002D0014000F0010000B0050
:103B10000C000700030004000064640069006E00EC
:103B20005A005A005A0046002D0014000F001000E1
:103B30000B000C000700030004000064640069002F
:103B40006E005A005A005A0046002D0014000F0063
:103B500010000B000C000700030004000000000030
:103B60000000000000000000000000000000000055
:103B7000000000000000000000324B6469000000FB
:103B80000000000000000000000000000000000035
:103B9000000000000000000000000000324B697CC3
:103BA0000000000000000000000000000000000015
:103BB0000000000000000000000000000000324B88
:103BC0006E7C00000000000000000000000000000B
:103BD00000000000000000000000000000191900B3
:103BE0004B506E7C00000000000000000000000050
:103BF00000000000000000001900000000000000AC
:103C000000004B69697C000000000000000000001B
:103C100000000000000000000000000000000000A4
:103C2000004B4B4B4B4B6E7C000000000000000033
:103C30000000000000000000000000000000000084
:103C40000000000019004B64507C000000000000E0
:103C50000000000000000000000000000000000064
:103C6000324B64644B4B4B4B69555B7C000000004E
:103C70000000000000000000000000000000000044
:103C8000000000000032645050555A5A5B7C00001E
:103C90000000000000000000000000000000000024
:103CA0000000001E1900194B644B5055555B5C7C9D
:103CB0000000000000000000000000000000000004
:103CC000000000001E0000004B6432324B50505583
:103CD0005B7C00000000000000000000000000000D
:103CE0000000000000000000000019320000004B3E
:103CF0004B50697C00000000000000000000000044
:103D000000000000000000000000000000000000B3
:103D100000325050697C00000000000000000000EC
:103D2000000000190000194B4B4B4B4B4B4B3232F0
:103D30001919194B69505B7C00000000000000005D
:103D4000000000000000324B32323232324B4B6402
:103D50004B4B69695050555B5B7C000000000000D4
:103D600000000000000000193219000000000019D6
:103D7000196464646E555A555B55507C0000000010
:103D80000000000000000000000000000000000033
:103D90000000004B64646969556964646E7C0000CE
:103DA0000000000000000000000000000000000013
:103DB00000000000324B4B4B4B50324B6464697C2B
:103DC00000000000000000000000000000000000F3
:103DD00000000000000000000000194B4B64646408
:103DE000697C0000000000000000000000000000EE
:103DF0000000000000001E00000000001919004B28
:103E00006464697C00000000000000000000000005
:103E100000000000000000000037504B4B4B3232D6
:103E2000324B64696E7C000000000000000000005E
:103E30000000000000000000000000191932646456
:103E4000646969696969697C00000000000000001C
:103E50000000000000003219000000000000194BB3
:103E60006464696969696E6E6E7C00000000000020
:103E70000000000000000000194B4B4B4B4B4B6403
:103E800064646464696969696E73737C000000002E
:103E90000000000000000000000000004B646464AB
:103EA000696464646469696969697373737C000037
:103EB0000000000000000000000000000000194B9E
:103EC0004B64696964696969696E6E6E7373747C49
:103ED0000000000000000000000000323700000079
:103EE00000194B4B4B4B4B6469696E736E73747A5C
:103EF0007B7C0000000000000000000000000000CB
:103F00000000004B00190000194B6469696E73785A
:103F100079797A7C000000000000000000000000B9
:103F2000000000000019324B0000004B646464691B
:103F30006E7373797A7C00000000000000000000BE
:103F40000000000000000000194B32324B4B64644B
:103F500064646969696E747C000000000000000000
:103F600000000000000000000000000000001E0033
:103F70006464646469696E73747C0000000000000E
:103F800000000000000000000000000000191900FF
:103F900000196464646969696E6E747C00000000D5
:103FA0000000000000000000000000000000000011
:103FB000194B4B4B6464696969696E73737C0000CB
:103FC00000000000000000000000000000000037BA
:103FD00000000019324B64646469696E69696E7C23
:103FE00000000000000000000000000000000000D1
:103FF00000000019324B4B6464696969696E6E6E2A
:104000006E7C0000000000000000000000000000C6
:10401000000000000000194B4B646969696E6E7303
:104020007373737C000000000000000000000000BB
:104030000032323232324B4B644B4B4B6464696911
:10404000696E7373797C00000000000000000000BE
:10405000000000324B4B4B4B4B4B321900194B4B72
:104060006464696E73737A7C0000000000000000D5
:104070000000000000000000000000000000000040
:1040800000004B64646973737A7C000000000000D8
:104090000000000000000000000000000000190007
:1040A00000000000326469697373797C00000000CD
:1040B0000000000000000000000000000000000000
:1040C0001919000000003264696E6E73737C000081
:1040D00000000000000000000000000000000000E0
:1040E000000000324B4B4B4B646969696E6E6E7C0D
:1040F00000000000000000000000000000000000C0
:1041000000000000000000324B4B3219194B696966
:10411000697C0000000000000000000000000000BA
:1041200000000000000000000000000000324B4BC7
:104130006964647C000000000000000000000000D2
:10414000000000000000000000000000001919003D
:104150003264696E747C0000000000000000000002
:10416000000000000000000000000000000000321D
:104170004B4B50696E737A7C000000000000000019
:10418000000000000000000000000000000000002F
:1041900000194B50696E74747A7C000000000000B6
:1041A000000000000000000000000000000000000F
:1041B00000000000194B4B647474747C0000000014
:1041C00000000000000000000000000000000000EF
:1041D000000000000000000019325050647C000014
:1041E00000000000000000000000000000000000CF
:1041F0000000000000000000000000000032647CAD
:1042000000000000000000000000000000000000AE
:104210000000000000000000000000000000004B53
:10422000647C0000000000000000000000000000AE
:10423000000000000000000000000000000000007E
:104240000032697C00000000000000000000000057
:10425000000000000000000000000000000000005E
:1042600000000032697C0000000000000000000037
:10427000000000000000000000000000000000003E
:10428000000000000032697C000000000000000017
:104290000000000000000000000000000000001905
:1042A000000000000000194B697C000000000000C5
:1042B00000000000000000191900000000000000CC
:1042C000000000000000004B3232697C000000005A
:1042D000000000000000000019370000000000008E
:1042E00000000000001932190019194B6E7C000003
:1042F00000000000000000000000000000000000BE
:104300000000000000001919324B69506E6E7A7C73
:10431000000000000000000000000000000000009D
:104320000000000000000019190032644B696E6E35
:104330007A7C000000000000000000000000000087
:104340000000000000000000001900004B4B324B41
:104350006969747C0000000000000000000000009B
:104360000000000000000000000000000000001934
:1043700000004B696E00000000000000000000001B
:1043800000000000000000190000324B4B4B4B4B6B
:10439000323219324B697400000000000000000046
:1043A0000000000000000000000019324B4B4B4B96
:1043B000696969504B4B6969750000000000000095
:1043C00000000000000000000000000000000000ED
:1043D0000000003264696E6E736E690000000000B8
:1043E00000000000000000000000000000000000CD
:1043F00000000000324B6450505064646E000000B6
:1044000000000000000000000000000000000000AC
:1044100000000000000019324B323232646469003F
:10442000000000000000000000000000000000008C
:10443000000000000000001E00000000190064647D
:104440006900000000000000000000000000000003
:1044500000000000000000000000324B4B323232FE
:1044600064696E0000000000000000000000000011
:104470000000000000000000001900001937646906
:104480006969696E6E000000000000000000000015
:104490000000000000000000324B321919324B645A
:1044A000646969696E6E740000000000000000001D
:1044B0000000000000000000000000194B64646967
:1044C0006464646969696E74730000000000000030
:1044D0000000000000000000000000000000324B5F
:1044E0004B6969696969696E737474000000000042
:1044F00000000000000000000000000000000000BC
:1045000019321919324B696E7374747A7A0000008B
:10451000000000000000000000000000000000009B
:10452000000019193200194B64644B7373747500E1
:10453000000000000000000000000000000000007B
:104540000000000000194B32324B644B4B696E7314
:1045500074000000000000000000000000000000E7
:10456000000000000000000000001900644B6469B6
:104570006E6E7400000000000000000000000000EB
:104580000000000000000000000000324B4B4B50C8
:1045900050696E737300000000000000000000000E
:1045A00000000000000000000000000000001919D9
:1045B0004B4B4B646E6E6E0000000000000000006C
:1045C00000000000000000000000000000000000EB
:1045D000000000000032696969000000000000006E
:1045E00000000000000000000000000000000000CB
:1045F00000000000001E00194B4B6E000000000080
:1046000000000000000000000000000000000000AA
:1046100000000000000000000000324B6E000000AF
:10462000000000000000000000000000000000008A
:10463000000000000000000000000000324B6E008F
:10464000000000000000000000000000000000006A
:1046500000000000000000000000000000004B69A6
:104660006E000000000000000000000000000000DC
:10467000000000000000191E190000000019193286
:1046800064646900000000000000000000000000F9
:104690000000000000000000000000000000004BCF
:1046A0004B4B4B4B69000000000000000000000075
:1046B00000000000000000000000000000324B4B32
:1046C000320000194B697400000000000000000077
:1046D0000000000000000000000000000019321976
:1046E0004B4B6969696E73747A000000000000002A
:1046F00000000000000000000000000000000000BA
:10470000000000326469696E73797A00000000006D
:104710000000000000000000000000000000000099
:10472000193700004B646464646E6E747A00000094
:104730000000000000000000000000000000000079
:104740000000000000004B4B0000194B6969740029
:104750000000000000000000000000000000000059
:10476000000000000000000019320000004B6469E6
:104770006E000000000000000000000000000019B2
:104780000000000019323232190000000000004B16
:10479000696E6E00000000000000000000000000D4
:1047A000000000194B4B4B4B6469696969694B4BBD
:1047B0004B69696E5C000000000000000000000012
:1047C00000000000324B32193232324B4B646969BF
:1047D0006E6E6E6E6E7474000000000000000000CB
:1047E0000000000000190000000000000000004B65
:1047F000696969696E7469696900000000000000F8
:104800000000000000000000000000000000003276
:10481000326464646969696464646E000000000065
:104820000000000000000000000000000000000088
:104830000019324B4B4B4B4B4B4B64696E000000E5
:104840000000000000000000000000000000000068
:104850000000000000000000001919646464690091
:104860000000000000000000000000000000000048
:10487000000000001E00000000000000004B646407
:104880006E000000000000000000000000000000BA
:104890000000000000000000194B4B4B3219324B56
:1048A00064696E00000000000000000000000000CD
:1048B00000000000000000000019194B64646469E6
:1048C000696E6E6E6E0000000000000000000000C7
:1048D00000000000324B1900000019324B64646480
:1048E00069696969737373000000000000000000CB
:1048F000000000000000004B4B4B4B4B4B646464CA
:1049000064646969696973737300000000000000E2
:10491000000000000000000000004B646464696453
:1049200064646469696969697373730000000000F5
:1049300000000000000000190000000000004B4BC8
:1049400064696969696E6E6E6E6E74797A000000D2
:1049500000000000000000000032370000000019D5
:104960004B4B4B4B4B646969736E6E73747A7B006F
:104970000000000000000000000000000000000037
:10498000004B00000000194B6469697378797979EC
:104990007A0000000000000000000000000000009D
:1049A000000000004B4B00193264646464696E734C
:1049B00074747A0000000000000000000000000095
:1049C000000000000000324B32324B4B64646464E0
:1049D000696E6E6E740000000000000000000000B0
:1049E0000000000000000000000000001E006464E1
:1049F0006464696E6E7379000000000000000000BE
:104A00000000000000000000000000003232324BC5
:104A10006469696969696E737300000000000000D1
:104A20000000000000000000000000000000194B22
:104A30004B4B4B4B64696969737373000000000052
:104A40000000000000000000000000000000000066
:104A5000000000324B4B646464696E6E6E000000AF
:104A60000000000000000000000000000000000046
:104A70000000000000000000004B646464646900F2
:104A80000000000000000000000000000000000026
:104A90000000001919000000001E00004B6464644F
:104AA000690000000000000000000000000019196B
:104AB000190000194B4B4B321900000000004B64E9
:104AC00064646900000000000000000000000000B5
:104AD00000194B4B3200194B6464644B3232194B52
:104AE000646464646E0000000000000000000000C8
:104AF00000000000324B644B4B646464646964647E
:104B000064646464696E6E000000000000000000D0
:104B100000000000000019324B6464646464646443
:104B20006969696969696E6E6E00000000000000C5
:104B30001937373219000000324B646464646964C9
:104B40006464646469696E6E6E6E730000000000D8
:104B5000001919501900000000000000324B646970
:104B600069696969696969696969737374000000D1
:104B7000000000001950000000000000000000329A
:104B80004B646969696969696E69696973747900F7
:104B90000000000000000000000000000000000015
:104BA000324B4B646464646969696E6E6E6E7374D3
:104BB0007A0000000000000000000000000000007B
:104BC0000000000000004B6464646469696E6E6EEE
:104BD0007373790000000000000000000000003244
:104BE0003219000000000000004B4B646464696EE1
:104BF0006E7373737900000000000000000019322A
:104C00004B64646469696969696464646464646464
:104C1000696E6E73797A7A0000000000000000006F
:104C2000324B644B4B6464646464646469696969AD
:104C30006E6E6E6E73797A7A7B0000000000000061
:104C400000324B4B4B4B4B4B4B4B6464646464697D
:104C500069696E6E737474797A7A7B000000000063
:104C6000194B4B4B4B4B4B320000324B646464642A
:104C700064696969696E78797A7A7A7A7B0000006A
:104C80000000000000194B4B644B4B4B4B4B6464D2
:104C90006464646969696E6E737474797A7A7B008E
:104CA0000000000000000000324B4B50506964646B
:104CB00064646464696969696E6E6E6E6E787A7A2E
:104CC0007B00000000000000000019324B646464A7
:104CD0004B505050504B4B4B64646464696E6E7320
:104CE00079797A000000000000000000000000193F
:104CF0001900000000000000194B64646464696ED0
:104D00006E6E737379000000000000000000000068
:104D1000000000000000000000194B646464696931
:104D2000696E6E6E73737900000000000000000071
:104D300000000000000000004B4B4B646464646999
:104D400069696E6E696E73747A000000000000007D
:104D500019500000000000000000194B4B64696905
:104D6000696969696E69696973747400000000009B
:104D70000019325019000000000000194B646469EA
:104D800069696969696969696969737373000000B0
:104D90000000000000191919000000004B4B4B6483
:104DA0006464646464646464696E6E6E6E6E6E00E6
:104DB00000000000000000000000000000001932A8
:104DC0004B646464646464696969646464696E6E94
:104DD0006E00000000000000000000000000000065
:104DE000324B4B324B64646464696464646464642D
:104DF00069696E0000000000000000000000000073
:104E000019324B4B1900194B64644B4B1919003282
:104E10004B6464646E0000000000000000000000AD
:104E20000000000000000000324B4B1900000000A1
:104E300000004B6464646900000000000000000092
:104E40000000000000000000000000000000000062
:104E5000001E00194B64646469000000000000003B
:104E60000000000000000000000000000000000042
:104E700000000000194B64646464690000000000D5
:104E80000000000000000000000000000000000022
:104E9000000000194B4B646464696E6E6E00000084
:104EA0000000000000000000000000000000000002
:104EB0000000324B4B4B4B4B696969696E73730051
:104EC00000000000000000000000000000000000E2
:104ED000000000193219194B6469696969696E6EBD
:104EE000740000000000000000000000000000004E
:104EF00000000000000000193719646464646969E7
:104F00006E6E740000000000000000000000000051
:104F1000000000000000324B32324B4B646464648A
:104F2000696E6E6E7400000000000000000000005A
:104F300000000000000000004B4B0000194B6464AF
:104F400064696E7374747A00000000000000000051
:104F50000000000000000000004B19000000196470
:104F6000646969737879797A7B0000000000000039
:104F70000000000000323200000000004B4B4B4BA1
:104F80006464696E6E6E6E7374797A00000000005E
:104F900000000000000000190000000000194B4B49
:104FA00064696969696E6E6E6E6E73747400000078
:104FB00000000000000000000000000000004B6442
:104FC0006464696464646464696969696E737300C4
:104FD0000000000000000000000000000000194B6D
:104FE0004B3232324B646464646469696969737317
:104FF000730000000000000000000000000000003E
:105000003232000000000032324B64646969696921
:105010007373730000000000000000000000000037
:1050200000000000000000000019324B6464646955
:10503000696969696E00000000000000000000005E
:1050400000000000000000000000000000323219E3
:105050001919194B64696E0000000000000000007F
:105060000000000000000000000000001E00000022
:1050700000000019004B646469000000000000009B
:105080000000000000000000000000000000000020
:1050900000000000004B4B646464690000000000E5
:1050A0000000000000000000000000000000000000
:1050B00000194B646464644B4B4B64696E000000E0
:1050C00000000000000000000000000000000000E0
:1050D00000000032324B64696969696964646E007A
:1050E00000000000000000000000000000190000A7
:1050F000000000000000004B64696E696E746E6908
:105100006900000000000000000000000000000036
:1051100019324B3232324B4B64646969696969698F
:105120006E74750000000000000000000000000028
:10513000000000004B4B4B4B64646950504B4B4B91
:105140004B6969695C00000000000000000000007D
:1051500000000000000000001919191919000000D2
:105160000000004B696E6E000000000000000000AF
:10517000000000000000000000000000000000002F
:10518000324B0000004B64696E000000000000001C
:10519000000000000000000000000000000000000F
:1051A00000004B4B1919194B696E74000000000088
:1051B00000000000000000000000000000000000EF
:1051C000193719004B4B6464646E6E747A000000EA
:1051D00000000000000000000000000000000000CF
:1051E00000000019000019326469696E73747A0056
:1051F00000000000000000000000000000000000AF
:1052000000000000001932324B4B696969696E7405
:105210007A00000000000000000000000000000014
:1052200000000000000000000019323219000000E8
:105230004B696F000000000000000000000000004B
:105240000000000000000000000019000000004BFA
:105250004B4B4B4B690000000000000000000000B9
:1052600000000000000000000019191900000000F3
:10527000001900194B646E000000000000000000DF
:10528000000000000000000000000000000000001E
:105290000000001919004B696E00000000000000BA
:1052A00000000000000000000000000000000000FE
:1052B0000000000000000000324B6E000000000003
:1052C00000000000000000000000000000000000DE
:1052D00000000000000000000000324B6E000000E3
:1052E00000000000000000000000000000000000BE
:1052F0000000000000000000001E00324B4B6E005A
:10530000000000000000000000000000000000009D
:10531000000000000000000000000000004B696970
:105320006900000000000000000000000000000014
:105330000000000000000000000032324B4B4B64C4
:105340006E6E5A0000000000000000000000000027
:105350000000000000000000000000324B4B4B50EA
:1053600050696E6E5A00000000000000000000004E
:1053700000000000000000000000000000001E000F
:10538000644B64696E6E5A0000000000000000006B
:1053900000000000000000000000000000194B1990
:1053A000324B644B4B6E73735B00000000000000D7
:1053B00000000000000000000000000000001919BB
:1053C0003200194B6464697373785C00000000005C
:1053D00000000000000000000000000000000000CD
:1053E000004B4B324B4B696E737374797A0000003B
:1053F00000000000000000000000000000000000AD
:105400000000324B4B6964646969696973747400A4
:10541000000000000000000000000000000000008C
:10542000000000324B6464696464646969696E7485
:1054300073000000000000000000000000000000F9
:10544000000000003232190019324B4B646969695F
:105450006E6E7400000000000000000000000000FC
:1054600000000000000000000000001932326464F7
:10547000646969696E00000000000000000000001F
:105480000000000000000000000000000000324B9F
:105490004B4B4B4B4B646E000000000000000000C3
:1054A00000000000000000000000000000000000FC
:1054B0000000000019324B6464000000000000008E
:1054C00000000000000000000000000000000000DC
:1054D0000000194B4B4B4B32646469000000000024
:1054E00000000000000000000000000000000000BC
:1054F00000000000324B6469695064646900000078
:105500000000000000000000000000000000001982
:105510001900000000001932646E6E6E7374690029
:10552000000000000000000000000000000000007B
:10553000000000324B4B4B4B6969504B4B4B696938
:1055400074000000000000000000000000000000E7
:10555000000000190000194B4B4B4B321919001970
:105560004B696E0000000000000000000000000019
:1055700000000000000000000000000000001919F9
:1055800000004B646E0000000000000000000000FE
:1055900000000000000000000000000000190000F2
:1055A0004B4B4B4B6E6E740000000000000000007F
:1055B00000000000000000000000000000000000EB
:1055C0000000194B4B696E737A0000000000000068
:1055D00000000000000000000000000000000000CB
:1055E000000032324B4B5050506E750000000000EE
:1055F000000000000000000019501E000000000024
:1056000000000000000019000019193269000000B4
:105610000000000000000000000000191900000058
:1056200000000000000000000000194B324B690030
:10563000000000000000000000000000000000006A
:105640000000000000000019000000000000004BF6
:1056500069000000000000000000000000000000E1
:10566000000000000000000000000000000000003A
:10567000003269000000000000000000000000008F
:10568000000000000000000000000000000000001A
:10569000000000326900000000000000000000006F
:1056A00000000000000000000000000000000000FA
:1056B000000000000032690000000000000000004F
:1056C00000000000000000000000000000000000DA
:1056D000000000000000004B64000000000000001B
:1056E00000000000000000000000000000000000BA
:1056F0000000000000000000003264000000000014
:105700000000000000000000000000000000000099
:105710000000000000000000194B50696900000003
:105720000000000000000000000000000000000079
:105730000000000000000000324B4B6974747400DC
:105740000000000000000000000000000000000059
:10575000000000000000000000324B4B696E7474C2
:105760007A000000000000000000000000000000BF
:1057700000000000000000000000004B32324B69C6
:105780006E6E7500000000000000000000000000C8
:1057900000000000000000000000000000191919BE
:1057A0003264696E6F00000000000000000000001D
:1057B00000000000000000000000000000001919B7
:1057C0000032324B696964000000000000000000F4
:1057D0000000000000000000000000000000004B7E
:1057E0004B4B3232324B6969690000000000000007
:1057F0000000000000000000000000000000004B5E
:105800004B3232324B6469696E6E6E0000000000EC
:105810000000000000000000000000000000000088
:105820001919000000003269696E6E737300000080
:105830000000000000000000001E1E00000000002C
:10584000000019000000000032646469737379007D
:105850000000000000000000000000000000000048
:10586000000000000000000000004B6464697373D6
:105870007A0000000000000000000000000000327C
:105880004B4B4B4B644B4B3219324B646464696E27
:1058900073737900000000000000000000000000A9
:1058A0000019191919194B4B644B4B4B6464696906
:1058B0006E6E7373790000000000000000000000AD
:1058C00000000000000000000000194B4B646469F8
:1058D000696E6E73737373000000000000000000B7
:1058E000000000000000000000000000194B4B64A5
:1058F00064646969696E696E6E00000000000000F2
:105900000000000000000000000000371900000047
:10591000194B64646469696E69696900000000007C
:105920000000000000000000000000000000000077
:10593000324B4B4B6464696969696E737300000094
:105940000000000000000000000000000000000057
:105950000019000000196464646469696E6E740063
:105960000000000000000000000000000000000037
:1059700000000000001E1E196464646469696E738F
:1059800074000000000000000000000000000000A3
:1059900000000000324B32324B4B6464646469692E
:1059A0006E6E7400000000000000000000000000A7
:1059B00000000000001919320000004B64646469A3
:1059C0006E7373797A000000000000000000000090
:1059D000000000000000004B190000001964646919
:1059E000696E737979797A00000000000000000088
:1059F000000000323200000000004B4B4B4B64644F
:105A000069696E6E6E7374797A00000000000000A0
:105A100000000000000000000000324B6464696474
:105A2000646969696969696E7373730000000000D5
:105A30000000000000000000000000004B646464EF
:105A400069646464646469696969737373000000FC
:105A5000000000000000000000000000194B4B3265
:105A600032324B4B64646464696969696E737300B4
:105A7000000000000000000000000000000019000D
:105A8000000000000000003264646969696E6E6E97
:105A90006E00000000000000000000000000000098
:105AA0000000000000000032324B646464646469EA
:105AB00069696900000000000000000000000000AB
:105AC00000000000000000000019373232321937A0
:105AD000194B64696E000000000000000000000027
:105AE00000000000000000000000000000000000B6
:105AF0001932194B646469000000000000000000C6
:105B00000000000000000000000000000000000095
:105B10000000004B4B64646469000000000000005A
:105B2000000000000000000000000000000000195C
:105B30004B4B64644B504B4B6464690000000000A5
:105B40000000000000000000000000000000000055
:105B50000000004B64646969556E50646900000080
:105B600000000000000000000000000032320000D1
:105B70000000003232644B4B6E5555555A5B550050
:105B80000000000000000000000000000000194BB1
:105B90004B324B4B4B4B64644B4B646969696956A0
:105BA0005C00000000000000000000000000001E7B
:105BB000000000324B4B4B4B4B4B32190000194B42
:105BC00069505B00000000000000000000000000C1
:105BD00000000000000000000000000000190000AC
:105BE00000324B506900000000000000000000007F
:105BF0000000000000000000000000000000324B28
:105C00000000004B4B505500000000000000000059
:105C10000000000000000000000000001E00000066
:105C20004B644B4B4B5050555B0000000000000094
:105C30000000000000000000000000000000000064
:105C400000001932644B50555A5B5C0000000000A4
:105C50000000000000000000000000000000000044
:105C600000000000194B645050555A5A5B00000068
:105C70000000000000000000000000000000000024
:105C800000000000194B4B4B4B32324B50505B0025
:105C90000000000000000000000000000000000004
:105CA00000000000000000000000001932194B4BFA
:105CB000690000000000000000000000000000007B
:105CC000000000000000001919000000004B4B4BC1
:105CD0004B4B6E00000000000000000000000000C0
:105CE00000000000000000000000000000000000B4
:105CF00000004B6969000000000000000000000087
:105D00000000000000000000000000000000000093
:105D1000000000004B4B6E0000000000000000007F
:105D20000000000000000000000000000000000073
:105D3000000000000000324B6E0000000000000078
:105D40000000000000000000000000000000000053
:105D50000000000000000019324B69000000000044
:105D60000000000000000000000000000000000033
:105D7000000000000000000000324B6469000303D3
:105D800003030303030303030303030303030303E3
:105D900003030303030303030303031C354E533AB6
:105DA00003030303030303030303030303030303C3
:105DB00003030303030303030303030303031C4E4F
:105DC000535A0303030303030303030303030303FC
:105DD0000303030303030303030303030303030393
:105DE0001C4E535A03030303030303030303030378
:105DF0000303030303030303030303030303030373
:105E000003031C4E535A0303030303030303030357
:105E10000303030303030303030303030303030352
:105E200003030303354E535A03030303030303031E
:105E30000303030303030303030303030303030332
:105E40000303031C3535354E535A03030303030381
:105E50000303030303030303030303030303030312
:105E600003031C1C03030303354E535A03030303AC
:105E700003030303030303030303030303030303F2
:105E800003031C35354E4E35354E4E533F5F0303ED
:105E900003030303030303030303030303030303D2
:105EA00003030303030303354E4E35533F3F405F67
:105EB00003030303030303030303030303030303B2
:105EC00003030303031C03031C4E4E4E4E3A3F3F95
:105ED000405F0303030303030303030303030303F9
:105EE00003030303030303030303354E351C354E3D
:105EF000533F3F5F0303030303030303030303034E
:105F0000030303030303030303030303033503032F
:105F100003354E53535A03030303030303030303DD
:105F20000303030303030303030303030303030341
:105F3000030303354E53535A0303030303030303BD
:105F400003030303030303031C354E4E4E4E4E352D
:105F500035351C1C354E4E53595F030303030303B1
:105F600003030303030303031C353535353535358A
:105F70004E4E4E4E4E4E4E535358595F030303033D
:105F800003030303030303030303030303030303E1
:105F900003031C4E4E4E535358585853535A030341
:105FA00003030303030303030303030303030303C1
:105FB000030303031C354E4E4E4E53534E4E535A5D
:105FC00003030303030303030303030303030303A1
:105FD00003030303030335354E4E4E35354E4E4E07
:105FE000535A0303030303030303030303030303DA
:105FF0000303030303030303030303030335354EC2
:106000004E4E4E5A03030303030303030303030328
:106010000303030303030303030303030303031C37
:106020001C354E4E4E5A03030303030303030303BD
:106030000303030303030303030303033535353568
:106040001C1C1C4E4E4E535A03030303030303034D
:10605000030303030303030303030303031C353593
:106060004E4E4E4E4E4E4E53535A030303030303FC
:1060700003030303030303031C1C030303030303BE
:106080001C354E4E4E5353535858585F0303030369
:1060900003030303030303030303033535353535D6
:1060A000354E4E4E4E4E4E5353535358585F030386
:1060B000030303030303030303030303031C4E4E01
:1060C0004E4E4E4E4E4E4E4E535353535858585FAD
:1060D0000303030303030303030303030303030390
:1060E000031C354E4E4E4E4E4E5353535358585D2F
:1060F0005D5F03030303030303030303031C0303A1
:1061000003030303353535354E4E4E535358585D12
:106110005D5E5F60030303030303030303030303E1
:106120000303030303351C0303031C4E4E4E535855
:106130005D5D5E5E5F60030303030303030303030C
:1061400003030303030303031C3503031C4E4E4EDA
:106150004E4E5358585D5E6003030303030303036D
:106160000303030303030303030303351C1C354E1E
:106170004E4E4E4E4E5353585E5F030303030303CC
:1061800003030303030303030303030303030303DF
:10619000031C4E4E4E4E4E5353585D5F0303030394
:1061A0000303030303030303030303030303031CA6
:1061B0001C03031C4E4E4E4E535353585D5F030356
:1061C000030303030303030303030303030303039F
:1061D0000303031C354E4E4E4E4E4E535858585FD7
:1061E000030303030303030303030303030303037F
:1061F000031C030303031C4E4E4E4E4E4E5353538B
:10620000535A0303030303030303030303030303B7
:1062100003030303031C35354E4E4E4E5353535860
:106220005858585F030303030303030303030303E3
:1062300003030303030303031C354E4E4E4E535317
:106240005858585D5D5F030303030303030303030F
:10625000030303031C1C1C1C35354E4E4E4E4E4E84
:106260004E535358585D5D5F030303030303030359
:106270000303030303031C353535351C1C030303DB
:106280001C354E4E4E53585D5E60030303030303FB
:1062900003030303030303030303030303030303CE
:1062A00003030303354E4E53585D5E60030303033F
:1062B00003030303030303030303030303030303AE
:1062C0000303030303031C4E4E53585D5D5F03033A
:1062D000030303030303030303030303030303038E
:1062E0000303033503030303354E4E535858585FD9
:1062F000030303030303030303030303030303036E
:10630000030303030303353535354E4E4E4E5353C9
:10631000585A0303030303030303030303030303A1
:106320000303030303030303033535353535354EC6
:106330004E534E5A030303030303030303030303F0
:1063400003030303030303030303030303030335EB
:10635000354E4E4E4E5A0303030303030303030358
:106360000303030303030303030303030303031CE4
:106370000303354E4E53585F030303030303030324
:1063800003030303030303030303030303030303DD
:106390000335351C4E4E53585E600303030303035D
:1063A00003030303030303030303030303030303BD
:1063B0000303031C4E4E5353585E5E6003030303F6
:1063C000030303030303030303030303030303039D
:1063D000030303030303031C354E585D595F030396
:1063E000030303030303030303030303030303037D
:1063F000030303030303030303031C3535534E5AFE
:10640000030303030303030303030303030303035C
:10641000030303030303030303030303030303351A
:106420004E5A03030303030303030303030303039A
:10643000030303030303030303030303030303032C
:1064400003354E5A03030303030303030303030348
:10645000030303030303030303030303030303030C
:1064600003030335535A0303030303030303030323
:1064700003030303030303030303030303030303EC
:10648000030303030335535A030303030303030303
:1064900003030303030303030303030303030303CC
:1064A0000303030303030335535A030303030303E3
:1064B00003030303030303030303030303030303AC
:1064C0000303030303030303034E535A03030303AA
:1064D000030303030303030303030303030303038C
:1064E00003030303030303031C1C354E535A030326
:1064F00003030303030303030303031C0303030353
:10650000030303030303031C351C1C1C1C4E585FB0
:10651000030303030303030303030303030303034B
:106520000303030303030303031C354E4E4E53586A
:106530005E60030303030303030303030303030373
:106540000303030303030303030303031C4E4E4E21
:10655000585D5E60030303030303030303030303A4
:106560000303030303030303030303030303353597
:106570001C1C4E53585F030303030303030303036D
:1065800003030303030303030303030303030303DB
:1065900003030303354E531C0303030303030303E5
:1065A000030303030303030303030303031C35353E
:1065B000351C1C0303033553581C03030303030357
:1065C000030303030303030303030303031C35351E
:1065D0003535354E4E4E53535358591C0303030360
:1065E000030303030303030303030303030303037B
:1065F0000303030303354E5353585853531C0303EB
:10660000030303030303030303030303030303035A
:106610000303030303031C354E4E4E534E4E531CCF
:10662000030303030303030303030303030303033A
:106630000303030303030303031C1C1C1C354E4EFE
:106640004E1C0303030303030303030303030303B6
:1066500003030303030303030303030303031C03F1
:10666000354E4E1C03030303030303030303030319
:106670000303030303030303030303031C35351C54
:106680001C1C4E4E531C03030303030303030303A9
:106690000303030303030303030303030303033598
:1066A0004E4E4E535353581C03030303030303037B
:1066B0000303030303030303030303351C1C1C35FB
:1066C000354E4E4E53535358581C030303030303D4
:1066D000030303030303030303030303031C4E4EDB
:1066E0004E4E4E4E4E4E53535358581C0303030305
:1066F000030303030303030303030303030303036A
:106700001C354E4E4E4E53535353585D5E2103037A
:106710000303030303030303030303030303030349
:106720000303031C1C031C4E4E53585D5D5E5F212A
:106730000303030303030303030303030303030329
:106740000303030303031C03034E4E4E53585D5DC6
:106750005E21030303030303030303030303030390
:1067600003030303030303031C1C1C354E4E4E4E50
:1067700053585D21030303030303030303030303CC
:10678000030303030303030303030303031C4E4E2A
:106790004E4E53585D210303030303030303030316
:1067A000030303030303030303030303031C35353C
:1067B0004E4E4E4E53585D1C030303030303030365
:1067C0000303030303030303030303030303030399
:1067D00003031C1C354E5358581C030303030303C7
:1067E0000303030303030303030303030303030379
:1067F00003030303030303354E4E531C0303030338
:106800000303030303030303030303030303030358
:106810000303030303030303031C354E531C030349
:106820000303030303030303030303030303030338
:106830000303030303030303030303031C4E531C5B
:106840000303030303030303030303030303030318
:1068500003030303030303030303030303031C4EA4
:10686000531C03030303030303030303030303038F
:1068700003030303030303030303030303030303E8
:10688000354E531C030303030303030303030303F2
:1068900003030303030303030303030303030303C8
:1068A000031C4E4E531C03030303030303030303A0
:1068B00003030303030303030303030303030303A8
:1068C000031C351C354E531C03030303030303034E
:1068D0000303030303030303030303030303031C6F
:1068E000351C1C03031C3553581C0303030303030B
:1068F0000303030303030303030303030303030368
:106900001C1C354E4E4E4E5353585E210303030359
:106910000303030303030303030303030303030347
:106920000303030303354E4E53585D5E5E2103039C
:106930000303030303030303030303030303030327
:106940000303031C03031C4E4E4E4E53585D5E2141
:106950000303030303030303030303030303030307
:106960000303030303030303354E1C03354E4E5844
:10697000581C030303030303030303030303030379
:1069800003030303030303030303031C030303358C
:106990004E53531C030303030303030303030303C3
:1069A000030303030303031C1C1C1C030303030353
:1069B00003354E53581C030303030303030303036C
:1069C00003030303030335354E4E4E4E4E4E4E35F4
:1069D0003535354E53535E2103030303030303038D
:1069E0000303030303031C1C1C0303031C1C354E7D
:1069F0004E53535358585858581C0303030303036A
:106A00000303030303030303030303030303030356
:106A100003354E5353535858534E531C030303032B
:106A20000303030303030303030303030303030336
:106A3000031C1C4E4E4E4E53534E4E4E531C0303DE
:106A40000303030303030303030303030303030316
:106A5000030303031C3535353535354E4E4E531C77
:106A600003030303030303030303030303030303F6
:106A70000303030303030303030303031C4E4E4EEC
:106A80004E1C030303030303030303030303030372
:106A90000303030303030303030303030303033594
:106AA0004E4E531C030303030303030303030303B7
:106AB0000303030303030303030335354E35353561
:106AC000354E4E53531C0303030303030303030315
:106AD0000303030303030303030303031C354E4EA5
:106AE0004E4E4E535353531C03030303030303033C
:106AF0000303030303031C1C03030303031C354E9E
:106B00004E4E4E5353535858581C0303030303036C
:106B1000030303030303030303354E4E4E4E4E4E51
:106B20004E4E4E4E535353535858581C03030303B1
