:100000000C94F4000C9415010C9415010C9415013A
:100010000C9415010C9415010C9415010C94150108
:100020000C9415010C9415010C9415010C941501F8
:100030000C9415010C9415010C9415010C941501E8
:100040000C9415010C9415010C9415010C941501D8
:100050000C9415010C9415010C9415010C941501C8
:100060000C9415010C9415010C9415010C941501B8
:100070000C9415010C9415010C9415010C941501A8
:100080000C9415010C9415010C9415010C94150198
:100090000C9415010C9415010C9415010C94150188
:1000A0000C9415010C9415010C9415010C94150178
:1000B0000C9415010C9415010C9415010C94150168
:1000C0000C9415010C9415010C9415010C94150158
:1000D0000C9415010C9415010C9415010C94150148
:1000E0000C9415010C9415010C9415010C94150138
:1000F0000C9415010C9415010C9415010C94150128
:100100000C9415010C9415010C9415010C94150117
:100110000C9415010C9415010C9415010C94150107
:100120000C9415010C9415010C9415010C941501F7
:100130000C9415010C9415010C9415010C941501E7
:100140000C9415010C9415010C9415010C941501D7
:100150000C9415010C9415010C9415010C941501C7
:100160000C9415010C9415010C9415010C941501B7
:100170000C9415010C9415010C9415010C941501A7
:100180000C9415010C9415010C9415010C94150197
:100190000C9415010C9415010C9415010C94150187
:1001A0000C9415010C9415010C9415010C94150177
:1001B0000C9415010C9415010C9415010C94150167
:1001C0000C9415010C9415010C9415010C94150157
:1001D0000C9415010C9415010C9415010C94150147
:1001E0000C9415010C94150111241FBECFEFDFE311
:1001F000DEBFCDBF00E00CBF10E2A0E0B0E2E8E956
:10020000F8E000E00BBF02C007900D92A033B107E9
:10021000D9F711E2A0E3B0E201C01D92A235B10707
:10022000E1F70E9481030C944A040C940000909121
:10023000440627E030E061E070E0482F50E0CB0159
:10024000022E02C0880F991F0A94E2F78423952397
:100250001816190614F490E201C090E09093440639
:10026000892F806880934406909344062150304043
:100270008FEF2F3F380719F7089580E00E9417018C
:1002800080E00E94170180E00E94170180E00E9438
:10029000170108958FEF0E9417018FEF0E94170139
:1002A0008FEF0E9417018FEF0E9417010895FF92B0
:1002B0000F931F93F82E062F142F8FEF0E94170114
:1002C000812F0E941701802F0E9417018F2D0E94FD
:1002D00017011F910F91FF9008959F92AF92BF92C7
:1002E000CF92DF92EF92FF920F931F93CF93DF9302
:1002F000982E5B016A0179010E943D01E80100E04E
:1003000010E019C08981882371F0F501E00FF11F19
:10031000D601A00FB11F9701200F311F80816C9172
:10032000F901408103C080E060E040E00E94570195
:100330000F5F1F4F2196091528F30E944A0188EB91
:100340009BE00197F1F7DF91CF911F910F91FF9003
:10035000EF90DF90CF90BF90AF909F90089521E0F5
:10036000853F920788F0672B09F04FC080917B2072
:100370008F5F80937B20823010F010927B2083E08F
:1003800090E060917B203DC08536910588F0672B19
:10039000E1F580914C218F5F80934C218D3018F0D6
:1003A00081E080934C2180E090E060914C2129C055
:1003B0000B9758F1672B49F58091C220813029F4C1
:1003C0001092C22080934F210CC080914F218F5FEB
:1003D00080934F218B3028F081E080934F218093D0
:1003E000C22080E090E060914C210E94270481E0CF
:1003F00090E060914F210E94270482E090E060919C
:10040000C2200E94270481E0089580E00895809131
:1004100088061092322085FD03C081E0809332204F
:1004200060913220613049F48091332090913420E2
:100430000196809333209093342080913120861749
:1004400011F020E008C0809133209091342070E0BA
:100450000E94AF01282F90913220992341F480917E
:100460003120882321F4109233201092342090936D
:100470003120822F08954F925F926F927F928F92D8
:100480009F92AF92BF92CF92DF92EF92FF920F9323
:100490001F93CF93DF93F82E562E8091302081301A
:1004A00009F4FBC0882499249A9444E6A42E34E6E7
:1004B000E32EBB24BA9422E3622E96E9792ECF2C48
:1004C000DD2482E0482EE5C037E03F1578F1409109
:1004D0004D2150914E214C0D5D1DC0913520D09184
:1004E0003620CC0DDD1DA0917C20B0917D20AC0D7F
:1004F000BD1D20E030E0B901685F7E4DFA018081CA
:10050000FB018083F901E258FF4D88818083F90166
:10051000E95CFF4D8C918083F901ED53FF4D4082E2
:100520002F5F3F4F2434310531F79CC0F9E0FF16AF
:10053000D1F1FF1528F038E0F31609F093C009C097
:100540008AE0F81609F459C09BE0F91609F08AC050
:100550006DC080917B20E8E0F1E2CEE7D0E2A7E336
:10056000B0E2813059F470821682B48678821E829D
:100570001C867C921696BC9216970AC060821682E0
:10058000E48668821E821C866C921696EC92169700
:100590001C961C921C9731962196119631E2EE30F2
:1005A000F307F9F65FC080917B20E8E0F1E2CEE747
:1005B000D0E2A7E3B0E2813059F4B0821182128216
:1005C00018821982BA821C921196BC9211970AC0A5
:1005D000E0821182128218821982EA821C9211969C
:1005E000EC92119712961C921297339623961396BB
:1005F00091E2EA31F907F9F635C080917B20E8E015
:10060000F1E2CEE7D0E2A7E3B0E2813021F4B0829C
:100610009882BC9203C0E082A882EC923196219627
:10062000119631E2EA31F30781F71CC020917B205B
:10063000992D90958E2D8A19E8E0F1E2CEE7D0E26F
:10064000A7E3B0E2213021F4108298839C9203C08A
:1006500010828883AC9231962196119631E2EA316C
:10066000F30781F70E94070292EF990EE9EFAE0EB1
:10067000813019F48093302010C084E468E071E286
:100680004EE750E227E330E203EC10E20E946D01F6
:100690008394851408F418CF80E0DF91CF911F91E7
:1006A0000F91FF90EF90DF90CF90BF90AF909F9011
:1006B0008F907F906F905F904F900895EF92FF9290
:1006C0000F931F93CF93DF93F82E03EC10E2C0E05B
:1006D000D0E0EE24E39403C0F80111928F01F801F9
:1006E000E08280914F216F2D0E943B022196C434FD
:1006F000D10591F7DF91CF911F910F91FF90EF906E
:1007000008958F929F92AF92BF92CF92DF92EF9215
:10071000FF920F931F93CF93DF9380E090E00E94AE
:100720001704182F80934C2181E090E00E94170459
:10073000F82E80934F2182E090E00E941704082F4A
:100740008093C22083E090E00E941704982F80934A
:100750007B201D3018F081E080934C218AE08F15BA
:1007600018F481E080934F21023010F01092C220E3
:10077000923018F081E080937B208FEF80932006E9
:10078000109224068093400610924406E8E18E2ED3
:10079000E0E29E2E70E2A72E70E2B72E68E2C62E2F
:1007A00060E2D62E50E0E52E50E2F52EC8E0D0E211
:1007B00000E110E280913020882341F080914C21AB
:1007C0008F5F8D3008F081E080934C2110923020B3
:1007D00084E690E00E945E039091C220913049F43B
:1007E00080914F218F5F80934F218B3010F0909339
:1007F0004F2180917B20813069F4E0924D21F0926D
:100800004E21C0933520D093362000937C20109346
:100810007D20D0CF80924D2190924E21A092352004
:10082000B0923620C0927C20D0927D20C3CF03D0DE
:10083000808199270895E0ECF1E0378537FDFDCF01
:10084000348538603487FC01E050F04F0895262F3E
:10085000E0ECF1E0378537FDFDCF3485377F348715
:10086000378531FF09C036E3328738ED34BF31E0D8
:100870003387378537FDFDCF33E33287808391831C
:100880001282248325E3228728ED31E024BF3387B9
:0808900001960895F894FFCFD2
:1008980000FFFF000000FFFF0000FFFFFF0000FF58
:1008A80000000000FFFFFFFF0064640000006464B4
:1008B8000000646464000064000000006464646410
:00000001FF
