:100000000C9406010C9427010C9427010C942701F1
:100010000C9427010C9427010C9427010C942701C0
:100020000C9427010C9427010C9427010C942701B0
:100030000C9427010C9427010C9427010C942701A0
:100040000C9427010C9427010C9427010C94270190
:100050000C9427010C9427010C9427010C94270180
:100060000C9427010C9427010C9427010C94270170
:100070000C9427010C9427010C9427010C94270160
:100080000C9427010C9427010C9427010C94270150
:100090000C9427010C9427010C9427010C94270140
:1000A0000C9427010C9427010C9427010C94270130
:1000B0000C9427010C9427010C9427010C94270120
:1000C0000C9427010C9427010C9427010C94270110
:1000D0000C9427010C9427010C9427010C94270100
:1000E0000C9427010C9427010C9427010C942701F0
:1000F0000C9427010C9427010C9427010C942701E0
:100100000C9427010C9427010C9427010C942701CF
:100110000C9427010C9427010C9427010C942701BF
:100120000C9427010C9427010C9427010C942701AF
:100130000C9427010C9427010C9427010C9427019F
:100140000C9427010C9427010C9427010C9427018F
:100150000C9427010C9427010C9427010C9427017F
:100160000C9427010C9427010C9427010C9427016F
:100170000C9427010C9427010C9427010C9427015F
:100180000C9427010C9427010C9427010C9427014F
:100190000C9427010C9427010C9427010C9427013F
:1001A0000C9427010C9427010C9427010C9427012F
:1001B0000C9427010C9427010C9427010C9427011F
:1001C0000C9427010C9427010C9427010C9427010F
:1001D0000C9427010C9427010C9427010C942701FF
:1001E0000C9427010C9427010C9427010C942701EF
:1001F0000C9427010C9427010C9427010C945802AD
:100200000C946B010C9486010C94440511241FBEC0
:10021000CFEFCDBFDFE3DEBF00E00CBF10E2A0E018
:10022000B0E2E0E5FCE000E00BBF02C007900D92F9
:10023000A233B107D9F720E2A2E3B0E201C01D92D8
:10024000A03BB207E1F70E943E050C9426060C94F1
:1002500000009091440627E030E061E070E0482F14
:1002600050E0CB01022E02C0880F991F0A94E2F7DA
:1002700084239523892B11F090E201C090E09093A4
:100280004406892F80688093440690934406215049
:10029000310938F7089580E00E94290180E00E942A
:1002A000290180E00E94290180E00E94290108952F
:1002B0008FEF0E9429018FEF0E9429018FEF0E948A
:1002C00029018FEF0E9429010895A2E0B0E0EBE63A
:1002D000F1E00C94D105182F8FEF49836A830E94B7
:1002E00029014981842F0E9429016A81862F0E9459
:1002F0002901812F0E9429012296E3E00C94EA054E
:10030000A0E0B0E0E6E8F1E00C94C805E82E6B014F
:100310005A0149010E944B010F5F1F4FF12CC0E0B1
:10032000D0E0CE15DF05C9F0F80181918F01882357
:1003300069F0F401EC0FFD1F4081F501EC0FFD1F8A
:100340006081F601EC0FFD1F808103C040E060E09A
:1003500080E00E9465012196E4CF0E94580188EB5D
:100360009BE00197F1F7CDB7DEB7ECE00C94E10527
:10037000E9E7F0E289E18E0F11928E13FDCF089527
:10038000E9E7F0E291E089E18E0F91938E13FDCFC2
:100390000895853F21E0920790F0672B09F04DC04A
:1003A00080915D208F5F823018F480935D2002C0C1
:1003B00010925D2060915D2080E090E03AC085362B
:1003C000910578F0672BC9F58091AA208F5F8D3059
:1003D00008F081E08093AA206091AA2083E090E059
:1003E00028C00B9750F1672B41F580917820813020
:1003F00019F41092782005C08091AD208F5F8B306A
:1004000018F48093AD2005C081E08093AD208093E7
:1004100078206091AA2083E090E00E94030660911A
:10042000AD2082E090E00E9403066091782081E098
:1004300090E00E94030681E0089580E00895809195
:10044000280684FF03C01092352003C081E080930A
:10045000352060913520613049F4809133209091AE
:100460003420019680933320909334208091322061
:10047000861308C070E080913320909134200E9450
:10048000C90101C080E090913520911108C02091F0
:100490003220211104C01092332010923420909306
:1004A00032200895A0E0B0E0E8E5F2E00C94C20547
:1004B000D82F80914220813009F42DC187E0689FB8
:1004C000802C1124E12CBB24BA9482E990E2C4E68A
:1004D000FF24FA94B2E1AB2EA80ECD2ED12C98E1D8
:1004E000992E980EE81409F415C1D83080F5809142
:1004F000AB209091AC208C0D9D1DA0914320B0911C
:1005000044202D014C0C5D1C00915E2010915F2059
:100510000C0D1D1D60E670E245E450E229E730E273
:10052000E2E9F0E2A2E07A2EDC016C906192D20165
:100530006C90DB016D92BD01D8016C90DA016D9277
:10054000AD01D9017D929D019E12EECFCCC0D93074
:1005500009F45BC0A0F4D83009F0C5C050905D200C
:1005600022E930E2A0E6B0E295E4292E90E2392EAD
:1005700080E090E042E3742E56E9652E2CC0DA301C
:1005800009F482C0DB3009F0AEC020915D203E2D21
:10059000330F4C2F4E1980E690E265E470E2E2E9F9
:1005A000F0E299C0F9017082F8011682C4877C924A
:1005B000FB0116821486F1017082FA01C68314864B
:1005C00001962F5F3F4F1196FFEF2F1A3F0A86309B
:1005D000910509F488C08C010E561F4DBC01605A6C
:1005E0007F4DAC014B5B5F4DE1E05E12DBCFF9016B
:1005F0006082F8011682F4866C92FB0116821486E2
:10060000F1016082FA01F682DACF70905D2022E972
:1006100030E2A0E6B0E285E4482E80E2582E80E089
:1006200090E08C010E561F4DBC01605A7F4DAC010D
:100630004B5B5F4D66246394F90176100DC0F08228
:10064000F801118212821C92FB011182F282F201E6
:100650001082FA01F1820CC0C083F801118212826B
:100660001C92FB011182C283F2011082FA01C18344
:1006700012822D5F3F4F03961396F3E04F0E511CED
:100680008231910571F62FC020915D203C2F3E19DB
:1006900080E690E245E450E2E2E9F0E2213031F414
:1006A000F082DC01BC92DA01FC9205C0C083DC015F
:1006B0003C93DA01CC93319601964F5F5F4FAE12B7
:1006C000EDCF11C0EC92DB014C93319601966F5F38
:1006D0007F4FAE1641F01082DC01213099F73C9338
:1006E000DB01BC92F2CF0E941F02B2EFBB0EE7E02B
:1006F000EE0E813019F4809342200DC009E710E21C
:1007000025E430E240E650E262E970E288E10E94CE
:100710008001E8CE80E0CDB7DEB7E2E10C94DB05E6
:100720000E94C0016AE08091AD200E9452020895AB
:100730000E94C0016AE08091AD200E9452020E9496
:10074000B8016AE08091AD200E9452020895CF93D3
:10075000DF93CAE7D0E2FE0181E091E08D3010F432
:10076000908301C010828F5F31968931B9F76AE0BA
:100770008091AD200E94520281E091E08D3010F412
:10078000188201C098838F5F21968931B9F76AE09A
:100790008091AD200E945202DF91CF910895809107
:1007A00040209091412028E130E0281B390B81E066
:1007B00090E041E0FC01E758FF4D8130910529F0C0
:1007C0008217930711F0883111F4408301C0108221
:1007D00001968931910571F76AE08091AD200E9400
:1007E00052028091402090914120019689319105DB
:1007F00028F4809340209093412008951092402047
:1008000010924120089520913E2030913F2081E0B8
:1008100090E041E0FC01E758FF4D2817390710F43C
:10082000883111F4408301C010820196893191050D
:1008300089F76AE08091AD200E94520280913E20AB
:1008400090913F2001968931910528F480933E20B4
:1008500090933F20089510923E2010923F200895DB
:10086000EAE7F0E281E091E081FF02C0908301C0FD
:1008700010828F5F31968931B9F76AE08091AD209F
:100880000E94520280913C2090913D200196893136
:10089000910528F480933C2090933D200895109278
:1008A0003C2010923D20089540913A2050913B20E9
:1008B00028E130E0241B350B81E090E061E0FC0191
:1008C000E758FF4D4817590728F48217930710F48B
:1008D000608301C0108201968931910581F76AE039
:1008E0008091AD200E94520280913A2090913B204D
:1008F00001968D30910528F480933A2090933B2007
:10090000089510923A2010923B200895409138208B
:100910005091392028E130E0241B350B81E090E034
:1009200061E0FC01E758FF4D8417950718F0281780
:10093000390710F4608301C0108201968931910556
:1009400081F76AE08091AD200E94520280913820A8
:100950009091392001968D30910528F480933820AC
:1009600090933920089510923820109239200895DC
:100970002091362030913720E9E7F0E280E090E0E6
:1009800041E0BC0162237323672B11F0408301C057
:100990001082019631968831910599F76AE080912D
:1009A000AD200E945202809136209091372001960E
:1009B0008931910528F4809336209093372008954B
:1009C00010923620109237200895809101200E94C5
:1009D0000B05809100208F5F809300208B3040F0CA
:1009E0008091AD208F5F8093AD2081E080930020C7
:1009F0008091AD208B3040F0809101208F5F8093FB
:100A0000012081E08093AD20809101208C3010F096
:100A1000109201200895823039F0833041F0813006
:100A200049F40E94900308950E94980308950E943B
:100A3000A7030895853039F0863041F0843049F4B9
:100A40000E94CF0308950E94030408950E94300479
:100A50000895873029F0883031F40E948604089583
:100A60000E94540408958B3019F08C3021F00895C1
:100A70000E94B80408950E94E5040895A0E0B0E043
:100A8000E4E4F5E00C94C80583E090E00E94F305EF
:100A9000182F8093AA2082E090E00E94F305D82FBF
:100AA0008093AD2081E090E00E94F305C82F8093F1
:100AB000782080E090E00E94F305982F80935D20DD
:100AC0001D3018F081E08093AA20DB3018F081E01F
:100AD0008093AD20C23010F010927820923018F040
:100AE00081E080935D208FEF809320061092240692
:100AF000809340061092440682E1E82E80E2F82EB0
:100B00000AE010E2C2E0D0E29AE2C92E90E2D92EC9
:100B100022E2A22E20E2B22E3AE1832E30E2932E80
:100B2000109242208091AA200E940B05909178207B
:100B3000913051F48091AD208F5F8B3018F4809309
:100B4000AD2002C09093AD2080915D20813069F48A
:100B5000C092AB20D092AC20A0924320B09244200F
:100B600080925E2090925F20DBCFE092AB20F092EB
:100B7000AC200093432010934420C0935E20D09378
:100B80005F20CECF2F923F924F925F926F927F92D3
:100B90008F929F92AF92BF92CF92DF92EF92FF928D
:100BA0000F931F93CF93DF93CDB7DEB7CA1BDB0B39
:100BB000CDBFDEBF19942A88398848885F846E8447
:100BC0007D848C849B84AA84B984C884DF80EE8071
:100BD000FD800C811B81AA81B981CE0FD11DCDBFB3
:100BE000DEBFED01089503D0808199270895E0ECE0
:100BF000F1E0378537FDFDCF348538603487FC015F
:100C0000E050F04F0895262FE0ECF1E0378537FDF6
:100C1000FDCF3485377F3487378531FF09C036E310
:100C2000328738ED34BF31E03387378537FDFDCF6C
:100C300033E33287808391831282248325E32287E2
:100C400028ED31E024BF338701960895F894FFCF53
:100C500001010000000064646464000064646400D6
:100C60000064006464000000646400000000FFFF92
:100C7000FFFF0000FFFFFF0000FF00FFFF0000007C
:020C8000FFFF74
:00000001FF
