:100000000C94F8060C9419070C9419070C94190712
:100010000C9419070C9419070C9419070C941907E0
:100020000C9419070C9419070C9419070C941907D0
:100030000C9419070C9419070C9419070C941907C0
:100040000C9419070C9419070C9419070C941907B0
:100050000C9419070C9419070C9419070C941907A0
:100060000C9419070C9419070C9419070C94190790
:100070000C9419070C9419070C9419070C94190780
:100080000C9419070C9419070C9419070C94190770
:100090000C9419070C9419070C9419070C94190760
:1000A0000C9419070C9419070C9419070C94190750
:1000B0000C9419070C9419070C9419070C94190740
:1000C0000C9419070C9419070C9419070C94190730
:1000D0000C9419070C9419070C9419070C94190720
:1000E0000C9419070C9419070C9419070C94190710
:1000F0000C9419070C9419070C9419070C94190700
:100100000C9419070C9419070C9419070C941907EF
:100110000C9419070C9419070C9419070C941907DF
:100120000C9419070C9419070C9419070C941907CF
:100130000C9419070C9419070C9419070C941907BF
:100140000C9419070C9419070C9419070C941907AF
:100150000C9419070C9419070C9419070C9419079F
:100160000C9419070C9419070C9419070C9419078F
:100170000C9419070C9419070C9419070C9419077F
:100180000C9419070C9419070C9419070C9419076F
:100190000C9419070C9419070C9419070C9419075F
:1001A0000C9419070C9419070C9419070C9419074F
:1001B0000C9419070C9419070C9419070C9419073F
:1001C0000C9419070C9419070C9419070C9419072F
:1001D0000C9419070C9419070C9419070C9419071F
:1001E0000C9419070C9419078807AC07D107F60778
:1001F0001B08400865088A08AF08D408F9081E09DA
:10020000430969098F09B509DB09010A270A4D0A63
:10021000730A270C410C5C0C770C920CAD0CC80CCB
:10022000E30CFF0C1B0D370D520D6E0D890DA50D46
:10023000C10DDC0DF80D140E2F0E4B0E660E820E46
:100240009E0EBA0ED50EF00E0B0F270F430F5F0F49
:100250007A0F950FB10FCD0FE90F051021103D104A
:100260005A1077109310AF10CC10E810051121111F
:100270003D115A1177119311AE11CA11E5110112F6
:100280001D123912551271128E12AB12C612E212E1
:10029000FD121913351351136E138A13A613C313CA
:1002A000DF13FC131814351451146C148814A4149F
:1002B000BF14DB14F714131530154C15691585158B
:1002C000A215BE15DA15F71512162E164A16651662
:1002D00081169D16BA16D716F3160F172A1746174A
:1002E00062177E179917B517D117EE170B18271835
:1002F000431860187C189918B518D118EE180B1906
:10030000271943195E197A199619B2196400000069
:1003100000000000000000000000000000000000DD
:100320000000000000000000000000000000006469
:10033000690069006E005A005A005A0046002D00FC
:1003400014000F0010000C00070008000300040058
:100350000064690069006E005A005A005A004600A5
:100360002D0014000F0010000C000700080003000F
:1003700004000064690069006E005A005A005A00C7
:1003800046002D0014000F0010000C0007000800AC
:10039000030004000064690069006E005A005A00FE
:1003A0005A0046002D0014000F0010000C0007003A
:1003B0000800030004000064690069006E005A0030
:1003C0005A005A0046002D0014000F0010000C00C7
:1003D00007000800030004000064690069006E0063
:1003E0005A005A005A0046002D0014000F00100059
:1003F0000C000700080003000400000000000000DB
:1004000000000000000000000000000000000000EC
:1004100000000000000000000000000000000000DC
:1004200069006E005A005A005A0046002D00140060
:100430000F0010000C00070008000300040000007B
:10044000000069006E005A005A005A0046002D0054
:1004500014000F0010000C00070008000300040047
:100460000000000069006E005A005A005A00460061
:100470002D0014000F0010000C00070008000300FE
:1004800004000000000069006E005A005A005A0083
:1004900046002D0014000F0010000C00070008009B
:1004A000030004000000000069006E005A005A00BA
:1004B0005A0046002D0014000F0010000C00070029
:1004C000080003000400000000000000000000001D
:1004D000000000000000000000000000000000001C
:1004E00000000000000000000064640069006E006D
:1004F0005A005A005A0046002D0014000F00100048
:100500000C00070008000300040000646400690098
:100510006E005A005A005A0046002D0014000F00C9
:1005200010000C00070007000300040000646400D2
:1005300069006E005A005A005A0046002D0014004F
:100540000F0010000C000700070003000400006407
:10055000640069006E005A005A005A0046002D00DF
:1005600014000F0010000C00070007000300040037
:100570000064640069006E005A005A005A00460088
:100580002D0014000F0010000C00070007000300EE
:1005900004000064640069006E005A005A005A00AA
:1005A00046002D0014000F0010000B00070007008C
:1005B000030004000064640069006E005A005A00E1
:1005C0005A0046002D0014000F0010000B00070019
:1005D000070003000400000000000000000000000D
:1005E000000000000000000000000000000000000B
:1005F00000000000000000000000000000000000FB
:1006000000000000000046002D0014000F00100044
:100610000B000700070003000400000000000000BA
:10062000000000000000000046002D0014000F0034
:1006300010000B000700070003000400000000008A
:100640000000000000000000000046002D00140023
:100650000F0010000B00070007000300040000005B
:1006600000000000000000000000000046002D0017
:1006700014000F0010000B00070007000300040027
:100680000000000000000000000000000000460024
:100690002D0014000F0010000B00070007000300DE
:1006A0000400000000000000000000000000000046
:1006B000000000000000000000000000000000003A
:1006C0000000000000000000000000005A005A0076
:1006D0005A0046002D0014000F0010000B00070008
:1006E00007000300040000000000000000005A00A2
:1006F0005A005A0046002D0014000F0010000B0095
:1007000007000700030004000000000000000000D4
:100710005A005A005A0046002D0014000F00100025
:100720000B000700070003000400000000000000A9
:1007300000005A005A005A0046002D0014000F0015
:1007400010000B0007000700030004000000000079
:10075000000000005A005A005A0046002D00140004
:100760000F0010000B00070007000300040000004A
:100770000000000000005A005A005A0046002D00F8
:1007800014000F0010000B00070007000300040016
:100790000000000000000000000000000000000059
:1007A0000000000000000000000000000000000049
:1007B00000000000000069006E005A005A005A0054
:1007C00046002D0014000F0010000B00070007006A
:1007D000030004000000000069006E005A005A0087
:1007E0005A0046002D0014000F0010000B000700F7
:1007F0000700030004000000000069006E005A00BA
:100800005A005A0046002D0014000F0010000B0083
:1008100007000700030004000000000069006E00EC
:100820005A005A005A0046002D0014000F00100014
:100830000B0007000700030004000000000069002F
:100840006E005A005A005A0046002D0014000F0096
:1008500010000B0007000700030004000000000068
:1008600069006E005A005A005A0046002D0014001C
:100870000F0010000B000700070003000400000039
:100880000000000000000000000000000000000068
:100890000000000000000000000000000000000058
:1008A0000000000000000000000000005A004600A8
:1008B0002D0014000F0010000B00070007000300BC
:1008C00004000000000000000000000000005A00CA
:1008D00046002D0014000F0010000B000700070059
:1008E0000300040000000000000000000000000001
:1008F0005A0046002D0014000F0010000B000700E6
:1009000007000300040000000000000000000000D9
:1009100000005A0046002D0014000F0010000B00CC
:1009200007000700030004000000000000000000B2
:10093000000000005A0046002D0014000F001000B7
:100940000B00070007000300040000000000000087
:100950000000000000005A0046002D0014000F00A7
:1009600010000B0007000700030004000000000057
:100970000000000000000000000000000000000077
:100980000000000000000000000000000000000067
:1009900000000000000000000000000000002D002A
:1009A00014000F0010000B000700070003000400F4
:1009B0000000000000000000000000000000000037
:1009C0002D0014000F0010000B00070007000300AB
:1009D0000400000000000000000000000000000013
:1009E00000002D0014000F0010000B00070007008E
:1009F00003000400000000000000000000000000F0
:100A0000000000002D0014000F0010000B00070074
:100A100007000300040000000000000000000000C8
:100A20000000000000002D0014000F0010000B005B
:100A300007000700030004000000000000000000A1
:100A400000000000000000002D0014000F00100046
:100A50000B00070007000300040000000000000076
:100A60000000000000000000000000000000000086
:100A70000000000000000000000000000000000076
:100A80000000000000000000000000000000140052
:100A90000F0010000B000700070003000400000017
:100AA0000000000000000000000000000000000046
:100AB00014000F0010000B000C00070003000400DE
:100AC0000000000000000000000000000000000026
:100AD000000014000F0010000B00070007000300C7
:100AE0000400000000000000000000000000000002
:100AF0000000000014000F0010000B000C000700A5
:100B000003000400000000000000000000000000DE
:100B100000000000000014000F0010000B00070090
:100B200007000300040000000000000000000000B7
:100B300000000000000000000000000000000000B5
:100B400000000000000000000000000000000000A5
:100B50005A005A005A0046002D0014000F001000E1
:100B60000B000C0007000300040000000000000060
:100B700000005A005A005A0046002D0014000F00D1
:100B800010000B000C000700030004000000000030
:100B9000000000005A005A005A0046002D001400C0
:100BA0000F0010000B000C00070003000400000001
:100BB0000000000000005A005A005A0046002D00B4
:100BC00014000F0010000B000C00070003000400CD
:100BD00000000000000000005A005A005A004600C1
:100BE0002D0014000F0010000B000C000700030084
:100BF000040000000000000000005A005A005A00E3
:100C000046002D0014000F0010000B000C00070020
:100C100003000400000000000000000000000000CD
:100C200000000000000000000000000000000000C4
:100C30000000000000000064640069006E005A00BB
:100C40005A005A0046002D0014000F0010000B003F
:100C50000C000700030004000064640069006E00DB
:100C60005A005A005A0046002D0014000F001000D0
:100C70000B000C000700030004000064640069001E
:100C80006E005A005A005A0046002D0014000F0052
:100C900010000B000C000700030004000064640057
:100CA00069006E005A005A005A0046002D001400D8
:100CB0000F0010000B000C0007000300040000648C
:100CC000640069006E005A005A005A0046002D0068
:100CD00014000F0010000B000C00070003000400BC
:100CE0000064640069006E005A005A005A00460011
:100CF0002D0014000F0010000B000C000700030073
:100D000004000000000000000000000000000000DF
:100D100000000000000000000000000000000000D3
:100D2000000000000064640069006E005A005A0070
:100D30005A0046002D0014000F0010000B000C009C
:100D40000700030004000064640069006E005A009C
:100D50005A005A0046002D0014000F0010000B002E
:100D60000C000700030004000064640069006E00CA
:100D70005A005A005A0046002D0014000F001000BF
:100D80000B000C000700030004000064640069000D
:100D90006E005A005A005A0046002D0014000F0041
:100DA00010000B000C000700030004000064640046
:100DB00069006E005A005A005A0046002D001400C7
:100DC0000F0010000B000C0007000300040000647B
:100DD000640069006E005A005A005A0046002D0057
:100DE00014000F0010000B000C00070003000400AB
:100DF00011241FBECFEFDFE3DEBFCDBF00E00CBF8D
:100E000010E2A0E0B0E2EAE2F9E300E00BBF02C0CA
:100E100007900D92A230B107D9F710E2A2E0B0E23C
:100E200001C01D92A83DB107E1F70E94DB1B0C94A5
:100E3000931C0C9400009091440627E030E061E0A0
:100E400070E0482F50E0CB01022E02C0880F991F9E
:100E50000A94E2F7842395231816190614F490E2F5
:100E600001C090E090934406892F806880934406E7
:100E700090934406215030408FEF2F3F380719F7E9
:100E8000089580E00E941B0780E00E941B0780E01D
:100E90000E941B0780E00E941B0708958FEF0E94AD
:100EA0001B078FEF0E941B078FEF0E941B078FEF1E
:100EB0000E941B0708958FE080935000E0E4F0E06B
:100EC000118288E1E0E5F0E0858380915000806147
:100ED000809350008091510084FFFCCF88ED84BF47
:100EE00084E0809340000895E82FFF27E7FDF09508
:100EF000E531F10508F09AC4EC50FF4F862F992791
:100F000087FD9095EE0FFF1F0590F491E02D199449
:100F1000FC011816190614F0E1E0F0E0E534F105E3
:100F200014F0E4E4F0E03197DF01AC56BF4D1C92C1
:100F3000DF01A05BBF4D1C92E85FFF4D1082862F42
:100F4000992787FD9095E4E4F0E0E81BF90B1E1665
:100F50001F060CF4F0C2EDC2DC011816190614F0DD
:100F6000A1E0B0E0A534B10514F0A4E4B0E011971D
:100F7000FD01EC56FF4D8FEF8083FD01E05BFF4DDF
:100F80001082A85FBF4D1C92862F992787FD9095F0
:100F9000A4E4B0E0A81BB90B1A161B060CF4DCC2C3
:100FA000D9C2DC011816190614F0A1E0B0E0A5348E
:100FB000B10514F0A4E4B0E01197FD01EC56FF4D2B
:100FC0001082FD01E05BFF4D8FEF8083A85FBF4D76
:100FD0001C92862F992787FD9095A4E4B0E0A81B6A
:100FE000B90B1A161B060CF4C4C2C1C2DC011816D8
:100FF000190614F0A1E0B0E0A534B10514F0A4E4A2
:10100000B0E01197FD01EC56FF4D1082FD01E05B51
:10101000FF4D1082A85FBF4D8FEF8C93862F9927CD
:1010200087FD9095A4E4B0E0A81BB90B1A161B0627
:101030000CF4B0C2ADC2DC011816190614F0A1E020
:10104000B0E0A534B10514F0A4E4B0E01197FD01BF
:10105000EC56FF4D8FEF8083FD01E05BFF4D8083F9
:10106000A85FBF4D1C92862F992787FD9095A4E419
:10107000B0E0A81BB90B1A161B060CF498C295C257
:10108000DC011816190614F0A1E0B0E0A534B10592
:1010900014F0A4E4B0E01197FD01EC56FF4D10826E
:1010A000FD01E05BFF4D8FEF8083A85FBF4D8C9308
:1010B000862F992787FD9095A4E4B0E0A81BB90B73
:1010C0001A161B060CF484C281C2DC01181619061C
:1010D00014F0A1E0B0E0A534B10514F0A4E4B0E050
:1010E0001197FD01EC56FF4D8FEF8083FD01E05B12
:1010F000FF4D1082A85FBF4D8C93862F992787FDE7
:101100009095A4E4B0E0A81BB90B1A161B060CF4CA
:1011100070C26DC2DC011816190614F0A1E0B0E02F
:10112000A534B10514F0A4E4B0E01197FD01EC562C
:10113000FF4D8FEF8083FD01E05BFF4D8083A85F53
:10114000BF4D8C93862F992787FD9095A4E4B0E03E
:10115000A81BB90B1A161B060CF45DC25AC2DC019F
:101160001816190614F0A1E0B0E0A534B10514F08A
:10117000A4E4B0E01197FD01EC56FF4D80E88083B8
:10118000FD01E05BFF4D1082A85FBF4D1C92862FD2
:10119000992787FD9095A4E4B0E0A81BB90B1A1617
:1011A0001B060CF445C242C2DC011816190614F0E5
:1011B000A1E0B0E0A534B10514F0A4E4B0E01197CB
:1011C000FD01EC56FF4D1082FD01E05BFF4D80E814
:1011D0008083A85FBF4D1C92862F992787FD90952D
:1011E000A4E4B0E0A81BB90B1A161B060CF432C21B
:1011F0002FC2DC011816190614F0A1E0B0E0A534E6
:10120000B10514F0A4E4B0E01197FD01EC56FF4DD8
:101210001082FD01E05BFF4D1082A85FBF4D80E8AA
:101220008C93862F992787FD9095A4E4B0E0A81BA6
:10123000B90B1A161B060CF422C21FC2DC011816C9
:10124000190614F0A1E0B0E0A534B10514F0A4E44F
:10125000B0E01197FD01EC56FF4D80E88083FD0161
:10126000E05BFF4D8083A85FBF4D8C93862F99274D
:1012700087FD9095A4E4B0E0A81BB90B1A161B06D5
:101280000CF40AC207C2FC011816190614F0E1E0BA
:10129000F0E0E534F10514F0E4E4F0E03197DF012B
:1012A000AC56BF4D8FEF8C93DF01A05BBF4D80E844
:1012B0008C93E85FFF4D1082862F992787FD9095CC
:1012C000E4E4F0E0E81BF90B1E161F060CF4F8C16D
:1012D000F5C1FC011816190614F0E1E0F0E0E53460
:1012E000F10514F0E4E4F0E03197DF01AC56BF4DB6
:1012F00080E88C93DF01A05BBF4D8FEF8C93E85F9C
:10130000FF4D1082862F992787FD9095E4E4F0E049
:10131000E81BF90B1E161F060CF4E4C1E1C1DC0149
:101320001816190614F0A1E0B0E0A534B10514F0C8
:10133000A4E4B0E01197FD01EC56FF4D8FEF8083E0
:10134000FD01E05BFF4D1082A85FBF4D80E88C93EC
:10135000862F992787FD9095A4E4B0E0A81BB90BD0
:101360001A161B060CF4D4C1D1C1DC0118161906DB
:1013700014F0A1E0B0E0A534B10514F0A4E4B0E0AD
:101380001197FD01EC56FF4D80E88083FD01E05B85
:10139000FF4D1082A85FBF4D8FEF8C93862F99274A
:1013A00087FD9095A4E4B0E0A81BB90B1A161B06A4
:1013B0000CF4C0C1BDC1DC011816190614F0A1E07F
:1013C000B0E0A534B10514F0A4E4B0E01197FD013C
:1013D000EC56FF4D1082FD01E05BFF4D80E88083FD
:1013E000A85FBF4D8FEF8C93862F992787FD90952F
:1013F000A4E4B0E0A81BB90B1A161B060CF4ACC190
:10140000A9C1DC011816190614F0A1E0B0E0A5345A
:10141000B10514F0A4E4B0E01197FD01EC56FF4DC6
:101420001082FD01E05BFF4D8FEF8083A85FBF4D11
:1014300080E88C93862F992787FD9095A4E4B0E0EF
:10144000A81BB90B1A161B060CF49BC198C1FC0112
:101450001816190614F0E1E0F0E0E534F10514F097
:10146000E4E4F0E03197DF01AC56BF4D8FEF8C9391
:10147000DF01A05BBF4D80E48C93E85FFF4D80836C
:10148000862F992787FD9095E4E4F0E0E81BF90B9F
:101490001E161F060CF48BC188C1FC011816190614
:1014A00014F0E1E0F0E0E534F10514F0E4E4F0E0FC
:1014B0003197DF01AC56BF4D90E49C93DF01A05BF8
:1014C000BF4D8FEF8C93E85FFF4D9083862F992758
:1014D00087FD9095E4E4F0E0E81BF90B1E161F066B
:1014E0000CF47BC178C1DC011816190614F0A1E0D8
:1014F000B0E0A534B10514F0A4E4B0E01197FD010B
:10150000EC56FF4D80E48083FD01E05BFF4D80835E
:10151000A85FBF4D8FEF8C93862F992787FD9095FD
:10152000A4E4B0E0A81BB90B1A161B060CF46BC19F
:1015300068C1E1E0F0E0E534F10514F0E4E4F0E046
:101540003197DF01AC56BF4D1C92DF01A05BBF4D50
:101550001C92D8C0A1E0B0E0A534B10514F0A4E419
:10156000B0E01197FD01EC56FF4D8FEF6BC0A1E08D
:10157000B0E0A534B10514F0A4E4B0E01197FD018A
:10158000EC56FF4D1082FD01E05BFF4D8FEF70C008
:10159000A1E0B0E0A534B10514F0A4E4B0E01197E7
:1015A000FD01EC56FF4D1082D0C0A1E0B0E0A534A3
:1015B000B10514F0A4E4B0E01197FD01EC56FF4D25
:1015C0008FEF8083FD01E05BFF4D52C0A1E0B0E0F2
:1015D000A534B10514F0A4E4B0E01197FD01EC5678
:1015E000FF4D1082FD01E05BFF4D8FEF63C0A1E076
:1015F000B0E0A534B10514F0A4E4B0E01197FD010A
:10160000EC56FF4D8FEF8083FD01E05BFF4D1082B4
:1016100052C0A1E0B0E0A534B10514F0A4E4B0E0FC
:101620001197FD01EC56FF4D8FEF40C0A1E0B0E0F7
:10163000A534B10514F0A4E4B0E01197FD01EC5617
:10164000FF4D80E88083FD01E05BFF4D108211C0FB
:10165000A1E0B0E0A534B10514F0A4E4B0E0119726
:10166000FD01EC56FF4D1082FD01E05BFF4D80E86F
:101670008083A85FBF4D1C920895A1E0B0E0A5341F
:10168000B10514F0A4E4B0E01197FD01EC56FF4D54
:10169000108249C0A1E0B0E0A534B10514F0A4E483
:1016A000B0E01197FD01EC56FF4D80E88083FD010D
:1016B000E05BFF4D8083A85FBF4D75C0E1E0F0E0C7
:1016C000E534F10514F0E4E4F0E03197DF01AC56C5
:1016D000BF4D8FEF8C93DF01A05BBF4D80E811C041
:1016E000E1E0F0E0E534F10514F0E4E4F0E03197F6
:1016F000DF01AC56BF4D80E88C93DF01A05BBF4D8E
:101700008FEF8C93E85FFF4D10820895A1E0B0E069
:10171000A534B10514F0A4E4B0E01197FD01EC5636
:10172000FF4D8FEF8083FD01E05BFF4D108238C0DD
:10173000A1E0B0E0A534B10514F0A4E4B0E0119745
:10174000FD01EC56FF4D80E88083FD01E05BFF4D1D
:10175000108211C0A1E0B0E0A534B10514F0A4E4FA
:10176000B0E01197FD01EC56FF4D1082FD01E05BEA
:10177000FF4D80E88083A85FBF4D8FEF14C0A1E0CC
:10178000B0E0A534B10514F0A4E4B0E01197FD0178
:10179000EC56FF4D1082FD01E05BFF4D8FEF808323
:1017A000A85FBF4D80E88C930895E1E0F0E0E53458
:1017B000F10514F0E4E4F0E03197DF01AC56BF4DE1
:1017C0008FEF8C93DF01A05BBF4D80E48C93E85FCB
:1017D000FF4D80830895E1E0F0E0E534F10514F079
:1017E000E4E4F0E03197DF01AC56BF4D90E49C9308
:1017F000DF01A05BBF4D8FEF8C93E85FFF4D9083BF
:101800000895A1E0B0E0A534B10514F0A4E4B0E07F
:101810001197FD01EC56FF4D80E48083FD01E05BF4
:10182000FF4D8083A85FBF4D8FEF8C930895E82F05
:10183000F0E0ED37F10510F00C94CC19E75FFE4FA6
:1018400020E0EE0FFF1F0590F491E02D1994862FF4
:10185000922F1816190614F081E090E08534910556
:1018600014F084E490E0FC013197DF01AC56BF4DE9
:101870001C92DF01A05BBF4D1C92E85FFF4D108200
:101880000895862F922F1816190614F081E090E023
:101890008534910514F084E490E0DC011197FD019A
:1018A000EC56FF4D1082FD01E05BFF4D1082A85FFA
:1018B000BF4D80E48C930895862F922F1816190639
:1018C00014F081E090E08534910514F084E490E018
:1018D000DC011197FD01EC56FF4D1082FD01E05B2C
:1018E000FF4D1082A85FBF4D80E88C930895862F2E
:1018F000922F1816190614F081E090E085349105B6
:1019000014F084E490E0DC011197FD01EC56FF4DEA
:101910001082FD01E05BFF4D1082A85FBF4D80EC9F
:101920008C930895862F922F1816190614F081E0D3
:1019300090E08534910514F084E490E0DC01119787
:10194000FD01EC56FF4D1082FD01E05BFF4D108262
:10195000A85FBF4D8FEF8C930895862F922F181696
:10196000190614F081E090E08534910514F084E4C8
:1019700090E0DC011197FD01EC56FF4D1082FD0156
:10198000E05BFF4D80E48083A85FBF4D1C9208950B
:10199000862F922F1816190614F081E090E08534F6
:1019A000910514F084E490E0DC011197FD01EC5600
:1019B000FF4D1082FD01E05BFF4D80E48083A85F56
:1019C000BF4D8C930895862F922F1816190614F088
:1019D00081E090E08534910514F084E490E0DC012E
:1019E0001197FD01EC56FF4D1082FD01E05BFF4DAC
:1019F00080E48083A85FBF4D80E88C930895862F94
:101A0000922F1816190614F081E090E085349105A4
:101A100014F084E490E0DC011197FD01EC56FF4DD9
:101A20001082FD01E05BFF4D80E48083A85FBF4D25
:101A300080EC8C930895862F922F1816190614F0B7
:101A400081E090E08534910514F084E490E0DC01BD
:101A50001197FD01EC56FF4D1082FD01E05BFF4D3B
:101A600080E48083A85FBF4D8FEF8C930895862F0D
:101A7000922F1816190614F081E090E08534910534
:101A800014F084E490E0DC011197FD01EC56FF4D69
:101A90001082FD01E05BFF4D80E88083A85FBF4DB1
:101AA0001C920895862F922F1816190614F081E0C3
:101AB00090E08534910514F084E490E0DC01119706
:101AC000FD01EC56FF4D1082FD01E05BFF4D80E80B
:101AD0008083A85FBF4D80E48C930895862F922F5A
:101AE0001816190614F081E090E08534910514F081
:101AF00084E490E0DC011197FD01EC56FF4D10826B
:101B0000FD01E05BFF4D80E88083A85FBF4D8C93B3
:101B10000895862F922F1816190614F081E090E090
:101B20008534910514F084E490E0DC011197FD0107
:101B3000EC56FF4D1082FD01E05BFF4D80E8808395
:101B4000A85FBF4D80EC8C930895862F922F1816B6
:101B5000190614F081E090E08534910514F084E4D6
:101B600090E0DC011197FD01EC56FF4D1082FD0164
:101B7000E05BFF4D80E88083A85FBF4D8FEF8C93C3
:101B80000895862F922F1816190614F081E090E020
:101B90008534910514F084E490E0DC011197FD0197
:101BA000EC56FF4D1082FD01E05BFF4D80EC808321
:101BB000A85FBF4D1C920895862F922F1816190604
:101BC00014F081E090E08534910514F084E490E015
:101BD000DC011197FD01EC56FF4D1082FD01E05B29
:101BE000FF4D80EC8083A85FBF4D80E48C93089507
:101BF000862F922F1816190614F081E090E0853494
:101C0000910514F084E490E0DC011197FD01EC569D
:101C1000FF4D1082FD01E05BFF4D80EC8083A85FEB
:101C2000BF4D80E88C930895862F922F18161906C1
:101C300014F081E090E08534910514F084E490E0A4
:101C4000DC011197FD01EC56FF4D1082FD01E05BB8
:101C5000FF4D80EC8083A85FBF4D8C930895862F45
:101C6000922F1816190614F081E090E08534910542
:101C700014F084E490E0DC011197FD01EC56FF4D77
:101C80001082FD01E05BFF4D80EC8083A85FBF4DBB
:101C90008FEF8C930895862F922F1816190614F043
:101CA00081E090E08534910514F084E490E0DC015B
:101CB0001197FD01EC56FF4D1082FD01E05BFF4DD9
:101CC0008FEF8083A85FBF4D1C920895862F922FBF
:101CD0001816190614F081E090E08534910514F08F
:101CE00084E490E0DC011197FD01EC56FF4D108279
:101CF000FD01E05BFF4D8FEF8083A85FBF4D80E467
:101D00008C930895862F922F1816190614F081E0EF
:101D100090E08534910514F084E490E0DC011197A3
:101D2000FD01EC56FF4D1082FD01E05BFF4D8FEF92
:101D30008083A85FBF4D80E88C930895862F922FF3
:101D40001816190614F081E090E08534910514F01E
:101D500084E490E0DC011197FD01EC56FF4D108208
:101D6000FD01E05BFF4D8FEF8083A85FBF4D80ECEE
:101D70008C930895862F922F1816190614F081E07F
:101D800090E08534910514F084E490E0DC01119733
:101D9000FD01EC56FF4D1082FD01E05BFF4D8FEF22
:101DA0008083A85FBF4D8C930895862F922F1816BD
:101DB000190614F081E090E08534910514F084E474
:101DC00090E0DC011197FD01EC56FF4D80E480832B
:101DD000FD01E05BFF4D1082A85FBF4D1C9208958E
:101DE000862F922F1816190614F081E090E08534A2
:101DF000910514F084E490E0DC011197FD01EC56AC
:101E0000FF4D80E48083FD01E05BFF4D1082A85F01
:101E1000BF4D8C930895862F922F1816190614F033
:101E200081E090E08534910514F084E490E0DC01D9
:101E30001197FD01EC56FF4D80E48083FD01E05BCE
:101E4000FF4D1082A85FBF4D80E88C930895862FC8
:101E5000922F1816190614F081E090E08534910550
:101E600014F084E490E0DC011197FD01EC56FF4D85
:101E700080E48083FD01E05BFF4D1082A85FBF4DD1
:101E800080EC8C930895862F922F1816190614F063
:101E900081E090E08534910514F084E490E0DC0169
:101EA0001197FD01EC56FF4D80E48083FD01E05B5E
:101EB000FF4D1082A85FBF4D8FEF8C930895862F42
:101EC000922F1816190614F081E090E085349105E0
:101ED00014F084E490E0DC011197FD01EC56FF4D15
:101EE00080E48083FD01E05BFF4D8083A85FBF4DF0
:101EF0001C920895862F922F1816190614F081E06F
:101F000090E08534910514F084E490E0DC011197B1
:101F1000FD01EC56FF4D80E48083FD01E05BFF4D49
:101F20008083A85FBF4D8C930895862F922F18163B
:101F3000190614F081E090E08534910514F084E4F2
:101F400090E0DC011197FD01EC56FF4D80E48083A9
:101F5000FD01E05BFF4D8083A85FBF4D80E88C935F
:101F60000895862F922F1816190614F081E090E03C
:101F70008534910514F084E490E0DC011197FD01B3
:101F8000EC56FF4D80E48083FD01E05BFF4D8083D4
:101F9000A85FBF4D80EC8C930895862F922F181662
:101FA000190614F081E090E08534910514F084E482
:101FB00090E0DC011197FD01EC56FF4D80E4808339
:101FC000FD01E05BFF4D8083A85FBF4D8FEF8C93D9
:101FD0000895862F922F1816190614F081E090E0CC
:101FE0008534910514F084E490E0FC013197DF0121
:101FF000AC56BF4D80E48C93DF01A05BBF4D80E801
:102000008C93E85FFF4D10820895862F922F18164B
:10201000190614F081E090E08534910514F084E411
:1020200090E0FC013197DF01AC56BF4D90E49C93EA
:10203000DF01A05BBF4D80E88C93E85FFF4D90838C
:102040000895862F922F1816190614F081E090E05B
:102050008534910514F084E490E0FC013197DF01B0
:10206000AC56BF4D80E48C93DF01A05BBF4D80E890
:102070008C93E85FFF4D80830895862F922F18166A
:10208000190614F081E090E08534910514F084E4A1
:1020900090E0FC013197DF01AC56BF4D80E48C939A
:1020A000DF01A05BBF4D80E88C93E85FFF4D80ECC3
:1020B00080830895862F922F1816190614F081E058
:1020C00090E08534910514F084E490E0FC013197B0
:1020D000DF01AC56BF4D80E48C93DF01A05BBF4DA8
:1020E00080E88C93E85FFF4D8FEF80830895862F03
:1020F000922F1816190614F081E090E085349105AE
:1021000014F084E490E0FC013197DF01AC56BF4D40
:1021100080E48C93DF01A05BBF4D80EC8C93E85F83
:10212000FF4D10820895862F922F1816190614F06D
:1021300081E090E08534910514F084E490E0FC01A6
:102140003197DF01AC56BF4D90E49C93DF01A05B5B
:10215000BF4D80EC8C93E85FFF4D90830895862FF0
:10216000922F1816190614F081E090E0853491053D
:1021700014F084E490E0FC013197DF01AC56BF4DD0
:1021800080E48C93DF01A05BBF4D80EC8C93E85F13
:10219000FF4D80E880830895862F922F1816190628
:1021A00014F081E090E08534910514F084E490E02F
:1021B000FC013197DF01AC56BF4D80E48C93DF0109
:1021C000A05BBF4D80EC8C93E85FFF4D808308954A
:1021D000862F922F1816190614F081E090E08534AE
:1021E000910514F084E490E0FC013197DF01AC56D6
:1021F000BF4D80E48C93DF01A05BBF4D80EC8C93DE
:10220000E85FFF4D8FEF80830895862F922F181679
:10221000190614F081E090E08534910514F084E40F
:1022200090E0FC013197DF01AC56BF4D80E48C9308
:10223000DF01A05BBF4D8FEF8C93E85FFF4D1082F5
:102240000895862F922F1816190614F081E090E059
:102250008534910514F084E490E0FC013197DF01AE
:10226000AC56BF4D90E49C93DF01A05BBF4D8FEF58
:102270008C93E85FFF4D90830895862F922F181658
:10228000190614F081E090E08534910514F084E49F
:1022900090E0FC013197DF01AC56BF4D80E48C9398
:1022A000DF01A05BBF4D8FEF8C93E85FFF4D80E8AF
:1022B00080830895862F922F1816190614F081E056
:1022C00090E08534910514F084E490E0FC013197AE
:1022D000DF01AC56BF4D80E48C93DF01A05BBF4DA6
:1022E0008FEF8C93E85FFF4D80EC80830895862FFD
:1022F000922F1816190614F081E090E085349105AC
:1023000014F084E490E0FC013197DF01AC56BF4D3E
:1023100080E48C93DF01A05BBF4D8FEF8C93E85F6F
:10232000FF4D80830895862F922F1816190614F0FA
:1023300081E090E08534910514F084E490E0DC01C4
:102340001197FD01EC56FF4D80E88083FD01E05BB5
:10235000FF4D1082A85FBF4D1C920895862F922FCB
:102360001816190614F081E090E08534910514F0F8
:1023700084E490E0DC011197FD01EC56FF4D80E80C
:102380008083FD01E05BFF4D1082A85FBF4D80E4BC
:102390008C930895862F922F1816190614F081E059
:1023A00090E08534910514F084E490E0DC0111970D
:1023B000FD01EC56FF4D80E88083FD01E05BFF4DA1
:1023C0001082A85FBF4D8C930895862F922F181608
:1023D000190614F081E090E08534910514F084E44E
:1023E00090E0DC011197FD01EC56FF4D80E8808301
:1023F000FD01E05BFF4D1082A85FBF4D80EC8C9328
:102400000895862F922F1816190614F081E090E097
:102410008534910514F084E490E0DC011197FD010E
:10242000EC56FF4D80E88083FD01E05BFF4D10829C
:10243000A85FBF4D8FEF8C930895862F922F1816AB
:10244000190614F081E090E08534910514F084E4DD
:1024500090E0FC013197DF01AC56BF4D80E88C93D2
:10246000DF01A05BBF4D80E48C93E85FFF4D1082DD
:102470000895862F922F1816190614F081E090E027
:102480008534910514F084E490E0FC013197DF017C
:10249000AC56BF4D80E88C93DF01A05BBF4D80E45C
:1024A0008C93E85FFF4D80830895862F922F181636
:1024B000190614F081E090E08534910514F084E46D
:1024C00090E0FC013197DF01AC56BF4D90E89C9342
:1024D000DF01A05BBF4D80E48C93E85FFF4D9083EC
:1024E0000895862F922F1816190614F081E090E0B7
:1024F0008534910514F084E490E0FC013197DF010C
:10250000AC56BF4D80E88C93DF01A05BBF4D80E4EB
:102510008C93E85FFF4D80EC80830895862F922F87
:102520001816190614F081E090E08534910514F036
:1025300084E490E0FC013197DF01AC56BF4D80E8A8
:102540008C93DF01A05BBF4D80E48C93E85FFF4D6F
:102550008FEF80830895862F922F1816190614F096
:1025600081E090E08534910514F084E490E0DC0192
:102570001197FD01EC56FF4D80E88083FD01E05B83
:10258000FF4D8083A85FBF4D1C920895862F922F28
:102590001816190614F081E090E08534910514F0C6
:1025A00084E490E0DC011197FD01EC56FF4D80E8DA
:1025B0008083FD01E05BFF4D8083A85FBF4D80E419
:1025C0008C930895862F922F1816190614F081E027
:1025D00090E08534910514F084E490E0DC011197DB
:1025E000FD01EC56FF4D80E88083FD01E05BFF4D6F
:1025F0008083A85FBF4D8C930895862F922F181665
:10260000190614F081E090E08534910514F084E41B
:1026100090E0DC011197FD01EC56FF4D80E88083CE
:10262000FD01E05BFF4D8083A85FBF4D80EC8C9384
:102630000895862F922F1816190614F081E090E065
:102640008534910514F084E490E0DC011197FD01DC
:10265000EC56FF4D80E88083FD01E05BFF4D8083F9
:10266000A85FBF4D8FEF8C930895862F922F181679
:10267000190614F081E090E08534910514F084E4AB
:1026800090E0FC013197DF01AC56BF4D80E88C93A0
:10269000DF01A05BBF4D80EC8C93E85FFF4D1082A3
:1026A0000895862F922F1816190614F081E090E0F5
:1026B0008534910514F084E490E0FC013197DF014A
:1026C000AC56BF4D80E88C93DF01A05BBF4D80EC22
:1026D0008C93E85FFF4D80E480830895862F922FCE
:1026E0001816190614F081E090E08534910514F075
:1026F00084E490E0FC013197DF01AC56BF4D90E8D7
:102700009C93DF01A05BBF4D80EC8C93E85FFF4D95
:1027100090830895862F922F1816190614F081E0E1
:1027200090E08534910514F084E490E0FC01319749
:10273000DF01AC56BF4D80E88C93DF01A05BBF4D3D
:1027400080EC8C93E85FFF4D80830895862F922F55
:102750001816190614F081E090E08534910514F004
:1027600084E490E0FC013197DF01AC56BF4D80E876
:102770008C93DF01A05BBF4D80EC8C93E85FFF4D35
:102780008FEF80830895862F922F1816190614F064
:1027900081E090E08534910514F084E490E0FC0140
:1027A0003197DF01AC56BF4D80E88C93DF01A05B11
:1027B000BF4D8FEF8C93E85FFF4D10820895862FF9
:1027C000922F1816190614F081E090E085349105D7
:1027D00014F084E490E0FC013197DF01AC56BF4D6A
:1027E00080E88C93DF01A05BBF4D8FEF8C93E85F97
:1027F000FF4D80E480830895862F922F18161906C6
:1028000014F081E090E08534910514F084E490E0C8
:10281000FC013197DF01AC56BF4D90E89C93DF017E
:10282000A05BBF4D8FEF8C93E85FFF4D90830895C1
:10283000862F922F1816190614F081E090E0853447
:10284000910514F084E490E0FC013197DF01AC566F
:10285000BF4D80E88C93DF01A05BBF4D8FEF8C9361
:10286000E85FFF4D80EC80830895862F922F181625
:10287000190614F081E090E08534910514F084E4A9
:1028800090E0FC013197DF01AC56BF4D80E88C939E
:10289000DF01A05BBF4D8FEF8C93E85FFF4D80831E
:1028A0000895862F922F1816190614F081E090E0F3
:1028B0008534910514F084E490E0DC011197FD016A
:1028C000EC56FF4D80EC8083FD01E05BFF4D1082F4
:1028D000A85FBF4D1C920895862F922F18161906D7
:1028E00014F081E090E08534910514F084E490E0E8
:1028F000DC011197FD01EC56FF4D80EC8083FD015A
:10290000E05BFF4D1082A85FBF4D80E48C9308957B
:10291000862F922F1816190614F081E090E0853466
:10292000910514F084E490E0DC011197FD01EC5670
:10293000FF4D80EC8083FD01E05BFF4D1082A85FBE
:10294000BF4D80E88C930895862F922F1816190694
:1029500014F081E090E08534910514F084E490E077
:10296000DC011197FD01EC56FF4D80EC8083FD01E9
:10297000E05BFF4D1082A85FBF4D8C930895862FBA
:10298000922F1816190614F081E090E08534910515
:1029900014F084E490E0DC011197FD01EC56FF4D4A
:1029A00080EC8083FD01E05BFF4D1082A85FBF4D8E
:1029B0008FEF8C930895862F922F1816190614F016
:1029C00081E090E08534910514F084E490E0FC010E
:1029D0003197DF01AC56BF4D80EC8C93DF01A05BDB
:1029E000BF4D80E48C93E85FFF4D10820895862FE1
:1029F000922F1816190614F081E090E085349105A5
:102A000014F084E490E0FC013197DF01AC56BF4D37
:102A100080EC8C93DF01A05BBF4D80E48C93E85F7A
:102A2000FF4D80830895862F922F1816190614F0F3
:102A300081E090E08534910514F084E490E0FC019D
:102A40003197DF01AC56BF4D80EC8C93DF01A05B6A
:102A5000BF4D80E48C93E85FFF4D80E8808308954C
:102A6000862F922F1816190614F081E090E0853415
:102A7000910514F084E490E0FC013197DF01AC563D
:102A8000BF4D90EC9C93DF01A05BBF4D80E48C9325
:102A9000E85FFF4D90830895862F922F1816190630
:102AA00014F081E090E08534910514F084E490E026
:102AB000FC013197DF01AC56BF4D80EC8C93DF01F8
:102AC000A05BBF4D80E48C93E85FFF4D8FEF808368
:102AD0000895862F922F1816190614F081E090E0C1
:102AE0008534910514F084E490E0FC013197DF0116
:102AF000AC56BF4D80EC8C93DF01A05BBF4D80E8EE
:102B00008C93E85FFF4D10820895862F922F181640
:102B1000190614F081E090E08534910514F084E406
:102B200090E0FC013197DF01AC56BF4D80EC8C93F7
:102B3000DF01A05BBF4D80E88C93E85FFF4D80E430
:102B400080830895862F922F1816190614F081E0BD
:102B500090E08534910514F084E490E0FC01319715
:102B6000DF01AC56BF4D80EC8C93DF01A05BBF4D05
:102B700080E88C93E85FFF4D80830895862F922F25
:102B80001816190614F081E090E08534910514F0D0
:102B900084E490E0FC013197DF01AC56BF4D90EC2E
:102BA0009C93DF01A05BBF4D80E88C93E85FFF4DF5
:102BB00090830895862F922F1816190614F081E03D
:102BC00090E08534910514F084E490E0FC013197A5
:102BD000DF01AC56BF4D80EC8C93DF01A05BBF4D95
:102BE00080E88C93E85FFF4D8FEF80830895862FF8
:102BF000922F1816190614F081E090E085349105A3
:102C000014F084E490E0DC011197FD01EC56FF4DD7
:102C100080EC8083FD01E05BFF4D8083A85FBF4DAA
:102C20001C920895862F922F1816190614F081E031
:102C300090E08534910514F084E490E0DC01119774
:102C4000FD01EC56FF4D80EC8083FD01E05BFF4D04
:102C50008083A85FBF4D80E48C930895862F922FC8
:102C60001816190614F081E090E08534910514F0EF
:102C700084E490E0DC011197FD01EC56FF4D80ECFF
:102C80008083FD01E05BFF4D8083A85FBF4D80E83E
:102C90008C930895862F922F1816190614F081E050
:102CA00090E08534910514F084E490E0DC01119704
:102CB000FD01EC56FF4D80EC8083FD01E05BFF4D94
:102CC0008083A85FBF4D8C930895862F922F18168E
:102CD000190614F081E090E08534910514F084E445
:102CE00090E0DC011197FD01EC56FF4D80EC8083F4
:102CF000FD01E05BFF4D8083A85FBF4D8FEF8C939C
:102D00000895862F922F1816190614F081E090E08E
:102D10008534910514F084E490E0FC013197DF01E3
:102D2000AC56BF4D80EC8C93DF01A05BBF4D8FEFA5
:102D30008C93E85FFF4D10820895862F922F18160E
:102D4000190614F081E090E08534910514F084E4D4
:102D500090E0FC013197DF01AC56BF4D80EC8C93C5
:102D6000DF01A05BBF4D8FEF8C93E85FFF4D80E4E8
:102D700080830895862F922F1816190614F081E08B
:102D800090E08534910514F084E490E0FC013197E3
:102D9000DF01AC56BF4D80EC8C93DF01A05BBF4DD3
:102DA0008FEF8C93E85FFF4D80E880830895862F36
:102DB000922F1816190614F081E090E085349105E1
:102DC00014F084E490E0FC013197DF01AC56BF4D74
:102DD00090EC9C93DF01A05BBF4D8FEF8C93E85F7D
:102DE000FF4D90830895862F922F1816190614F020
:102DF00081E090E08534910514F084E490E0FC01DA
:102E00003197DF01AC56BF4D80EC8C93DF01A05BA6
:102E1000BF4D8FEF8C93E85FFF4D80830895862F21
:102E2000922F1816190614F081E090E08534910570
:102E300014F084E490E0DC011197FD01EC56FF4DA5
:102E40008FEF8083FD01E05BFF4D1082A85FBF4DD7
:102E50001C920895862F922F1816190614F081E0FF
:102E600090E08534910514F084E490E0DC01119742
:102E7000FD01EC56FF4D8FEF8083FD01E05BFF4DC0
:102E80001082A85FBF4D80E48C930895862F922F07
:102E90001816190614F081E090E08534910514F0BD
:102EA00084E490E0DC011197FD01EC56FF4D8FEFBB
:102EB0008083FD01E05BFF4D1082A85FBF4D80E87D
:102EC0008C930895862F922F1816190614F081E01E
:102ED00090E08534910514F084E490E0DC011197D2
:102EE000FD01EC56FF4D8FEF8083FD01E05BFF4D50
:102EF0001082A85FBF4D80EC8C930895862F922F8F
:102F00001816190614F081E090E08534910514F04C
:102F100084E490E0DC011197FD01EC56FF4D8FEF4A
:102F20008083FD01E05BFF4D1082A85FBF4D8C9355
:102F30000895862F922F1816190614F081E090E05C
:102F40008534910514F084E490E0FC013197DF01B1
:102F5000AC56BF4D8FEF8C93DF01A05BBF4D80E47B
:102F60008C93E85FFF4D10820895862F922F1816DC
:102F7000190614F081E090E08534910514F084E4A2
:102F800090E0FC013197DF01AC56BF4D8FEF8C9381
:102F9000DF01A05BBF4D80E48C93E85FFF4D808331
:102FA0000895862F922F1816190614F081E090E0EC
:102FB0008534910514F084E490E0FC013197DF0141
:102FC000AC56BF4D8FEF8C93DF01A05BBF4D80E40B
:102FD0008C93E85FFF4D80E880830895862F922FC1
:102FE0001816190614F081E090E08534910514F06C
:102FF00084E490E0FC013197DF01AC56BF4D8FEFC8
:103000008C93DF01A05BBF4D80E48C93E85FFF4DA4
:1030100080EC80830895862F922F1816190614F0DD
:1030200081E090E08534910514F084E490E0FC01A7
:103030003197DF01AC56BF4D9FEF9C93DF01A05B42
:10304000BF4D80E48C93E85FFF4D90830895862FF9
:10305000922F1816190614F081E090E0853491053E
:1030600014F084E490E0FC013197DF01AC56BF4DD1
:103070008FEF8C93DF01A05BBF4D80E88C93E85FFE
:10308000FF4D10820895862F922F1816190614F0FE
:1030900081E090E08534910514F084E490E0FC0137
:1030A0003197DF01AC56BF4D8FEF8C93DF01A05BF2
:1030B000BF4D80E88C93E85FFF4D80E480830895E6
:1030C000862F922F1816190614F081E090E08534AF
:1030D000910514F084E490E0FC013197DF01AC56D7
:1030E000BF4D8FEF8C93DF01A05BBF4D80E88C93C9
:1030F000E85FFF4D80830895862F922F18161906DA
:1031000014F081E090E08534910514F084E490E0BF
:10311000FC013197DF01AC56BF4D8FEF8C93DF017F
:10312000A05BBF4D80E88C93E85FFF4D80EC80830F
:103130000895862F922F1816190614F081E090E05A
:103140008534910514F084E490E0FC013197DF01AF
:10315000AC56BF4D9FEF9C93DF01A05BBF4D80E855
:103160008C93E85FFF4D90830895862F922F181659
:10317000190614F081E090E08534910514F084E4A0
:1031800090E0FC013197DF01AC56BF4D8FEF8C937F
:10319000DF01A05BBF4D80EC8C93E85FFF4D108298
:1031A0000895862F922F1816190614F081E090E0EA
:1031B0008534910514F084E490E0FC013197DF013F
:1031C000AC56BF4D8FEF8C93DF01A05BBF4D80EC01
:1031D0008C93E85FFF4D80E480830895862F922FC3
:1031E0001816190614F081E090E08534910514F06A
:1031F00084E490E0FC013197DF01AC56BF4D8FEFC6
:103200008C93DF01A05BBF4D80EC8C93E85FFF4D9A
:1032100080E880830895862F922F1816190614F0DF
:1032200081E090E08534910514F084E490E0FC01A5
:103230003197DF01AC56BF4D8FEF8C93DF01A05B60
:10324000BF4D80EC8C93E85FFF4D80830895862FFF
:10325000922F1816190614F081E090E0853491053C
:1032600014F084E490E0FC013197DF01AC56BF4DCF
:103270009FEF9C93DF01A05BBF4D80EC8C93E85FD8
:10328000FF4D90830895862F922F1816190614F07B
:1032900081E090E08534910514F084E490E0DC0155
:1032A0001197FD01EC56FF4D8FEF8083FD01E05B30
:1032B000FF4D8083A85FBF4D1C920895862F922FEB
:1032C0001816190614F081E090E08534910514F089
:1032D00084E490E0DC011197FD01EC56FF4D8FEF87
:1032E0008083FD01E05BFF4D8083A85FBF4D80E4DC
:1032F0008C930895862F922F1816190614F081E0EA
:1033000090E08534910514F084E490E0DC0111979D
:10331000FD01EC56FF4D8FEF8083FD01E05BFF4D1B
:103320008083A85FBF4D80E88C930895862F922FED
:103330001816190614F081E090E08534910514F018
:1033400084E490E0DC011197FD01EC56FF4D8FEF16
:103350008083FD01E05BFF4D8083A85FBF4D80EC63
:103360008C930895862F922F1816190614F081E079
:1033700090E08534910514F084E490E0DC0111972D
:10338000FD01EC56FF4D8FEF8083FD01E05BFF4DAB
:103390008083A85FBF4D8C930895FF920F931F9376
:1033A000F82E062F142F8FEF0E941B07812F0E94EB
:1033B0001B07802F0E941B078F2D0E941B071F9148
:1033C0000F91FF90089580E090E0FC01EC56FF4DD6
:1033D0001082FC01E05BFF4D1082FC01E85FFF4DB5
:1033E000108201968434910581F70895CF93DF937D
:1033F0000E944107C0E0D0E0DE01AC56BF4DFE01A7
:10340000E05BFF4D6081FE01E85FFF4D40818C91E4
:1034100090E070E050E00E94CD192196C434D105AF
:1034200059F70E944E07DF91CF91089580E1E0E8BF
:10343000F6E0868386E0E0ECFAE083838091C20ABE
:1034400087FDFCCF80E1E0E8F6E0858308952F92C8
:103450003F924F925F926F927F928F929F92AF9224
:10346000BF92CF92DF92EF92FF920F931F93DF9361
:10347000CF9300D00F92CDB7DEB76B017C01152F33
:1034800080E1E0E8F6E0868382E0E0ECFAE0838326
:10349000C90160E071E00E94391C69837A83C90127
:1034A00060E071E00E94391C1C01242F312FC901FA
:1034B0005C0100E010E080E8682E86E0782EB0EC39
:1034C0004B2EBAE05B2EA0EC8A2EAAE09A2E59C0B1
:1034D000E0E1D3011696EC93E2E0D2011396EC936F
:1034E000B701A601AB82BC8230C0EB81FC81249184
:1034F0008091C20A87FDFCCFCB01AA27BB27F4012C
:1035000083838091C20A87FDFCCFBB27A72F962F0C
:10351000852FF40183838091C20A87FDFCCFD401FB
:1035200013964C938091C20A87FDFCCFF40123834C
:103530008091C20A87FDFCCF4F5F5F4F6F4F7F4F77
:103540008B819C8101968B839C83DA01AC19BD0928
:10355000E981FA810E171F0711F4910102C020E0E2
:1035600031E0A217B3070CF4C0CFE0E1D301159608
:10357000EC930F5F1F4F80E091E0A80EB91E6A0127
:103580007B01A981BA81A017B1070CF0A1CF2496C5
:10359000CDBFDEBFCF91DF911F910F91FF90EF90D4
:1035A000DF90CF90BF90AF909F908F907F906F9063
:1035B0005F904F903F902F9008951F93A0E8B6E042
:1035C00010E116961C931697E0ECFAE023E02383B3
:1035D0009C01442755272383272F382F492F552710
:1035E0002383638315961C93838190E01F91089534
:1035F0008FEF809340061092800680E090E00E945A
:10360000601C80930520813019F081E080930520B3
:103610000E945B070895FF920F931F93CF93DF9350
:10362000EC0180E090E00E94601CF82E81E090E0C8
:103630000E94601C182F82E090E00E94601C082FFE
:103640008091012090E08C179D0738F46F2D6F5FFB
:1036500009F061E080E090E01FC08091002090E0E0
:103660008C179D0710F080E01AC0013019F411E0AA
:1036700000E005C01F5F123010F011E001E080E0B3
:1036800090E06F2D0E94701C81E090E0612F0E94FD
:10369000701C82E090E0602F0E94701C81E0DF913E
:1036A000CF911F910F91FF9008951F9380918806ED
:1036B00085FF21C010E080910420811751F411236F
:1036C00041F480910220909103200E940B1B982FBF
:1036D00005C0112311F090E009C090E08091042012
:1036E000882321F4109202201092032010930420CA
:1036F000892F1F91089580910220909103200196B7
:10370000809302209093032011E0D5CF6F927F9297
:103710009F92AF92BF92CF92DF92EF92FF920F9360
:103720001F93CF93DF93C0E0D0E0AA24BB246501B0
:1037300044EC642E49E0742E2CC0C801B7010E94ED
:10374000DD1A692D0E94170C0894E11CF11C011D63
:10375000111D939482E2981681F70E94F619CE010A
:1037600064E170E00E94391C892B21F40E94551BF2
:10377000813099F0C3010197F1F7219682E290E040
:10378000A0E0B0E0A80EB91ECA1EDB1EC135D105EF
:1037900021F0860175019924D0CFDF91CF911F913F
:1037A0000F91FF90EF90DF90CF90BF90AF909F90E0
:1037B0007F906F900895EF92FF920F931F930E9456
:1037C000F81A80EBE0E8F6E0818383E58093C00A95
:1037D000789402C08091C30A8091C20A87FDFACF13
:1037E0000E94161A80E1E0E8F6E0868388EDE0ECBE
:1037F000FAE083838091C20A87FFFCCF80E1E0E892
:10380000F6E085830E94161A84E161E00E94170C9D
:103810000E94F619EE24FF2487010E94161AC8019F
:10382000B7014CE053E024EE3AE00E94271A0894D6
:10383000E11CF11C011D111D84EEE8168AE0F8065A
:1038400080E0080780E0180741F70E94E31984E64A
:1038500061E00E94170C0E94F61980E197E229E1CD
:1038600030E0F9013197F1F70197D9F70E94861BF3
:10387000FDCF97FB092E07260AD077FD04D00CD088
:1038800006D000201AF4709561957F4F0895F6F7E1
:10389000909581959F4F0895AA1BBB1B51E107C0CE
:1038A000AA1FBB1FA617B70710F0A61BB70B881FD0
:1038B000991F5A95A9F780959095BC01CD0108955F
:1038C00003D0808199270895E0ECF1E0378537FD3A
:1038D000FDCF348538603487FC01E050F04F089507
:1038E000262FE0ECF1E0378537FDFDCF3485377FBB
:1038F0003487378531FF09C036E3328738ED34BF6E
:1039000031E03387378537FDFDCF33E3328780835E
:1039100091831282248325E3228728ED31E024BF9E
:0A392000338701960895F894FFCF55
:02392A00021485
:00000001FF
