:100000000C9409010C942A010C942A010C942A01E5
:100010000C942A010C942A010C942A010C942A01B4
:100020000C942A010C942A010C942A010C942A01A4
:100030000C942A010C942A010C942A010C942A0194
:100040000C942A010C942A010C942A010C942A0184
:100050000C942A010C942A010C942A010C942A0174
:100060000C942A010C942A010C942A010C942A0164
:100070000C942A010C942A010C942A010C942A0154
:100080000C942A010C942A010C942A010C942A0144
:100090000C942A010C942A010C942A010C942A0134
:1000A0000C942A010C942A010C942A010C942A0124
:1000B0000C942A010C942A010C942A010C942A0114
:1000C0000C942A010C942A010C942A010C942A0104
:1000D0000C942A010C942A010C942A010C942A01F4
:1000E0000C942A010C942A010C942A010C942A01E4
:1000F0000C942A010C942A010C942A010C942A01D4
:100100000C942A010C942A010C942A010C942A01C3
:100110000C942A010C942A010C942A010C942A01B3
:100120000C942A010C942A010C942A010C942A01A3
:100130000C942A010C942A010C942A010C942A0193
:100140000C942A010C942A010C942A010C942A0183
:100150000C942A010C942A010C942A010C942A0173
:100160000C942A010C942A010C942A010C942A0163
:100170000C942A010C942A010C942A010C942A0153
:100180000C942A010C942A010C942A010C942A0143
:100190000C942A010C942A010C942A010C942A0133
:1001A0000C942A010C942A010C942A010C942A0123
:1001B0000C942A010C942A010C942A010C942A0113
:1001C0000C942A010C942A010C942A010C942A0103
:1001D0000C942A010C942A010C942A010C942A01F3
:1001E0000C942A010C942A01CC01CF01D601D9012B
:1001F000DC01DF01E201E501EA01ED01F001F301BB
:10020000F801FD01020207020C0213021A021F028A
:10021000280211241FBECFEFDFE3DEBFCDBF00E019
:100220000CBF1CE4A0E0B0E2E8EEF8E000E00BBF99
:1002300002C007900D92A43EB107D9F71DE4A4EEC9
:10024000BCE401C01D92AA3BB107E1F70E94E403A0
:100250000C9472040C9400009091440627E030E066
:1002600061E070E0482F50E0CB01022E02C0880F01
:10027000991F0A94E2F7842395231816190614F49B
:1002800090E201C090E090934406892F80688093AB
:10029000440690934406215030408FEF2F3F38079B
:1002A00019F7089580E00E942C0180E00E942C0143
:1002B00080E00E942C0180E00E942C0108958FEFC5
:1002C0000E942C018FEF0E942C018FEF0E942C01C5
:1002D0008FEF0E942C0108958FE080935000E0E49E
:1002E000F0E0118288E1E0E5F0E085838091500044
:1002F0008061809350008091510084FFFCCF88ED95
:1003000084BF84E0809340000895FF920F931F9371
:10031000F82E062F142F8FEF0E942C01812F0E94A0
:100320002C01802F0E942C018F2D0E942C011F91E7
:100330000F91FF9008951F93782F142FC901121663
:10034000130614F081E090E08534910514F084E404
:1003500090E0FC013197DF01AA58B24B7C93DF019A
:10036000AE5CB24B6C93E651F34B10831F91089532
:10037000E82FFF27E7FDF095E531F10508F070C0A3
:10038000EC50FF4F262F332727FD3095EE0FFF1F30
:100390000590F491E02D199480E090E002C08FEF79
:1003A00090E060E070E040E050E04FC080E090E01E
:1003B00026C080E090E02DC08FEF90E020C080E06C
:1003C00090E005C08FEF90E024C08FEF90E06FEFDA
:1003D00070E026C080E890E0E4CF80E090E00AC0C2
:1003E00080E090E011C080E890E060E870E01FC01D
:1003F0008FEF90E060E870E0D6CF80E890E06FEF9C
:1004000070E0D1CF8FEF90E060E070E010C080E846
:1004100090E060E070E004C080E090E060E870E0B0
:100420004FEF50E012C080E090E06FEF70E040E8E6
:1004300050E00BC08FEF90E060E470E004C080E417
:1004400090E06FEF70E040E450E00E949B0108955F
:1004500080E490E060E470E04FEF50E00E949B0188
:10046000089580E090E0FC01EA58F24B1082FC0114
:10047000EE5CF24B1082FC01E651F34B10820196C8
:100480008434910581F70895CF93DF930E94520140
:10049000C0E0D0E0DE01AA58B24BFE01EE5CF24BA8
:1004A0006081FE01E651F34B40818C9190E070E059
:1004B00050E00E9485012196C434D10559F70E946D
:1004C0005F01DF91CF91089580E1E0E8F6E0868357
:1004D00086E0E0ECFAE083838091C20A87FDFCCFDE
:1004E00080E1E0E8F6E0858308956F927F928F9235
:1004F0009F92AF92BF92CF92DF92EF92FF920F93B3
:100500001F93CF93DF937B018C015A01C90160E0F7
:1005100071E00E941804AB0160E070E0B0E88B2E3F
:10052000B6E09B2EA0E17A2EF0ECCF2EFAE0DF2E83
:10053000E2E06E2EC0ECDAE03EC0D40116967C926A
:10054000F60163828091C20A87FDFCCFC801AA2709
:10055000BB278B838091C20A87FDFCCFBB27A12FCD
:10056000902F8F2D8B838091C20A87FDFCCFEB8269
:100570008091C20A87FDFCCF20E030E0F501E20F58
:10058000F31F8081D60113968C938091C20A87FD58
:10059000FCCF2F5F3F4FB1E020303B0779F7F401EC
:1005A000758280E091E0A0E0B0E0E80EF91E0A1F3D
:1005B0001B1F6F5F7F4F461757070CF0BECFDF91B1
:1005C000CF911F910F91FF90EF90DF90CF90BF9050
:1005D000AF909F908F907F906F9008951F93A0E8A9
:1005E000B6E010E116961C931697E0ECFAE023E0D3
:1005F00023839C01442755272383272F382F492FF6
:1006000055272383638315961C93838190E01F9164
:1006100008958FEF809340061092800680E090E06E
:100620000E943F048093E74C81508C3018F081E0A9
:100630008093E74C0E946C010895FF920F931F93E3
:10064000CF93DF93EC0180E090E00E943F04F82E0E
:1006500081E090E00E943F04182F82E090E00E9429
:100660003F04082FC536D10540F06F2D6F5F6D3008
:1006700008F061E080E090E01BC02B9710F480E070
:100680001AC0813019F411E000E005C01F5F1C3072
:1006900010F011E001E080E090E06F2D0E944F0427
:1006A00081E090E0612F0E944F0482E090E0602F93
:1006B0000E944F0481E0DF91CF911F910F91FF9035
:1006C00008951F938091880685FF21C010E08091D6
:1006D000E64C811751F4112341F48091E44C909140
:1006E000E54C0E941D03982F05C0112311F090E0E6
:1006F00009C090E08091E64C882321F41092E44CEC
:100700001092E54C1093E64C892F1F91089580912B
:10071000E44C9091E54C01968093E44C9093E54C29
:1007200011E0D5CF8F929F92AF92BF92CF92DF927E
:10073000EF92FF920F931F93CF93DF93C4E4D0E027
:1007400062E3A62E62E1B62EC12CD12C50E1852E9B
:1007500029C0C801B7010E94EE02692D0E94B801AC
:100760000894E108F108010911099A9491F70E948F
:100770004402CE016FE570E00E941804892B21F439
:100780000E946103813099F0882D8A95F1F72197B5
:100790008CEB9FEFAFEFBFEFA80EB91ECA1EDB1E9A
:1007A000209729F08601750142E2942ED2CFDF9185
:1007B000CF911F910F91FF90EF90DF90CF90BF905E
:1007C000AF909F908F9008950E94090380EBE0E81E
:1007D000F6E0818383E58093C00A789402C080911B
:1007E000C30A8091C20A87FDFACF0E94640280E1A9
:1007F000E0E8F6E0868388EDE0ECFAE08383809120
:10080000C20A87FFFCCF80E1E0E8F6E085830E9422
:10081000640260E070E080E090E040E050E224EEAE
:100820003CE20E9475020E9431020E949203FDCFB9
:1008300097FB092E07260AD077FD04D00CD006D0EE
:1008400000201AF4709561957F4F0895F6F7909502
:1008500081959F4F0895AA1BBB1B51E107C0AA1F9A
:10086000BB1FA617B70710F0A61BB70B881F991F51
:100870005A95A9F780959095BC01CD01089503D0B4
:10088000808199270895E0ECF1E0378537FDFDCFB1
:10089000348538603487FC01E050F04F0895262FEE
:1008A000E0ECF1E0378537FDFDCF3485377F3487C5
:1008B000378531FF09C036E3328738ED34BF31E088
:1008C0003387378537FDFDCF33E3328780839183CC
:1008D0001282248325E3228728ED31E024BF338769
:0808E00001960895F894FFCF82
:1008E80002020202020207070707070707070707AE
:1008F8000707070707070707070707070707070780
:10090800070707070707070707070707070707076F
:100918000707070707070707070707070707030367
:10092800030303030202020202020707070707077D
:10093800070707070707070707070707070707073F
:10094800070707070707070707070707070707072F
:10095800070707070707070707070707070707071F
:100968000707030303030303020202020202070745
:1009780007070707070707070707070707070707FF
:1009880007070707070707070707070707070707EF
:1009980007070707070707070707070707070707DF
:1009A80007070707070703030303030302020202FB
:1009B80002020707070707070707070707070707C9
:1009C80007070707070707070707070707070707AF
:1009D800070707070707070707070707070707079F
:1009E80007070707070707070707030303030303A7
:1009F800020202020202070707070707070707079D
:100A0800070707070707070707070707070707076E
:100A1800070707070707070707070707070707075E
:100A28000707070707070707070707070707030356
:100A3800030303030202020202020707070707076C
:100A4800070707070707070707070707070707072E
:100A5800070707070707070707070707070707071E
:100A6800070707070707070707070707070707070E
:100A78000707030303030303020202020202070734
:100A880007070707070707070707070707070707EE
:100A980007070707070707070707070707070707DE
:100AA80007070707070707070707070707070707CE
:100AB80007070707070703030303030302020202EA
:100AC80002020707070707070707070707070707B8
:100AD800070707070707070707070707070707079E
:100AE800070707070707070707070707070707078E
:100AF8000707070707070707070703030303030396
:100B0800020202020202070707070707070707078B
:100B1800070707070707070707070707070707075D
:100B2800070707070707070707070707070707074D
:100B38000707070707070707070707070707030345
:100B48000303030301010101010101010101010185
:100B5800010101010101010101010101010101017D
:100B6800010101010101010101010101010101016D
:100B7800010101010101010101010101010101015D
:100B8800010101010101010101010101010101014D
:100B9800010101010101010101010101010101013D
:100BA800010101010101010101010101010101012D
:100BB800010101010101010101010101010101011D
:100BC800010101010101010101010101010101010D
:100BD80001010101010101010101010101010101FD
:100BE80001010101010101010101010101010101ED
:100BF80001010101010101010101010101010101DD
:100C080001010101010101010101010101010101CC
:100C180001010101010101010101010101010101BC
:100C280001010101010101010101010101010101AC
:100C3800010101010101010101010101010101019C
:100C4800010101010101010101010101010101018C
:100C58000101010102020202020207070707070752
:100C6800070707070707070707070707070707070C
:100C780007070707070707070707070707070707FC
:100C880007070707070707070707070707070707EC
:100C98000707030303030303020202020202070712
:100CA80007070707070707070707070707070707CC
:100CB80007070707070707070707070707070707BC
:100CC80007070707070707070707070707070707AC
:100CD80007070707070703030303030302020202C8
:100CE8000202070707070707070707070707070796
:100CF800070707070707070707070707070707077C
:100D0800070707070707070707070707070707076B
:100D18000707070707070707070703030303030373
:100D28000202020202020707070707070707070769
:100D3800070707070707070707070707070707073B
:100D4800070707070707070707070707070707072B
:100D58000707070707070707070707070707030323
:100D68000303030302020202020207070707070739
:100D780007070707070707070707070707070707FB
:100D880007070707070707070707070707070707EB
:100D980007070707070707070707070707070707DB
:100DA8000707030303030303020202020202070701
:100DB80007070707070707070707070707070707BB
:100DC80007070707070707070707070707070707AB
:100DD800070707070707070707070707070707079B
:100DE80007070707070703030303030302020202B7
:100DF8000202070707070707070707070707070785
:100E0800070707070707070707070707070707076A
:100E1800070707070707070707070707070707075A
:100E28000707070707070707070703030303030362
:100E38000202020202020707070707070707070758
:100E4800070707070707070707070707070707072A
:100E5800070707070707070707070707070707071A
:100E68000707070707070707070707070707030312
:100E78000303030302020202020207070707070728
:100E880007070707070707070707070707070707EA
:100E980007070707070707070707070707070707DA
:100EA80007070707070707070707070707070707CA
:100EB80007070303030303030202020202020707F0
:100EC80007070707070707070707070707070707AA
:100ED800070707070707070707070707070707079A
:100EE800070707070707070707070707070707078A
:100EF80007070707070703030303030302020202A6
:100F08000202070707070707070707070707070773
:100F18000707070707070707070707070707070759
:100F28000707070707070707070707070707070749
:100F38000707070707070707070703030303030351
:100F48000202020202020707070707070707070747
:100F58000707070707070707070707070707070719
:100F68000707070707070707070707070707070709
:100F78000707070707070707070707070707030301
:100F88000303030302020202020207070707070717
:100F980007070707070707070707070707070707D9
:100FA80007070707070707070707070707070707C9
:100FB80007070707070707070707070707070707B9
:100FC80007070303030303030202020202020707DF
:100FD8000707070707070707070707070707070799
:100FE8000707070707070707070707070707070789
:100FF8000707070707070707070707070707070779
:101008000707070707070303030303030202020294
:101018000202070707070707070707070707070762
:101028000707070707070707070707070707070748
:101038000707070707070707070707070707070738
:101048000707070707070707070703030303030340
:101058000202020202020707070707070707070736
:101068000707070707070707070707070707070708
:1010780007070707070707070707070707070707F8
:1010880007070707070707070707070707070303F0
:101098000303030302020202020207070707070706
:1010A80007070707070707070707070707070707C8
:1010B80007070707070707070707070707070707B8
:1010C80007070707070707070707070707070707A8
:1010D80007070303030303030202020202020707CE
:1010E8000707070707070707070707070707070788
:1010F8000707070707070707070707070707070778
:101108000707070707070707070707070707070767
:101118000707070707070303030303030202020283
:101128000202070707070707070707070707070751
:101138000707070707070707070707070707070737
:101148000707070707070707070707070707070727
:10115800070707070707070707070303030303032F
:101168000202020202020707070707070707070725
:1011780007070707070707070707070707070707F7
:1011880007070707070707070707070707070707E7
:1011980007070707070707070707070707070303DF
:1011A800030303030101010101010101010101011F
:1011B8000101010101010101010101010101010117
:1011C8000101010101010101010101010101010107
:1011D80001010101010101010101010101010101F7
:1011E80001010101010101010101010101010101E7
:1011F80001010101010101010101010101010101D7
:1012080001010101010101010101010101010101C6
:1012180001010101010101010101010101010101B6
:1012280001010101010101010101010101010101A6
:101238000101010101010101010101010101010196
:101248000101010101010101010101010101010186
:101258000101010101010101010101010101010176
:101268000101010101010101010101010101010166
:101278000101010101010101010101010101010156
:101288000101010101010101010101010101010146
:101298000101010101010101010101010101010136
:1012A8000101010101010101010101010101010126
:1012B80001010101020202020202070707070707EC
:1012C80007070707070707070707010101010101CA
:1012D80001010101010101010101010101010101F6
:1012E8000101010707070707070707070707070798
:1012F80007070303030303030202020202020707AC
:101308000707070707070707070707070707010171
:101318000101030303030303030303030303030399
:101328000303030101010107070707070707070769
:101338000707070707070303030303030202020261
:10134800020207070707070707070707070707072F
:101358000707010101010303030303030303030355
:101368000303030303030301010101070707070739
:10137800070707070707070707070303030303030D
:101388000202020202020707070707070707070703
:101398000707070707070101010103030303030305
:1013A8000303030303030303030303010101010709
:1013B80007070707070707070707070707070303BD
:1013C80003030303020202020202070707070707D3
:1013D80007070707070707070707010101010303B5
:1013E80003020202020202020202020303030301D1
:1013F8000101010707070707070707070707070787
:10140800070703030303030302020202020207079A
:101418000707070707070707070707070707010160
:101428000101030303020202020202020202020392
:101438000303030101010107070707070707070758
:101448000707070707070303030303030202020250
:10145800020207070707070707070707070707071E
:10146800070701010101030303020202020202024B
:10147800020202030303030101010107070707072B
:1014880007070707070707070707030303030303FC
:1014980002020202020207070707070707070707F2
:1014A80007070707070701010101030303020202F7
:1014B80002020202020202030303030101010107FF
:1014C80007070707070707070707070707070303AC
:1014D80003030303020202020202070707070707C2
:1014E80007070707070707070707010101010303A4
:1014F80003020202020202020202020303030301C0
:101508000101010707070707070707070707070775
:101518000707030303030303020202020202070789
:10152800070707070707070707070707070701014F
:101538000101030303020202020202020202020381
:101548000303030101010107070707070707070747
:10155800070707070707030303030303020202023F
:10156800020207070707070707070707070707070D
:10157800070701010101030303020202020202023A
:10158800020202030303030101010107070707071A
:1015980007070707070707070707030303030303EB
:1015A80002020202020207070707070707070707E1
:1015B80007070707070701010101030303020202E6
:1015C80002020202020202030303030101010107EE
:1015D800070707070707070707070707070703039B
:1015E80003030303020202020202070707070707B1
:1015F8000707070707070707070701010101030393
:1016080003020202020202020202020303030301AE
:101618000101010707070707070707070707070764
:101628000707030303030303020202020202070778
:10163800070707070707070707070707070701013E
:101648000101030303020202020202020202020370
:101658000303030101010107070707070707070736
:10166800070707070707030303030303020202022E
:1016780002020707070707070707070707070707FC
:101688000707010101010303030202020202020229
:101698000202020303030301010101070707070709
:1016A80007070707070707070707030303030303DA
:1016B80002020202020207070707070707070707D0
:1016C80007070707070701010101030303020202D5
:1016D80002020202020202030303030101010107DD
:1016E800070707070707070707070707070703038A
:1016F80003030303020202020202070707070707A0
:101708000707070707070707070701010101030381
:10171800030202020202020202020203030303019D
:101728000101010707070707070707070707070753
:101738000707030303030303020202020202070767
:10174800070707070707070707070707070701012D
:10175800010103030302020202020202020202035F
:101768000303030101010107070707070707070725
:10177800070707070707030303030303020202021D
:1017880002020707070707070707070707070707EB
:101798000707010101010303030202020202020218
:1017A80002020203030303010101010707070707F8
:1017B80007070707070707070707030303030303C9
:1017C80002020202020207070707070707070707BF
:1017D80007070707070701010101030303020202C4
:1017E80002020202020202030303030101010107CC
:1017F8000707070707070707070707070707030379
:10180800030303030202020202020707070707078E
:101818000707070707070707070701010101030370
:10182800030202020202020202020203030303018C
:101838000101010707070707070707070707070742
:101848000707030303030303020202020202070756
:10185800070707070707070707070707070701011C
:10186800010103030302020202020202020202034E
:101878000303030101010107070707070707070714
:10188800070707070707030303030303020202020C
:1018980002020707070707070707070707070707DA
:1018A8000707010101010303030202020202020207
:1018B80002020203030303010101010707070707E7
:1018C80007070707070707070707030303030303B8
:1018D80002020202020207070707070707070707AE
:1018E80007070707070701010101030303020202B3
:1018F80002020202020202030303030101010107BB
:101908000707070707070707070707070707030367
:10191800030303030202020202020707070707077D
:10192800070707070707070707070101010103035F
:10193800030202020202020202020203030303017B
:101948000101010707070707070707070707070731
:101958000707030303030303020202020202070745
:10196800070707070707070707070707070701010B
:10197800010103030302020202020202020202033D
:101988000303030101010107070707070707070703
:1019980007070707070703030303030302020202FB
:1019A80002020707070707070707070707070707C9
:1019B80007070101010103030302020202020202F6
:1019C80002020203030303010101010707070707D6
:1019D80007070707070707070707030303030303A7
:1019E800020202020202070707070707070707079D
:1019F80007070707070701010101030303020202A2
:101A080002020202020202030303030101010107A9
:101A18000707070707070707070707070707030356
:101A2800030303030202020202020707070707076C
:101A3800070707070707070707070101010103034E
:101A4800030202020202020202020203030303016A
:101A58000101010707070707070707070707070720
:101A68000707030303030303020202020202070734
:101A780007070707070707070707070707070101FA
:101A8800010103030302020202020202020202032C
:101A980003030301010101070707070707070707F2
:101AA80007070707070703030303030302020202EA
:101AB80002020707070707070707070707070707B8
:101AC80007070101010103030302020202020202E5
:101AD80002020203030303010101010707070707C5
:101AE8000707070707070707070703030303030396
:101AF800020202020202070707070707070707078C
:101B08000707070707070101010103030302020290
:101B18000202020202020203030303010101010798
:101B28000707070707070707070707070707030345
:101B3800030303030202020202020707070707075B
:101B4800070707070707070707070101010103033D
:101B5800030303030303030303030303030303014F
:101B6800010101070707070707070707070707070F
:101B78000707030303030303020202020202070723
:101B880007070707070707070707070707070101E9
:101B98000101030303030303030303030303030311
:101BA80003030301010101070707070707070707E1
:101BB80007070707070703030303030302020202D9
:101BC80002020707070707070707070707070707A7
:101BD80007070101010103030303030303030303CD
:101BE80003030303030303010101010707070707B1
:101BF8000707070707070707070703030303030385
:101C0800020202020202070707070707070707077A
:101C18000707070707070101010101010101010188
:101C28000101010101010101010101010101010796
:101C38000707070707070707070707070707030334
:101C48000303030301010101010101010101010174
:101C5800010101010101010101010101010101016C
:101C6800010101010101010101010101010101015C
:101C7800010101010101010101010101010101014C
:101C8800010101010101010101010101010101013C
:101C9800010101010101010101010101010101012C
:101CA800010101010101010101010101010101011C
:101CB800010101010101010101010101010101010C
:101CC80001010101010101010101010101010101FC
:101CD80001010101010101010101010101010101EC
:101CE80001010101010101010101010101010101DC
:101CF80001010101010101010101010101010101CC
:101D080001010101010101010101010101010101BB
:101D180001010101010101010101010101010101AB
:101D2800010101010101010101010101010101019B
:101D3800010101010101010101010101010101018B
:101D4800010101010101010101010101010101017B
:101D58000101010102020202020207070707070741
:101D680007070707070707070707070707070707FB
:101D780007070707070707070707070707070707EB
:101D880007070707070707070707070707070707DB
:101D98000707030303030303020202020202070701
:101DA80007070707070707070707070707070707BB
:101DB80007070707070707070707070707070707AB
:101DC800070707070707070707070707070707079B
:101DD80007070707070703030303030302020202B7
:101DE8000202070707070707070707070707070785
:101DF800070707070707070707070707070707076B
:101E0800070707070707070707070707070707075A
:101E18000707070707070707070703030303030362
:101E28000202020202020707070707070707070758
:101E3800070707070707070707070707070707072A
:101E4800070707070707070707070707070707071A
:101E58000707070707070707070707070707030312
:101E68000303030302020202020207070707070728
:101E780007070707070707070707070707070707EA
:101E880007070707070707070707070707070707DA
:101E980007070707070707070707070707070707CA
:101EA80007070303030303030202020202020707F0
:101EB80007070707070707070707070707070707AA
:101EC800070707070707070707070707070707079A
:101ED800070707070707070707070707070707078A
:101EE80007070707070703030303030302020202A6
:101EF8000202070707070707070707070707070774
:101F08000707070707070707070707070707070759
:101F18000707070707070707070707070707070749
:101F28000707070707070707070703030303030351
:101F38000202020202020707070707070707070747
:101F48000707070707070707070707070707070719
:101F58000707070707070707070707070707070709
:101F68000707070707070707070707070707030301
:101F78000303030302020202020207070707070717
:101F880007070707070707070707070707070707D9
:101F980007070707070707070707070707070707C9
:101FA80007070707070707070707070707070707B9
:101FB80007070303030303030202020202020707DF
:101FC8000707070707070707070707070707070799
:101FD8000707070707070707070707070707070789
:101FE8000707070707070707070707070707070779
:101FF8000707070707070303030303030202020295
:102008000202070707070707070707070707070762
:102018000707070707070707070707070707070748
:102028000707070707070707070707070707070738
:102038000707070707070707070703030303030340
:102048000202020202020707070707070707070736
:102058000707070707070707070707070707070708
:1020680007070707070707070707070707070707F8
:1020780007070707070707070707070707070303F0
:102088000303030302020202020207070707070706
:1020980007070707070707070707070707070707C8
:1020A80007070707070707070707070707070707B8
:1020B80007070707070707070707070707070707A8
:1020C80007070303030303030202020202020707CE
:1020D8000707070707070707070707070707070788
:1020E8000707070707070707070707070707070778
:1020F8000707070707070707070707070707070768
:102108000707070707070303030303030202020283
:102118000202070707070707070707070707070751
:102128000707070707070707070707070707070737
:102138000707070707070707070707070707070727
:10214800070707070707070707070303030303032F
:102158000202020202020707070707070707070725
:1021680007070707070707070707070707070707F7
:1021780007070707070707070707070707070707E7
:1021880007070707070707070707070707070303DF
:1021980003030303020202020202070707070707F5
:1021A80007070707070707070707070707070707B7
:1021B80007070707070707070707070707070707A7
:1021C8000707070707070707070707070707070797
:1021D80007070303030303030202020202020707BD
:1021E8000707070707070707070707070707070777
:1021F8000707070707070707070707070707070767
:102208000707070707070707070707070707070756
:102218000707070707070303030303030202020272
:102228000202070707070707070707070707070740
:102238000707070707070707070707070707070726
:102248000707070707070707070707070707070716
:10225800070707070707070707070303030303031E
:102268000101010101010101010101010101010156
:102278000101010101010101010101010101010146
:102288000101010101010101010101010101010136
:102298000101010101010101010101010101010126
:1022A8000101010101010101010101010101010116
:1022B8000101010101010101010101010101010106
:1022C80001010101010101010101010101010101F6
:1022D80001010101010101010101010101010101E6
:1022E80001010101010101010101010101010101D6
:1022F80001010101010101010101010101010101C6
:1023080001010101010101010101010101010101B5
:1023180001010101010101010101010101010101A5
:102328000101010101010101010101010101010195
:102338000101010101010101010101010101010185
:102348000101010101010101010101010101010175
:102358000101010101010101010101010101010165
:102368000101010101010101010101010101010155
:102378000202020202020707070707070707070703
:1023880007070707070707070707070707070707D5
:1023980007070707070707070707070707070707C5
:1023A80007070707070707070707070707070303BD
:1023B80003030303020202020202070707070707D3
:1023C8000707070707070707070707070707070795
:1023D8000707070707070707070707070707070785
:1023E8000707070707070707070707070707070775
:1023F800070703030303030302020202020207079B
:102408000707070707070707070707070707070754
:102418000707070707070707070707070707070744
:102428000707070707070707070707070707070734
:102438000707070707070303030303030202020250
:10244800020207070707070707070707070707071E
:102458000707070707070707070707070707070704
:1024680007070707070707070707070707070707F4
:1024780007070707070707070707030303030303FC
:1024880002020202020207070707070707070707F2
:1024980007070707070707070707070707070707C4
:1024A80007070707070707070707070707070707B4
:1024B80007070707070707070707070707070303AC
:1024C80003030303020202020202070707070707C2
:1024D8000707070707070707070707070707070784
:1024E8000707070707070707070707070707070774
:1024F8000707070707070707070707070707070764
:102508000707030303030303020202020202070789
:102518000707070707070707070707070707070743
:102528000707070707070707070707070707070733
:102538000707070707070707070707070707070723
:10254800070707070707030303030303020202023F
:10255800020207070707070707070707070707070D
:1025680007070707070707070707070707070707F3
:1025780007070707070707070707070707070707E3
:1025880007070707070707070707030303030303EB
:1025980002020202020207070707070707070707E1
:1025A80007070707070707070707070707070707B3
:1025B80007070707070707070707070707070707A3
:1025C800070707070707070707070707070703039B
:1025D80003030303020202020202070707070707B1
:1025E8000707070707070707070707070707070773
:1025F8000707070707070707070707070707070763
:102608000707070707070707070707070707070752
:102618000707030303030303020202020202070778
:102628000707070707070707070707070707070732
:102638000707070707070707070707070707070722
:102648000707070707070707070707070707070712
:10265800070707070707030303030303020202022E
:1026680002020707070707070707070707070707FC
:1026780007070707070707070707070707070707E2
:1026880007070707070707070707070707070707D2
:1026980007070707070707070707030303030303DA
:1026A80002020202020207070707070707070707D0
:1026B80007070707070707070707070707070707A2
:1026C8000707070707070707070707070707070792
:1026D800070707070707070707070707070703038A
:1026E80003030303020202020202070707070707A0
:1026F8000707070707070707070707070707070762
:102708000707070707070707070707070707070751
:102718000707070707070707070707070707070741
:102728000707030303030303020202020202070767
:102738000707070707070707070707070707070721
:102748000707070707070707070707070707070711
:102758000707070707070707070707070707070701
:10276800070707070707030303030303020202021D
:1027780002020707070707070707070707070707EB
:1027880007070707070707070707070707070707D1
:1027980007070707070707070707070707070707C1
:1027A80007070707070707070707030303030303C9
:1027B80002020202020207070707070707070707BF
:1027C8000707070707070707070707070707070791
:1027D8000707070707070707070707070707070781
:1027E8000707070707070707070707070707030379
:1027F800030303030202020202020707070707078F
:102808000707070707070707070707070707070750
:102818000707070707070707070707070707070740
:102828000707070707070707070707070707070730
:102838000707030303030303010101010101010168
:102848000101010101010101010101010101010170
:102858000101010101010101010101010101010160
:102868000101010101010101010101010101010150
:102878000101010101010101010101010101010140
:102888000101010101010101010101010101010130
:102898000101010101010101010101010101010120
:1028A8000101010101010101010101010101010110
:1028B8000101010101010101010101010101010100
:1028C80001010101010101010101010101010101F0
:1028D80001010101010101010101010101010101E0
:1028E80001010101010101010101010101010101D0
:1028F80001010101010101010101010101010101C0
:1029080001010101010101010101010101010101AF
:10291800010101010101010101010101010101019F
:10292800010101010101010101010101010101018F
:10293800010101010101010101010101010101017F
:10294800010101010101010102020202020207075D
:1029580007070707070707070707070707070707FF
:1029680007070707070707070707070707070707EF
:1029780007070707070707070707070707070707DF
:1029880007070707070703030303030302020202FB
:1029980002020707070707070707070707070707C9
:1029A80007070707070707070707070707070707AF
:1029B800070707070707070707070707070707079F
:1029C80007070707070707070707030303030303A7
:1029D800020202020202070707070707070707079D
:1029E800070707070707070707070707070707076F
:1029F800070707070707070707070707070707075F
:102A08000707070707070707070707070707030356
:102A1800030303030202020202020707070707076C
:102A2800070707070707070707070707070707072E
:102A3800070707070707070707070707070707071E
:102A4800070707070707070707070707070707070E
:102A58000707030303030303020202020202070734
:102A680007070707070707070707070707070707EE
:102A780007070707070707070707070707070707DE
:102A880007070707070707070707070707070707CE
:102A980007070707070703030303030302020202EA
:102AA80002020707070707070707070707070707B8
:102AB800070707070707070707070707070707079E
:102AC800070707070707070707070707070707078E
:102AD8000707070707070707070703030303030396
:102AE800020202020202070707070707070707078C
:102AF800070707070707070707070707070707075E
:102B0800070707070707070707070707070707074D
:102B18000707070707070707070707070707030345
:102B2800030303030202020202020707070707075B
:102B3800070707070707070707070707070707071D
:102B4800070707070707070707070707070707070D
:102B580007070707070707070707070707070707FD
:102B68000707030303030303020202020202070723
:102B780007070707070707070707070707070707DD
:102B880007070707070707070707070707070707CD
:102B980007070707070707070707070707070707BD
:102BA80007070707070703030303030302020202D9
:102BB80002020707070707070707070707070707A7
:102BC800070707070707070707070707070707078D
:102BD800070707070707070707070707070707077D
:102BE8000707070707070707070703030303030385
:102BF800020202020202070707070707070707077B
:102C0800070707070707070707070707070707074C
:102C1800070707070707070707070707070707073C
:102C28000707070707070707070707070707030334
:102C3800030303030202020202020707070707074A
:102C4800070707070707070707070707070707070C
:102C580007070707070707070707070707070707FC
:102C680007070707070707070707070707070707EC
:102C78000707030303030303020202020202070712
:102C880007070707070707070707070707070707CC
:102C980007070707070707070707070707070707BC
:102CA80007070707070707070707070707070707AC
:102CB80007070707070703030303030302020202C8
:102CC8000202070707070707070707070707070796
:102CD800070707070707070707070707070707077C
:102CE800070707070707070707070707070707076C
:102CF8000707070707070707070703030303030374
:102D08000202020202020707070707070707070769
:102D1800070707070707070707070707070707073B
:102D2800070707070707070707070707070707072B
:102D38000707070707070707070707070707030323
:102D48000303030302020202020207070707070739
:102D580007070707070707070707070707070707FB
:102D680007070707070707070707070707070707EB
:102D780007070707070707070707070707070707DB
:102D88000707030303030303020202020202070701
:102D980007070707070707070707070707070707BB
:102DA80007070707070707070707070707070707AB
:102DB800070707070707070707070707070707079B
:102DC80007070707070703030303030302020202B7
:102DD8000202070707070707070707070707070785
:102DE800070707070707070707070707070707076B
:102DF800070707070707070707070707070707075B
:102E08000707070707070707070703030303030362
:102E18000202020202020707070707070707070758
:102E2800070707070707070707070707070707072A
:102E3800070707070707070707070707070707071A
:102E48000707070707070707070707070707030312
:102E58000303030302020202020207070707070728
:102E680007070707070707070707070707070707EA
:102E780007070707070707070707070707070707DA
:102E880007070707070707070707070707070707CA
:102E980007070303030303030202020202020707F0
:102EA80007070707070707070707070707070707AA
:102EB800070707070707070707070707070707079A
:102EC800070707070707070707070707070707078A
:102ED80007070707070703030303030302020202A6
:102EE8000202070707070707070707070707070774
:102EF800070707070707070707070707070707075A
:102F08000707070707070707070707070707070749
:102F18000707070707070707070703030303030351
:102F28000202020202020707070707070707070747
:102F38000707070707070707070707070707070719
:102F48000707070707070707070707070707070709
:102F58000707070707070707070707070707030301
:102F68000303030302020202020207070707070717
:102F780007070707070707070707070707070707D9
:102F880007070707070707070707070707070707C9
:102F980007070707070707070707070707070707B9
:102FA80007070303030303030202020202020707DF
:102FB8000707070707070707070707070707070799
:102FC8000707070707070707070707070707070789
:102FD8000707070707070707070707070707070779
:102FE8000707070707070303030303030101010199
:102FF80001010101010101010101010101010101B9
:1030080001010101010101010101010101010101A8
:103018000101010101010101010101010101010198
:103028000101010101010101010101010101010188
:103038000101010101010101010101010101010178
:103048000101010101010101010101010101010168
:103058000101010101010101010101010101010158
:103068000101010101010101010101010101010148
:103078000101010101010101010101010101010138
:103088000101010101010101010101010101010128
:103098000101010101010101010101010101010118
:1030A8000101010101010101010101010101010108
:1030B80001010101010101010101010101010101F8
:1030C80001010101010101010101010101010101E8
:1030D80001010101010101010101010101010101D8
:1030E80001010101010101010101010101010101C8
:1030F80001010101010101010101010102020202B4
:103108000202070707070707070707070707070751
:103118000707070707070707070707070707070737
:103128000707070707070707070707070707070727
:10313800070707070707070707070303030303032F
:103148000202020202020707070707070707070725
:1031580007070707070707070707070707070707F7
:1031680007070707070707070707070707070707E7
:1031780007070707070707070707070707070303DF
:1031880003030303020202020202070707070707F5
:1031980007070707070707070707070707070707B7
:1031A80007070707070707070707070707070707A7
:1031B8000707070707070707070707070707070797
:1031C80007070303030303030202020202020707BD
:1031D8000707070707070707070707070707070777
:1031E8000707070707070707070707070707070767
:1031F8000707070707070707070707070707070757
:103208000707070707070303030303030202020272
:103218000202070707070707070707070707070740
:103228000707070707070707070707070707070726
:103238000707070707070707070707070707070716
:10324800070707070707070707070303030303031E
:103258000202020202020707070707070707070714
:1032680007070707070707070707070707070707E6
:1032780007070707070707070707070707070707D6
:1032880007070707070707070707070707070303CE
:1032980003030303020202020202070707070707E4
:1032A80007070707070707070707070707070707A6
:1032B8000707070707070707070707070707070796
:1032C8000707070707070707070707070707070786
:1032D80007070303030303030202020202020707AC
:1032E8000707070707070707070707070707070766
:1032F8000707070707070707070707070707070756
:103308000707070707070707070707070707070745
:103318000707070707070303030303030202020261
:10332800020207070707070707070707070707072F
:103338000707070707070707070707070707070715
:103348000707070707070707070707070707070705
:10335800070707070707070707070303030303030D
:103368000202020202020707070707070707070703
:1033780007070707070707070707070707070707D5
:1033880007070707070707070707070707070707C5
:1033980007070707070707070707070707070303BD
:1033A80003030303020202020202070707070707D3
:1033B8000707070707070707070707070707070795
:1033C8000707070707070707070707070707070785
:1033D8000707070707070707070707070707070775
:1033E800070703030303030302020202020207079B
:1033F8000707070707070707070707070707070755
:103408000707070707070707070707070707070744
:103418000707070707070707070707070707070734
:103428000707070707070303030303030202020250
:10343800020207070707070707070707070707071E
:103448000707070707070707070707070707070704
:1034580007070707070707070707070707070707F4
:1034680007070707070707070707030303030303FC
:1034780002020202020207070707070707070707F2
:1034880007070707070707070707070707070707C4
:1034980007070707070707070707070707070707B4
:1034A80007070707070707070707070707070303AC
:1034B80003030303020202020202070707070707C2
:1034C8000707070707070707070707070707070784
:1034D8000707070707070707070707070707070774
:1034E8000707070707070707070707070707070764
:1034F800070703030303030302020202020207078A
:103508000707070707070707070707070707070743
:103518000707070707070707070707070707070733
:103528000707070707070707070707070707070723
:10353800070707070707030303030303020202023F
:10354800020207070707070707070707070707070D
:1035580007070707070707070707070707070707F3
:1035680007070707070707070707070707070707E3
:1035780007070707070707070707030303030303EB
:1035880002020202020207070707070707070707E1
:1035980007070707070707070707070707070707B3
:1035A80007070707070707070707070707070707A3
:1035B800070707070707070707070707070703039B
:0435C80003030303F3
:00000001FF
