:100000000C9486010C94A7010C94A7010C94A701F1
:100010000C94A7010C94A7010C94A7010C94A701C0
:100020000C94A7010C94A7010C94A7010C94A701B0
:100030000C94A7010C94A7010C94A7010C94A701A0
:100040000C94A7010C94A7010C94A7010C94A70190
:100050000C94A7010C94A7010C94A7010C94A70180
:100060000C94A7010C94A7010C94A7010C94A70170
:100070000C94A7010C94A7010C94A7010C94A70160
:100080000C94A7010C94A7010C94A7010C94A70150
:100090000C94A7010C94A7010C94A7010C94A70140
:1000A0000C94A7010C94A7010C94A7010C94A70130
:1000B0000C94A7010C94A7010C94A7010C94A70120
:1000C0000C94A7010C94A7010C94A7010C94A70110
:1000D0000C94A7010C94A7010C94A7010C94A70100
:1000E0000C94A7010C94A7010C94A7010C94A701F0
:1000F0000C94A7010C94A7010C94A7010C94A701E0
:100100000C94A7010C94A7010C94A7010C94A701CF
:100110000C94A7010C94A7010C94A7010C94A701BF
:100120000C94A7010C94A7010C94A7010C94A701AF
:100130000C94A7010C94A7010C94A7010C94A7019F
:100140000C94A7010C94A7010C94A7010C94A7018F
:100150000C94A7010C94A7010C94A7010C94A7017F
:100160000C94A7010C94A7010C94A7010C94A7016F
:100170000C94A7010C94A7010C94A7010C94A7015F
:100180000C94A7010C94A7010C94A7010C94A7014F
:100190000C94A7010C94A7010C94A7010C94A7013F
:1001A0000C94A7010C94A7010C94A7010C94A7012F
:1001B0000C94A7010C94A7010C94A7010C94A7011F
:1001C0000C94A7010C94A7010C94A7010C94A7010F
:1001D0000C94A7010C94A7010C94A7010C94A701FF
:1001E0000C94A7010C94A70116023A025F02840244
:1001F000A902CE02F30218033D0362038703AC0396
:10020000D103F7031D04430469048F04B504DB0420
:100210000105B506CF06EA06050720073B07560786
:1002200071078D07A907C507E007FC071708330802
:100230004F086A088608A208BD08D908F408100902
:100240002C09480963097E099909B509D109ED0905
:10025000080A230A3F0A5B0A770A930AAF0ACB0A05
:10026000E80A050B210B3D0B5A0B760B930BAF0BDA
:10027000CB0BE80B050C210C3C0C580C730C8F0CB1
:10028000AB0CC70CE30CFF0C1C0D390D540D700D9D
:100290008B0DA70DC30DDF0DFC0D180E340E510E86
:1002A0006D0E8A0EA60EC30EDF0EFA0E160F320F5B
:1002B0004D0F690F850FA10FBE0FDA0FF70F131047
:1002C00030104C1068108510A010BC10D810F3101E
:1002D0000F112B114811651181119D11B811D41105
:1002E000F0110C12271243125F127C129912B512F0
:1002F000D112EE120A13271343135F137C139913C1
:10030000B513D113EC1308142414401411241FBE88
:10031000CFEFDFE3DEBFCDBF00E00CBF10E2A0E017
:10032000B0E2E2ECFAE200E00BBF02C007900D92EF
:10033000A030B107D9F710E2A0E0B0E201C01D92F1
:10034000A33DB107E1F70E94EE140C945F150C94E5
:1003500000009091440627E030E061E070E0482F13
:1003600050E0CB01022E02C0880F991F0A94E2F7D9
:10037000842395231816190614F490E201C090E026
:1003800090934406892F8068809344069093440696
:10039000215030408FEF2F3F380719F7089580E044
:1003A0000E94A90180E00E94A90180E00E94A901A9
:1003B00080E00E94A90108958FEF0E94A9018FEFAC
:1003C0000E94A9018FEF0E94A9018FEF0E94A9014D
:1003D00008958FE080935000E0E4F0E0118288E11E
:1003E000E0E5F0E0858380915000806180935000CB
:1003F0008091510084FFFCCF88ED84BF84E080931E
:1004000040000895E82FFF27E7FDF095E531F1055D
:1004100008F09AC4EC50FF4F862F992787FD9095DE
:10042000EE0FFF1F0590F491E02D1994FC011816B2
:10043000190614F0E1E0F0E0E534F10514F0E4E42D
:10044000F0E03197DF01A157BF4D1C92DF01A55BA2
:10045000BF4D1C92ED5FFF4D1082862F992787FDBF
:100460009095E4E4F0E0E81BF90B1E161F060CF46F
:10047000F0C2EDC2DC011816190614F0A1E0B0E0DC
:10048000A534B10514F0A4E4B0E01197FD01E157E3
:10049000FF4D8FEF8083FD01E55BFF4D1082AD5F67
:1004A000BF4D1C92862F992787FD9095A4E4B0E05C
:1004B000A81BB90B1A161B060CF4DCC2D9C2DC014E
:1004C0001816190614F0A1E0B0E0A534B10514F037
:1004D000A4E4B0E01197FD01E157FF4D1082FD014A
:1004E000E55BFF4D8FEF8083AD5FBF4D1C92862F84
:1004F000992787FD9095A4E4B0E0A81BB90B1A16C4
:100500001B060CF4C4C2C1C2DC011816190614F093
:10051000A1E0B0E0A534B10514F0A4E4B0E0119777
:10052000FD01E157FF4D1082FD01E55BFF4D10829B
:10053000AD5FBF4D8FEF8C93862F992787FD9095E8
:10054000A4E4B0E0A81BB90B1A161B060CF4B0C249
:10055000ADC2DC011816190614F0A1E0B0E0A53414
:10056000B10514F0A4E4B0E01197FD01E157FF4D8F
:100570008FEF8083FD01E55BFF4D8083AD5FBF4D55
:100580001C92862F992787FD9095A4E4B0E0A81BC4
:10059000B90B1A161B060CF498C295C2DC0118168A
:1005A000190614F0A1E0B0E0A534B10514F0A4E4FC
:1005B000B0E01197FD01E157FF4D1082FD01E55BB1
:1005C000FF4D8FEF8083AD5FBF4D8C93862F9927B2
:1005D00087FD9095A4E4B0E0A81BB90B1A161B0682
:1005E0000CF484C281C2DC011816190614F0A1E0D3
:1005F000B0E0A534B10514F0A4E4B0E01197FD011A
:10060000E157FF4D8FEF8083FD01E55BFF4D1082C9
:10061000AD5FBF4D8C93862F992787FD9095A4E4FD
:10062000B0E0A81BB90B1A161B060CF470C26DC201
:10063000DC011816190614F0A1E0B0E0A534B105EC
:1006400014F0A4E4B0E01197FD01E157FF4D8FEFE6
:100650008083FD01E55BFF4D8083AD5FBF4D8C93D3
:10066000862F992787FD9095A4E4B0E0A81BB90BCD
:100670001A161B060CF45DC25AC2DC0118161906C4
:1006800014F0A1E0B0E0A534B10514F0A4E4B0E0AA
:100690001197FD01E157FF4D80E88083FD01E55B87
:1006A000FF4D1082AD5FBF4D1C92862F992787FDAD
:1006B0009095A4E4B0E0A81BB90B1A161B060CF425
:1006C00045C242C2DC011816190614F0A1E0B0E0E0
:1006D000A534B10514F0A4E4B0E01197FD01E15791
:1006E000FF4D1082FD01E55BFF4D80E88083AD5F2B
:1006F000BF4D1C92862F992787FD9095A4E4B0E00A
:10070000A81BB90B1A161B060CF432C22FC2DC014F
:100710001816190614F0A1E0B0E0A534B10514F0E4
:10072000A4E4B0E01197FD01E157FF4D1082FD01F7
:10073000E55BFF4D1082AD5FBF4D80E88C93862F47
:10074000992787FD9095A4E4B0E0A81BB90B1A1671
:100750001B060CF422C21FC2DC011816190614F085
:10076000A1E0B0E0A534B10514F0A4E4B0E0119725
:10077000FD01E157FF4D80E88083FD01E55BFF4D02
:100780008083AD5FBF4D8C93862F992787FD909511
:10079000A4E4B0E0A81BB90B1A161B060CF40AC29D
:1007A00007C2FC011816190614F0E1E0F0E0E53488
:1007B000F10514F0E4E4F0E03197DF01A157BF4DFB
:1007C0008FEF8C93DF01A55BBF4D80E88C93ED5FCD
:1007D000FF4D1082862F992787FD9095E4E4F0E085
:1007E000E81BF90B1E161F060CF4F8C1F5C1FC013D
:1007F0001816190614F0E1E0F0E0E534F10514F004
:10080000E4E4F0E03197DF01A157BF4D80E88C931D
:10081000DF01A55BBF4D8FEF8C93ED5FFF4D108225
:10082000862F992787FD9095E4E4F0E0E81BF90B0B
:100830001E161F060CF4E4C1E1C1DC0118161906EE
:1008400014F0A1E0B0E0A534B10514F0A4E4B0E0E8
:100850001197FD01E157FF4D8FEF8083FD01E55BAF
:10086000FF4D1082AD5FBF4D80E88C93862F992796
:1008700087FD9095A4E4B0E0A81BB90B1A161B06DF
:100880000CF4D4C1D1C1DC011816190614F0A1E092
:10089000B0E0A534B10514F0A4E4B0E01197FD0177
:1008A000E157FF4D80E88083FD01E55BFF4D10823D
:1008B000AD5FBF4D8FEF8C93862F992787FD909565
:1008C000A4E4B0E0A81BB90B1A161B060CF4C0C1B7
:1008D000BDC1DC011816190614F0A1E0B0E0A53482
:1008E000B10514F0A4E4B0E01197FD01E157FF4D0C
:1008F0001082FD01E55BFF4D80E88083AD5FBF4D59
:100900008FEF8C93862F992787FD9095A4E4B0E014
:10091000A81BB90B1A161B060CF4ACC1A9C1DC014B
:100920001816190614F0A1E0B0E0A534B10514F0D2
:10093000A4E4B0E01197FD01E157FF4D1082FD01E5
:10094000E55BFF4D8FEF8083AD5FBF4D80E88C93FB
:10095000862F992787FD9095A4E4B0E0A81BB90BDA
:100960001A161B060CF49BC198C1FC011816190637
:1009700014F0E1E0F0E0E534F10514F0E4E4F0E037
:100980003197DF01A157BF4D8FEF8C93DF01A55B3E
:10099000BF4D80E48C93ED5FFF4D8083862F9927B8
:1009A00087FD9095E4E4F0E0E81BF90B1E161F06A6
:1009B0000CF48BC188C1FC011816190614F0E1E093
:1009C000F0E0E534F10514F0E4E4F0E03197DF0104
:1009D000A157BF4D90E49C93DF01A55BBF4D8FEF06
:1009E0008C93ED5FFF4D9083862F992787FD90951F
:1009F000E4E4F0E0E81BF90B1E161F060CF47BC1C3
:100A000078C1DC011816190614F0A1E0B0E0A53495
:100A1000B10514F0A4E4B0E01197FD01E157FF4DDA
:100A200080E48083FD01E55BFF4D8083AD5FBF4DBA
:100A30008FEF8C93862F992787FD9095A4E4B0E0E3
:100A4000A81BB90B1A161B060CF46BC168C1E1E0B8
:100A5000F0E0E534F10514F0E4E4F0E03197DF0173
:100A6000A157BF4D1C92DF01A55BBF4D1C92D8C0A2
:100A7000A1E0B0E0A534B10514F0A4E4B0E0119712
:100A8000FD01E157FF4D8FEF6BC0A1E0B0E0A53451
:100A9000B10514F0A4E4B0E01197FD01E157FF4D5A
:100AA0001082FD01E55BFF4D8FEF70C0A1E0B0E06B
:100AB000A534B10514F0A4E4B0E01197FD01E157AD
:100AC000FF4D1082D0C0A1E0B0E0A534B10514F014
:100AD000A4E4B0E01197FD01E157FF4D8FEF808353
:100AE000FD01E55BFF4D52C0A1E0B0E0A534B105CA
:100AF00014F0A4E4B0E01197FD01E157FF4D10821E
:100B0000FD01E55BFF4D8FEF63C0A1E0B0E0A534D0
:100B1000B10514F0A4E4B0E01197FD01E157FF4DD9
:100B20008FEF8083FD01E55BFF4D108252C0A1E095
:100B3000B0E0A534B10514F0A4E4B0E01197FD01D4
:100B4000E157FF4D8FEF40C0A1E0B0E0A534B10503
:100B500014F0A4E4B0E01197FD01E157FF4D80E8E7
:100B60008083FD01E55BFF4D108211C0A1E0B0E084
:100B7000A534B10514F0A4E4B0E01197FD01E157EC
:100B8000FF4D1082FD01E55BFF4D80E88083AD5F86
:100B9000BF4D1C920895A1E0B0E0A534B10514F05A
:100BA000A4E4B0E01197FD01E157FF4D108249C068
:100BB000A1E0B0E0A534B10514F0A4E4B0E01197D1
:100BC000FD01E157FF4D80E88083FD01E55BFF4DAE
:100BD0008083AD5FBF4D75C0E1E0F0E0E534F10525
:100BE00014F0E4E4F0E03197DF01A157BF4D8FEF3F
:100BF0008C93DF01A55BBF4D80E811C0E1E0F0E020
:100C0000E534F10514F0E4E4F0E03197DF01A15799
:100C1000BF4D80E88C93DF01A55BBF4D8FEF8C93B8
:100C2000ED5FFF4D10820895A1E0B0E0A534B1055D
:100C300014F0A4E4B0E01197FD01E157FF4D8FEFF0
:100C40008083FD01E55BFF4D108238C0A1E0B0E07C
:100C5000A534B10514F0A4E4B0E01197FD01E1570B
:100C6000FF4D80E88083FD01E55BFF4D108211C0E0
:100C7000A1E0B0E0A534B10514F0A4E4B0E0119710
:100C8000FD01E157FF4D1082FD01E55BFF4D80E85E
:100C90008083AD5FBF4D8FEF14C0A1E0B0E0A534FD
:100CA000B10514F0A4E4B0E01197FD01E157FF4D48
:100CB0001082FD01E55BFF4D8FEF8083AD5FBF4D7F
:100CC00080E88C930895E1E0F0E0E534F10514F05C
:100CD000E4E4F0E03197DF01A157BF4D8FEF8C9333
:100CE000DF01A55BBF4D80E48C93ED5FFF4D8083FA
:100CF0000895E1E0F0E0E534F10514F0E4E4F0E01B
:100D00003197DF01A157BF4D90E49C93DF01A55BB4
:100D1000BF4D8FEF8C93ED5FFF4D90830895A1E061
:100D2000B0E0A534B10514F0A4E4B0E01197FD01E2
:100D3000E157FF4D80E48083FD01E55BFF4D80833B
:100D4000AD5FBF4D8FEF8C930895E82FF0E0ED3746
:100D5000F10510F00C945A14E75FFE4F20E0EE0FFF
:100D6000FF1F0590F491E02D1994862F922F1816ED
:100D7000190614F081E090E08534910514F084E4C4
:100D800090E0FC013197DF01A157BF4D1C92DF01BC
:100D9000A55BBF4D1C92ED5FFF4D10820895862F1D
:100DA000922F1816190614F081E090E08534910511
:100DB00014F084E490E0DC011197FD01E157FF4D50
:100DC0001082FD01E55BFF4D1082AD5FBF4D80E4F9
:100DD0008C930895862F922F1816190614F081E02F
:100DE00090E08534910514F084E490E0DC011197E3
:100DF000FD01E157FF4D1082FD01E55BFF4D1082C3
:100E0000AD5FBF4D80E88C930895862F922F181602
:100E1000190614F081E090E08534910514F084E423
:100E200090E0DC011197FD01E157FF4D1082FD01BB
:100E3000E55BFF4D1082AD5FBF4D80EC8C93089554
:100E4000862F922F1816190614F081E090E0853451
:100E5000910514F084E490E0DC011197FD01E15765
:100E6000FF4D1082FD01E55BFF4D1082AD5FBF4D70
:100E70008FEF8C930895862F922F1816190614F071
:100E800081E090E08534910514F084E490E0DC0189
:100E90001197FD01E157FF4D1082FD01E55BFF4D0C
:100EA00080E48083AD5FBF4D1C920895862F922F02
:100EB0001816190614F081E090E08534910514F0BD
:100EC00084E490E0DC011197FD01E157FF4D1082B1
:100ED000FD01E55BFF4D80E48083AD5FBF4D8C93EA
:100EE0000895862F922F1816190614F081E090E0CD
:100EF0008534910514F084E490E0DC011197FD0144
:100F0000E157FF4D1082FD01E55BFF4D80E48083DA
:100F1000AD5FBF4D80E88C930895862F922F1816F1
:100F2000190614F081E090E08534910514F084E412
:100F300090E0DC011197FD01E157FF4D1082FD01AA
:100F4000E55BFF4D80E48083AD5FBF4D80EC8C930B
:100F50000895862F922F1816190614F081E090E05C
:100F60008534910514F084E490E0DC011197FD01D3
:100F7000E157FF4D1082FD01E55BFF4D80E480836A
:100F8000AD5FBF4D8FEF8C930895862F922F18166B
:100F9000190614F081E090E08534910514F084E4A2
:100FA00090E0DC011197FD01E157FF4D1082FD013A
:100FB000E55BFF4D80E88083AD5FBF4D1C920895D7
:100FC000862F922F1816190614F081E090E08534D0
:100FD000910514F084E490E0DC011197FD01E157E4
:100FE000FF4D1082FD01E55BFF4D80E88083AD5F22
:100FF000BF4D80E48C930895862F922F1816190602
:1010000014F081E090E08534910514F084E490E0E0
:10101000DC011197FD01E157FF4D1082FD01E55BF9
:10102000FF4D80E88083AD5FBF4D8C930895862F80
:10103000922F1816190614F081E090E0853491057E
:1010400014F084E490E0DC011197FD01E157FF4DBD
:101050001082FD01E55BFF4D80E88083AD5FBF4DF1
:1010600080EC8C930895862F922F1816190614F091
:1010700081E090E08534910514F084E490E0DC0197
:101080001197FD01E157FF4D1082FD01E55BFF4D1A
:1010900080E88083AD5FBF4D8FEF8C930895862FDE
:1010A000922F1816190614F081E090E0853491050E
:1010B00014F084E490E0DC011197FD01E157FF4D4D
:1010C0001082FD01E55BFF4D80EC8083AD5FBF4D7D
:1010D0001C920895862F922F1816190614F081E09D
:1010E00090E08534910514F084E490E0DC011197E0
:1010F000FD01E157FF4D1082FD01E55BFF4D80ECE6
:101100008083AD5FBF4D80E48C930895862F922F2E
:101110001816190614F081E090E08534910514F05A
:1011200084E490E0DC011197FD01E157FF4D10824E
:10113000FD01E55BFF4D80EC8083AD5FBF4D80E836
:101140008C930895862F922F1816190614F081E0BB
:1011500090E08534910514F084E490E0DC0111976F
:10116000FD01E157FF4D1082FD01E55BFF4D80EC75
:101170008083AD5FBF4D8C930895862F922F1816F4
:10118000190614F081E090E08534910514F084E4B0
:1011900090E0DC011197FD01E157FF4D1082FD0148
:1011A000E55BFF4D80EC8083AD5FBF4D8FEF8C938F
:1011B0000895862F922F1816190614F081E090E0FA
:1011C0008534910514F084E490E0DC011197FD0171
:1011D000E157FF4D1082FD01E55BFF4D8FEF8083EE
:1011E000AD5FBF4D1C920895862F922F18161906D9
:1011F00014F081E090E08534910514F084E490E0EF
:10120000DC011197FD01E157FF4D1082FD01E55B07
:10121000FF4D8FEF8083AD5FBF4D80E48C930895C9
:10122000862F922F1816190614F081E090E085346D
:10123000910514F084E490E0DC011197FD01E15781
:10124000FF4D1082FD01E55BFF4D8FEF8083AD5FA9
:10125000BF4D80E88C930895862F922F181619069B
:1012600014F081E090E08534910514F084E490E07E
:10127000DC011197FD01E157FF4D1082FD01E55B97
:10128000FF4D8FEF8083AD5FBF4D80EC8C93089551
:10129000862F922F1816190614F081E090E08534FD
:1012A000910514F084E490E0DC011197FD01E15711
:1012B000FF4D1082FD01E55BFF4D8FEF8083AD5F39
:1012C000BF4D8C930895862F922F1816190614F08F
:1012D00081E090E08534910514F084E490E0DC0135
:1012E0001197FD01E157FF4D80E48083FD01E55B2F
:1012F000FF4D1082AD5FBF4D1C920895862F922F37
:101300001816190614F081E090E08534910514F068
:1013100084E490E0DC011197FD01E157FF4D80E48A
:101320008083FD01E55BFF4D1082AD5FBF4D8C9367
:101330000895862F922F1816190614F081E090E078
:101340008534910514F084E490E0DC011197FD01EF
:10135000E157FF4D80E48083FD01E55BFF4D108286
:10136000AD5FBF4D80E88C930895862F922F18169D
:10137000190614F081E090E08534910514F084E4BE
:1013800090E0DC011197FD01E157FF4D80E480837F
:10139000FD01E55BFF4D1082AD5FBF4D80EC8C938E
:1013A0000895862F922F1816190614F081E090E008
:1013B0008534910514F084E490E0DC011197FD017F
:1013C000E157FF4D80E48083FD01E55BFF4D108216
:1013D000AD5FBF4D8FEF8C930895862F922F181617
:1013E000190614F081E090E08534910514F084E44E
:1013F00090E0DC011197FD01E157FF4D80E480830F
:10140000FD01E55BFF4D8083AD5FBF4D1C920895EC
:10141000862F922F1816190614F081E090E085347B
:10142000910514F084E490E0DC011197FD01E1578F
:10143000FF4D80E48083FD01E55BFF4D8083AD5F60
:10144000BF4D8C930895862F922F1816190614F00D
:1014500081E090E08534910514F084E490E0DC01B3
:101460001197FD01E157FF4D80E48083FD01E55BAD
:10147000FF4D8083AD5FBF4D80E88C930895862F2C
:10148000922F1816190614F081E090E0853491052A
:1014900014F084E490E0DC011197FD01E157FF4D69
:1014A00080E48083FD01E55BFF4D8083AD5FBF4D30
:1014B00080EC8C930895862F922F1816190614F03D
:1014C00081E090E08534910514F084E490E0DC0143
:1014D0001197FD01E157FF4D80E48083FD01E55B3D
:1014E000FF4D8083AD5FBF4D8FEF8C930895862FA6
:1014F000922F1816190614F081E090E085349105BA
:1015000014F084E490E0FC013197DF01A157BF4D56
:1015100080E48C93DF01A55BBF4D80E88C93ED5F89
:10152000FF4D10820895862F922F1816190614F079
:1015300081E090E08534910514F084E490E0FC01B2
:101540003197DF01A157BF4D90E49C93DF01A55B6C
:10155000BF4D80E88C93ED5FFF4D90830895862FFB
:10156000922F1816190614F081E090E08534910549
:1015700014F084E490E0FC013197DF01A157BF4DE6
:1015800080E48C93DF01A55BBF4D80E88C93ED5F19
:10159000FF4D80830895862F922F1816190614F098
:1015A00081E090E08534910514F084E490E0FC0142
:1015B0003197DF01A157BF4D80E48C93DF01A55B1C
:1015C000BF4D80E88C93ED5FFF4D80EC80830895E4
:1015D000862F922F1816190614F081E090E08534BA
:1015E000910514F084E490E0FC013197DF01A157EC
:1015F000BF4D80E48C93DF01A55BBF4D80E88C93E9
:10160000ED5FFF4D8FEF80830895862F922F181680
:10161000190614F081E090E08534910514F084E41B
:1016200090E0FC013197DF01A157BF4D80E48C931E
:10163000DF01A55BBF4D80EC8C93ED5FFF4D108209
:101640000895862F922F1816190614F081E090E065
:101650008534910514F084E490E0FC013197DF01BA
:10166000A157BF4D90E49C93DF01A55BBF4D80EC7B
:101670008C93ED5FFF4D90830895862F922F18165F
:10168000190614F081E090E08534910514F084E4AB
:1016900090E0FC013197DF01A157BF4D80E48C93AE
:1016A000DF01A55BBF4D80EC8C93ED5FFF4D80E8C3
:1016B00080830895862F922F1816190614F081E062
:1016C00090E08534910514F084E490E0FC013197BA
:1016D000DF01A157BF4D80E48C93DF01A55BBF4DB7
:1016E00080EC8C93ED5FFF4D80830895862F922FC1
:1016F0001816190614F081E090E08534910514F075
:1017000084E490E0FC013197DF01A157BF4D80E4F4
:101710008C93DF01A55BBF4D80EC8C93ED5FFF4D9B
:101720008FEF80830895862F922F1816190614F0D4
:1017300081E090E08534910514F084E490E0FC01B0
:101740003197DF01A157BF4D80E48C93DF01A55B8A
:10175000BF4D8FEF8C93ED5FFF4D10820895862F64
:10176000922F1816190614F081E090E08534910547
:1017700014F084E490E0FC013197DF01A157BF4DE4
:1017800090E49C93DF01A55BBF4D8FEF8C93ED5FE1
:10179000FF4D90830895862F922F1816190614F086
:1017A00081E090E08534910514F084E490E0FC0140
:1017B0003197DF01A157BF4D80E48C93DF01A55B1A
:1017C000BF4D8FEF8C93ED5FFF4D80E880830895D0
:1017D000862F922F1816190614F081E090E08534B8
:1017E000910514F084E490E0FC013197DF01A157EA
:1017F000BF4D80E48C93DF01A55BBF4D8FEF8C93D1
:10180000ED5FFF4D80EC80830895862F922F181690
:10181000190614F081E090E08534910514F084E419
:1018200090E0FC013197DF01A157BF4D80E48C931C
:10183000DF01A55BBF4D8FEF8C93ED5FFF4D808384
:101840000895862F922F1816190614F081E090E063
:101850008534910514F084E490E0DC011197FD01DA
:10186000E157FF4D80E88083FD01E55BFF4D10826D
:10187000AD5FBF4D1C920895862F922F1816190642
:1018800014F081E090E08534910514F084E490E058
:10189000DC011197FD01E157FF4D80E88083FD01D8
:1018A000E55BFF4D1082AD5FBF4D80E48C930895E2
:1018B000862F922F1816190614F081E090E08534D7
:1018C000910514F084E490E0DC011197FD01E157EB
:1018D000FF4D80E88083FD01E55BFF4D1082AD5F29
:1018E000BF4D8C930895862F922F1816190614F069
:1018F00081E090E08534910514F084E490E0DC010F
:101900001197FD01E157FF4D80E88083FD01E55B04
:10191000FF4D1082AD5FBF4D80EC8C930895862FF4
:10192000922F1816190614F081E090E08534910585
:1019300014F084E490E0DC011197FD01E157FF4DC4
:1019400080E88083FD01E55BFF4D1082AD5FBF4DF8
:101950008FEF8C930895862F922F1816190614F086
:1019600081E090E08534910514F084E490E0FC017E
:101970003197DF01A157BF4D80E88C93DF01A55B54
:10198000BF4D80E48C93ED5FFF4D10820895862F4C
:10199000922F1816190614F081E090E08534910515
:1019A00014F084E490E0FC013197DF01A157BF4DB2
:1019B00080E88C93DF01A55BBF4D80E48C93ED5FE5
:1019C000FF4D80830895862F922F1816190614F064
:1019D00081E090E08534910514F084E490E0FC010E
:1019E0003197DF01A157BF4D90E89C93DF01A55BC4
:1019F000BF4D80E48C93ED5FFF4D90830895862F5B
:101A0000922F1816190614F081E090E085349105A4
:101A100014F084E490E0FC013197DF01A157BF4D41
:101A200080E88C93DF01A55BBF4D80E48C93ED5F74
:101A3000FF4D80EC80830895862F922F181619068B
:101A400014F081E090E08534910514F084E490E096
:101A5000FC013197DF01A157BF4D80E88C93DF0176
:101A6000A55BBF4D80E48C93ED5FFF4D8FEF8083CE
:101A70000895862F922F1816190614F081E090E031
:101A80008534910514F084E490E0DC011197FD01A8
:101A9000E157FF4D80E88083FD01E55BFF4D8083CA
:101AA000AD5FBF4D1C920895862F922F1816190610
:101AB00014F081E090E08534910514F084E490E026
:101AC000DC011197FD01E157FF4D80E88083FD01A6
:101AD000E55BFF4D8083AD5FBF4D80E48C9308953F
:101AE000862F922F1816190614F081E090E08534A5
:101AF000910514F084E490E0DC011197FD01E157B9
:101B0000FF4D80E88083FD01E55BFF4D8083AD5F85
:101B1000BF4D8C930895862F922F1816190614F036
:101B200081E090E08534910514F084E490E0DC01DC
:101B30001197FD01E157FF4D80E88083FD01E55BD2
:101B4000FF4D8083AD5FBF4D80EC8C930895862F51
:101B5000922F1816190614F081E090E08534910553
:101B600014F084E490E0DC011197FD01E157FF4D92
:101B700080E88083FD01E55BFF4D8083AD5FBF4D55
:101B80008FEF8C930895862F922F1816190614F054
:101B900081E090E08534910514F084E490E0FC014C
:101BA0003197DF01A157BF4D80E88C93DF01A55B22
:101BB000BF4D80EC8C93ED5FFF4D10820895862F12
:101BC000922F1816190614F081E090E085349105E3
:101BD00014F084E490E0FC013197DF01A157BF4D80
:101BE00080E88C93DF01A55BBF4D80EC8C93ED5FAB
:101BF000FF4D80E480830895862F922F18161906D2
:101C000014F081E090E08534910514F084E490E0D4
:101C1000FC013197DF01A157BF4D90E89C93DF0194
:101C2000A55BBF4D80EC8C93ED5FFF4D90830895D5
:101C3000862F922F1816190614F081E090E0853453
:101C4000910514F084E490E0FC013197DF01A15785
:101C5000BF4D80E88C93DF01A55BBF4D80EC8C937A
:101C6000ED5FFF4D80830895862F922F1816190679
:101C700014F081E090E08534910514F084E490E064
:101C8000FC013197DF01A157BF4D80E88C93DF0144
:101C9000A55BBF4D80EC8C93ED5FFF4D8FEF808394
:101CA0000895862F922F1816190614F081E090E0FF
:101CB0008534910514F084E490E0FC013197DF0154
:101CC000A157BF4D80E88C93DF01A55BBF4D8FEF1F
:101CD0008C93ED5FFF4D10820895862F922F18167A
:101CE000190614F081E090E08534910514F084E445
:101CF00090E0FC013197DF01A157BF4D80E88C9344
:101D0000DF01A55BBF4D8FEF8C93ED5FFF4D80E44E
:101D100080830895862F922F1816190614F081E0FB
:101D200090E08534910514F084E490E0FC01319753
:101D3000DF01A157BF4D90E89C93DF01A55BBF4D2C
:101D40008FEF8C93ED5FFF4D90830895862F922F38
:101D50001816190614F081E090E08534910514F00E
:101D600084E490E0FC013197DF01A157BF4D80E88A
:101D70008C93DF01A55BBF4D8FEF8C93ED5FFF4D23
:101D800080EC80830895862F922F1816190614F080
:101D900081E090E08534910514F084E490E0FC014A
:101DA0003197DF01A157BF4D80E88C93DF01A55B20
:101DB000BF4D8FEF8C93ED5FFF4D80830895862F8D
:101DC000922F1816190614F081E090E085349105E1
:101DD00014F084E490E0DC011197FD01E157FF4D20
:101DE00080EC8083FD01E55BFF4D1082AD5FBF4D50
:101DF0001C920895862F922F1816190614F081E070
:101E000090E08534910514F084E490E0DC011197B2
:101E1000FD01E157FF4D80EC8083FD01E55BFF4D47
:101E20001082AD5FBF4D80E48C930895862F922F72
:101E30001816190614F081E090E08534910514F02D
:101E400084E490E0DC011197FD01E157FF4D80EC47
:101E50008083FD01E55BFF4D1082AD5FBF4D80E8E3
:101E60008C930895862F922F1816190614F081E08E
:101E700090E08534910514F084E490E0DC01119742
:101E8000FD01E157FF4D80EC8083FD01E55BFF4DD7
:101E90001082AD5FBF4D8C930895862F922F181638
:101EA000190614F081E090E08534910514F084E483
:101EB00090E0DC011197FD01E157FF4D80EC80833C
:101EC000FD01E55BFF4D1082AD5FBF4D8FEF8C9341
:101ED0000895862F922F1816190614F081E090E0CD
:101EE0008534910514F084E490E0FC013197DF0122
:101EF000A157BF4D80EC8C93DF01A55BBF4D80E403
:101F00008C93ED5FFF4D10820895862F922F181647
:101F1000190614F081E090E08534910514F084E412
:101F200090E0FC013197DF01A157BF4D80EC8C930D
:101F3000DF01A55BBF4D80E48C93ED5FFF4D808397
:101F40000895862F922F1816190614F081E090E05C
:101F50008534910514F084E490E0FC013197DF01B1
:101F6000A157BF4D80EC8C93DF01A55BBF4D80E492
:101F70008C93ED5FFF4D80E880830895862F922F2C
:101F80001816190614F081E090E08534910514F0DC
:101F900084E490E0FC013197DF01A157BF4D90EC44
:101FA0009C93DF01A55BBF4D80E48C93ED5FFF4DFB
:101FB00090830895862F922F1816190614F081E049
:101FC00090E08534910514F084E490E0FC013197B1
:101FD000DF01A157BF4D80EC8C93DF01A55BBF4DA6
:101FE00080E48C93ED5FFF4D8FEF80830895862F03
:101FF000922F1816190614F081E090E085349105AF
:1020000014F084E490E0FC013197DF01A157BF4D4B
:1020100080EC8C93DF01A55BBF4D80E88C93ED5F76
:10202000FF4D10820895862F922F1816190614F06E
:1020300081E090E08534910514F084E490E0FC01A7
:102040003197DF01A157BF4D80EC8C93DF01A55B79
:10205000BF4D80E88C93ED5FFF4D80E48083089551
:10206000862F922F1816190614F081E090E085341F
:10207000910514F084E490E0FC013197DF01A15751
:10208000BF4D80EC8C93DF01A55BBF4D80E88C9346
:10209000ED5FFF4D80830895862F922F1816190645
:1020A00014F081E090E08534910514F084E490E030
:1020B000FC013197DF01A157BF4D90EC9C93DF01EC
:1020C000A55BBF4D80E88C93ED5FFF4D9083089535
:1020D000862F922F1816190614F081E090E08534AF
:1020E000910514F084E490E0FC013197DF01A157E1
:1020F000BF4D80EC8C93DF01A55BBF4D80E88C93D6
:10210000ED5FFF4D8FEF80830895862F922F181675
:10211000190614F081E090E08534910514F084E410
:1021200090E0DC011197FD01E157FF4D80EC8083C9
:10213000FD01E55BFF4D8083AD5FBF4D1C920895AF
:10214000862F922F1816190614F081E090E085343E
:10215000910514F084E490E0DC011197FD01E15752
:10216000FF4D80EC8083FD01E55BFF4D8083AD5F1B
:10217000BF4D80E48C930895862F922F1816190670
:1021800014F081E090E08534910514F084E490E04F
:10219000DC011197FD01E157FF4D80EC8083FD01CB
:1021A000E55BFF4D8083AD5FBF4D80E88C93089564
:1021B000862F922F1816190614F081E090E08534CE
:1021C000910514F084E490E0DC011197FD01E157E2
:1021D000FF4D80EC8083FD01E55BFF4D8083AD5FAB
:1021E000BF4D8C930895862F922F1816190614F060
:1021F00081E090E08534910514F084E490E0DC0106
:102200001197FD01E157FF4D80EC8083FD01E55BF7
:10221000FF4D8083AD5FBF4D8FEF8C930895862F68
:10222000922F1816190614F081E090E0853491057C
:1022300014F084E490E0FC013197DF01A157BF4D19
:1022400080EC8C93DF01A55BBF4D8FEF8C93ED5F2E
:10225000FF4D10820895862F922F1816190614F03C
:1022600081E090E08534910514F084E490E0FC0175
:102270003197DF01A157BF4D80EC8C93DF01A55B47
:10228000BF4D8FEF8C93ED5FFF4D80E48083089509
:10229000862F922F1816190614F081E090E08534ED
:1022A000910514F084E490E0FC013197DF01A1571F
:1022B000BF4D80EC8C93DF01A55BBF4D8FEF8C93FE
:1022C000ED5FFF4D80E880830895862F922F1816CA
:1022D000190614F081E090E08534910514F084E44F
:1022E00090E0FC013197DF01A157BF4D90EC9C932A
:1022F000DF01A55BBF4D8FEF8C93ED5FFF4D9083AA
:102300000895862F922F1816190614F081E090E098
:102310008534910514F084E490E0FC013197DF01ED
:10232000A157BF4D80EC8C93DF01A55BBF4D8FEFB4
:102330008C93ED5FFF4D80830895862F922F1816A2
:10234000190614F081E090E08534910514F084E4DE
:1023500090E0DC011197FD01E157FF4D8FEF808385
:10236000FD01E55BFF4D1082AD5FBF4D1C920895EE
:10237000862F922F1816190614F081E090E085340C
:10238000910514F084E490E0DC011197FD01E15720
:10239000FF4D8FEF8083FD01E55BFF4D1082AD5F48
:1023A000BF4D80E48C930895862F922F181619063E
:1023B00014F081E090E08534910514F084E490E01D
:1023C000DC011197FD01E157FF4D8FEF8083FD0187
:1023D000E55BFF4D1082AD5FBF4D80E88C930895A3
:1023E000862F922F1816190614F081E090E085349C
:1023F000910514F084E490E0DC011197FD01E157B0
:10240000FF4D8FEF8083FD01E55BFF4D1082AD5FD7
:10241000BF4D80EC8C930895862F922F18161906C5
:1024200014F081E090E08534910514F084E490E0AC
:10243000DC011197FD01E157FF4D8FEF8083FD0116
:10244000E55BFF4D1082AD5FBF4D8C930895862FE5
:10245000922F1816190614F081E090E0853491054A
:1024600014F084E490E0FC013197DF01A157BF4DE7
:102470008FEF8C93DF01A55BBF4D80E48C93ED5F04
:10248000FF4D10820895862F922F1816190614F00A
:1024900081E090E08534910514F084E490E0FC0143
:1024A0003197DF01A157BF4D8FEF8C93DF01A55B03
:1024B000BF4D80E48C93ED5FFF4D80830895862FA0
:1024C000922F1816190614F081E090E085349105DA
:1024D00014F084E490E0FC013197DF01A157BF4D77
:1024E0008FEF8C93DF01A55BBF4D80E48C93ED5F94
:1024F000FF4D80E880830895862F922F18161906C5
:1025000014F081E090E08534910514F084E490E0CB
:10251000FC013197DF01A157BF4D8FEF8C93DF0195
:10252000A55BBF4D80E48C93ED5FFF4D80EC808315
:102530000895862F922F1816190614F081E090E066
:102540008534910514F084E490E0FC013197DF01BB
:10255000A157BF4D9FEF9C93DF01A55BBF4D80E46A
:102560008C93ED5FFF4D90830895862F922F181660
:10257000190614F081E090E08534910514F084E4AC
:1025800090E0FC013197DF01A157BF4D8FEF8C9395
:10259000DF01A55BBF4D80E88C93ED5FFF4D10829E
:1025A0000895862F922F1816190614F081E090E0F6
:1025B0008534910514F084E490E0FC013197DF014B
:1025C000A157BF4D8FEF8C93DF01A55BBF4D80E816
:1025D0008C93ED5FFF4D80E480830895862F922FCA
:1025E0001816190614F081E090E08534910514F076
:1025F00084E490E0FC013197DF01A157BF4D8FEFDC
:102600008C93DF01A55BBF4D80E88C93ED5FFF4DA0
:1026100080830895862F922F1816190614F081E0F2
:1026200090E08534910514F084E490E0FC0131974A
:10263000DF01A157BF4D8FEF8C93DF01A55BBF4D2D
:1026400080E88C93ED5FFF4D80EC80830895862FAA
:10265000922F1816190614F081E090E08534910548
:1026600014F084E490E0FC013197DF01A157BF4DE5
:102670009FEF9C93DF01A55BBF4D80E88C93ED5FDE
:10268000FF4D90830895862F922F1816190614F087
:1026900081E090E08534910514F084E490E0FC0141
:1026A0003197DF01A157BF4D8FEF8C93DF01A55B01
:1026B000BF4D80EC8C93ED5FFF4D10820895862F07
:1026C000922F1816190614F081E090E085349105D8
:1026D00014F084E490E0FC013197DF01A157BF4D75
:1026E0008FEF8C93DF01A55BBF4D80EC8C93ED5F8A
:1026F000FF4D80E480830895862F922F18161906C7
:1027000014F081E090E08534910514F084E490E0C9
:10271000FC013197DF01A157BF4D8FEF8C93DF0193
:10272000A55BBF4D80EC8C93ED5FFF4D80E880830F
:102730000895862F922F1816190614F081E090E064
:102740008534910514F084E490E0FC013197DF01B9
:10275000A157BF4D8FEF8C93DF01A55BBF4D80EC80
:102760008C93ED5FFF4D80830895862F922F18166E
:10277000190614F081E090E08534910514F084E4AA
:1027800090E0FC013197DF01A157BF4D9FEF9C9373
:10279000DF01A55BBF4D80EC8C93ED5FFF4D908317
:1027A0000895862F922F1816190614F081E090E0F4
:1027B0008534910514F084E490E0DC011197FD016B
:1027C000E157FF4D8FEF8083FD01E55BFF4D808377
:1027D000AD5FBF4D1C920895862F922F18161906D3
:1027E00014F081E090E08534910514F084E490E0E9
:1027F000DC011197FD01E157FF4D8FEF8083FD0153
:10280000E55BFF4D8083AD5FBF4D80E48C93089501
:10281000862F922F1816190614F081E090E0853467
:10282000910514F084E490E0DC011197FD01E1577B
:10283000FF4D8FEF8083FD01E55BFF4D8083AD5F32
:10284000BF4D80E88C930895862F922F1816190695
:1028500014F081E090E08534910514F084E490E078
:10286000DC011197FD01E157FF4D8FEF8083FD01E2
:10287000E55BFF4D8083AD5FBF4D80EC8C93089589
:10288000862F922F1816190614F081E090E08534F7
:10289000910514F084E490E0DC011197FD01E1570B
:1028A000FF4D8FEF8083FD01E55BFF4D8083AD5FC2
:1028B000BF4D8C930895FF920F931F93F82E062F10
:1028C000142F8FEF0E94A901812F0E94A901802F50
:1028D0000E94A9018F2D0E94A9011F910F91FF90C5
:1028E000089580E090E0FC01E157FF4D1082FC016B
:1028F000E55BFF4D1082FC01ED5FFF4D10820196FC
:102900008434910581F70895CF93DF930E94CF011E
:10291000C0E0D0E0DE01A157BF4DFE01E55BFF4DF9
:102920006081FE01ED5FFF4D40818C9190E070E091
:1029300050E00E945B142196C434D10559F70E94DF
:10294000DC01DF91CF9108950F931F93A0E8B6E0CB
:1029500050E116965C931697E0ECFAE022E02383B0
:102960008C01222733270383072F182F292F332782
:1029700003836383438315965C931F910F9108959E
:102980001F93A0E8B6E010E116961C931697E0ECB2
:10299000FAE023E023839C01442755272383272F34
:1029A000382F492F55272383638315961C938381E2
:1029B00090E01F9108958FEF80934006109280065B
:1029C00080E090E00E944F1580930020813019F044
:1029D00081E0809300200E94E9010895EF92FF9228
:1029E0000F931F93CF93DF930E94DB1480EBE0E8FB
:1029F000F6E0818383E58093C00A789402C08091D9
:102A0000C30AA0ECBAE08091C20A87FDF8CFE0E8E3
:102A1000F6E090E1968386E013968C931397958366
:102A2000968388ED13968C93C0ECDAE08091C20A0D
:102A300087FFFACF00E816E050E1F52EF801F582A5
:102A4000F68246E0E42EEB82F58284E161E00E94AA
:102A5000A5060E948414F801F682EB82F58260E0FC
:102A600070E080E090E044E650E00E94A4140E94F0
:102A7000711460E070E080E090E00E94C0148B5F11
:102A800061E00E94A5060E94841480E197E229E19A
:102A900030E0F9013197F1F70197D9F7FFCF03D073
:102AA000808199270895E0ECF1E0378537FDFDCF6F
:102AB000348538603487FC01E050F04F0895F89475
:022AC000FFCF46
:00000001FF
